{
  "_format": "hh-sol-artifact-1",
  "contractName": "Seller",
  "sourceName": "contracts/Seller.sol",
  "abi": [
    {
      "anonymous": false,
      "inputs": [
        {
          "indexed": true,
          "internalType": "address",
          "name": "warrantyContractAddress",
          "type": "address"
        }
      ],
      "name": "SellerCreated",
      "type": "event"
    },
    {
      "inputs": [
        {
          "internalType": "address",
          "name": "sellerAddress",
          "type": "address"
        },
        {
          "internalType": "string",
          "name": "NFTName",
          "type": "string"
        },
        {
          "internalType": "string",
          "name": "NFTSymbol",
          "type": "string"
        }
      ],
      "name": "createSeller",
      "outputs": [],
      "stateMutability": "nonpayable",
      "type": "function"
    },
    {
      "inputs": [],
      "name": "getWarrantyContract",
      "outputs": [
        {
          "internalType": "contract WarrantyNFT",
          "name": "",
          "type": "address"
        }
      ],
      "stateMutability": "view",
      "type": "function"
    },
    {
      "inputs": [
        {
          "internalType": "address",
          "name": "",
          "type": "address"
        }
      ],
      "name": "sellers",
      "outputs": [
        {
          "internalType": "contract WarrantyNFT",
          "name": "WarrantyContract",
          "type": "address"
        },
        {
          "internalType": "bool",
          "name": "isValue",
          "type": "bool"
        }
      ],
      "stateMutability": "view",
      "type": "function"
    }
  ],
  "bytecode": "0x608060405234801561001057600080fd5b50613936806100206000396000f3fe60806040523480156200001157600080fd5b5060043610620000465760003560e01c80634b6918c7146200004b5780636d47ab72146200006d5780639dafa2f614620000a4575b600080fd5b62000055620000c4565b6040516200006491906200037b565b60405180910390f35b6200008b6004803603810190620000859190620003f1565b6200012d565b6040516200009b92919062000440565b60405180910390f35b620000c26004803603810190620000bc9190620005cf565b6200017e565b005b60008060003373ffffffffffffffffffffffffffffffffffffffff1673ffffffffffffffffffffffffffffffffffffffff16815260200190815260200160002060000160009054906101000a900473ffffffffffffffffffffffffffffffffffffffff16905090565b60006020528060005260406000206000915090508060000160009054906101000a900473ffffffffffffffffffffffffffffffffffffffff16908060000160149054906101000a900460ff16905082565b60008383836040516200019190620002e2565b6200019f939291906200070d565b604051809103906000f080158015620001bc573d6000803e3d6000fd5b509050806000808673ffffffffffffffffffffffffffffffffffffffff1673ffffffffffffffffffffffffffffffffffffffff16815260200190815260200160002060000160006101000a81548173ffffffffffffffffffffffffffffffffffffffff021916908373ffffffffffffffffffffffffffffffffffffffff16021790555060016000808673ffffffffffffffffffffffffffffffffffffffff1673ffffffffffffffffffffffffffffffffffffffff16815260200190815260200160002060000160146101000a81548160ff0219169083151502179055508073ffffffffffffffffffffffffffffffffffffffff167f2f07e7152a042cda69d708583b500ca5ec9f999fd8e1e4fe1330b3bdb0afa52d60405160405180910390a250505050565b6131a8806200075983390190565b600073ffffffffffffffffffffffffffffffffffffffff82169050919050565b6000819050919050565b60006200033b620003356200032f84620002f0565b62000310565b620002f0565b9050919050565b60006200034f826200031a565b9050919050565b6000620003638262000342565b9050919050565b620003758162000356565b82525050565b60006020820190506200039260008301846200036a565b92915050565b6000604051905090565b600080fd5b600080fd5b6000620003b982620002f0565b9050919050565b620003cb81620003ac565b8114620003d757600080fd5b50565b600081359050620003eb81620003c0565b92915050565b6000602082840312156200040a5762000409620003a2565b5b60006200041a84828501620003da565b91505092915050565b60008115159050919050565b6200043a8162000423565b82525050565b60006040820190506200045760008301856200036a565b6200046660208301846200042f565b9392505050565b600080fd5b600080fd5b6000601f19601f8301169050919050565b7f4e487b7100000000000000000000000000000000000000000000000000000000600052604160045260246000fd5b620004c28262000477565b810181811067ffffffffffffffff82111715620004e457620004e362000488565b5b80604052505050565b6000620004f962000398565b9050620005078282620004b7565b919050565b600067ffffffffffffffff8211156200052a576200052962000488565b5b620005358262000477565b9050602081019050919050565b82818337600083830152505050565b60006200056862000562846200050c565b620004ed565b90508281526020810184848401111562000587576200058662000472565b5b6200059484828562000542565b509392505050565b600082601f830112620005b457620005b36200046d565b5b8135620005c684826020860162000551565b91505092915050565b600080600060608486031215620005eb57620005ea620003a2565b5b6000620005fb86828701620003da565b935050602084013567ffffffffffffffff8111156200061f576200061e620003a7565b5b6200062d868287016200059c565b925050604084013567ffffffffffffffff811115620006515762000650620003a7565b5b6200065f868287016200059c565b9150509250925092565b6200067481620003ac565b82525050565b600081519050919050565b600082825260208201905092915050565b60005b83811015620006b657808201518184015260208101905062000699565b83811115620006c6576000848401525b50505050565b6000620006d9826200067a565b620006e5818562000685565b9350620006f781856020860162000696565b620007028162000477565b840191505092915050565b600060608201905062000724600083018662000669565b8181036020830152620007388185620006cc565b905081810360408301526200074e8184620006cc565b905094935050505056fe60a06040523480156200001157600080fd5b50604051620031a8380380620031a883398181016040528101906200003791906200035f565b8181816000908051906020019062000051929190620000ad565b5080600190805190602001906200006a929190620000ad565b5050508273ffffffffffffffffffffffffffffffffffffffff1660808173ffffffffffffffffffffffffffffffffffffffff1660601b815250505050506200045e565b828054620000bb9062000428565b90600052602060002090601f016020900481019282620000df57600085556200012b565b82601f10620000fa57805160ff19168380011785556200012b565b828001600101855582156200012b579182015b828111156200012a5782518255916020019190600101906200010d565b5b5090506200013a91906200013e565b5090565b5b80821115620001595760008160009055506001016200013f565b5090565b6000604051905090565b600080fd5b600080fd5b600073ffffffffffffffffffffffffffffffffffffffff82169050919050565b60006200019e8262000171565b9050919050565b620001b08162000191565b8114620001bc57600080fd5b50565b600081519050620001d081620001a5565b92915050565b600080fd5b600080fd5b6000601f19601f8301169050919050565b7f4e487b7100000000000000000000000000000000000000000000000000000000600052604160045260246000fd5b6200022b82620001e0565b810181811067ffffffffffffffff821117156200024d576200024c620001f1565b5b80604052505050565b6000620002626200015d565b905062000270828262000220565b919050565b600067ffffffffffffffff821115620002935762000292620001f1565b5b6200029e82620001e0565b9050602081019050919050565b60005b83811015620002cb578082015181840152602081019050620002ae565b83811115620002db576000848401525b50505050565b6000620002f8620002f28462000275565b62000256565b905082815260208101848484011115620003175762000316620001db565b5b62000324848285620002ab565b509392505050565b600082601f830112620003445762000343620001d6565b5b815162000356848260208601620002e1565b91505092915050565b6000806000606084860312156200037b576200037a62000167565b5b60006200038b86828701620001bf565b935050602084015167ffffffffffffffff811115620003af57620003ae6200016c565b5b620003bd868287016200032c565b925050604084015167ffffffffffffffff811115620003e157620003e06200016c565b5b620003ef868287016200032c565b9150509250925092565b7f4e487b7100000000000000000000000000000000000000000000000000000000600052602260045260246000fd5b600060028204905060018216806200044157607f821691505b60208210811415620004585762000457620003f9565b5b50919050565b60805160601c612d2e6200047a60003960005050612d2e6000f3fe608060405234801561001057600080fd5b50600436106101005760003560e01c806370a0823111610097578063b88d4fde11610066578063b88d4fde146102c0578063ba2255f4146102dc578063c87b56dd146102f8578063e985e9c51461032857610100565b806370a082311461023a57806395d89b411461026a578063a22cb46514610288578063a4833b4a146102a457610100565b806323b872dd116100d357806323b872dd1461019f57806342842e0e146101bb5780635e1f6edc146101d75780636352211e1461020a57610100565b806301ffc9a71461010557806306fdde0314610135578063081812fc14610153578063095ea7b314610183575b600080fd5b61011f600480360381019061011a9190611c67565b610358565b60405161012c9190611caf565b60405180910390f35b61013d61043a565b60405161014a9190611d63565b60405180910390f35b61016d60048036038101906101689190611dbb565b6104cc565b60405161017a9190611e29565b60405180910390f35b61019d60048036038101906101989190611e70565b610512565b005b6101b960048036038101906101b49190611eb0565b61062a565b005b6101d560048036038101906101d09190611eb0565b61068a565b005b6101f160048036038101906101ec9190611dbb565b6106aa565b6040516102019493929190611f12565b60405180910390f35b610224600480360381019061021f9190611dbb565b610872565b6040516102319190611e29565b60405180910390f35b610254600480360381019061024f9190611f6c565b610924565b6040516102619190611f99565b60405180910390f35b6102726109dc565b60405161027f9190611d63565b60405180910390f35b6102a2600480360381019061029d9190611fe0565b610a6e565b005b6102be60048036038101906102b99190612155565b610a84565b005b6102da60048036038101906102d591906122c5565b610d46565b005b6102f660048036038101906102f19190611dbb565b610da8565b005b610312600480360381019061030d9190611dbb565b610ee5565b60405161031f9190611d63565b60405180910390f35b610342600480360381019061033d9190612348565b610f8d565b60405161034f9190611caf565b60405180910390f35b60007f80ac58cd000000000000000000000000000000000000000000000000000000007bffffffffffffffffffffffffffffffffffffffffffffffffffffffff1916827bffffffffffffffffffffffffffffffffffffffffffffffffffffffff1916148061042357507f5b5e139f000000000000000000000000000000000000000000000000000000007bffffffffffffffffffffffffffffffffffffffffffffffffffffffff1916827bffffffffffffffffffffffffffffffffffffffffffffffffffffffff1916145b80610433575061043282611021565b5b9050919050565b606060008054610449906123b7565b80601f0160208091040260200160405190810160405280929190818152602001828054610475906123b7565b80156104c25780601f10610497576101008083540402835291602001916104c2565b820191906000526020600020905b8154815290600101906020018083116104a557829003601f168201915b5050505050905090565b60006104d78261108b565b6004600083815260200190815260200160002060009054906101000a900473ffffffffffffffffffffffffffffffffffffffff169050919050565b600061051d82610872565b90508073ffffffffffffffffffffffffffffffffffffffff168373ffffffffffffffffffffffffffffffffffffffff16141561058e576040517f08c379a00000000000000000000000000000000000000000000000000000000081526004016105859061245b565b60405180910390fd5b8073ffffffffffffffffffffffffffffffffffffffff166105ad6110d6565b73ffffffffffffffffffffffffffffffffffffffff1614806105dc57506105db816105d66110d6565b610f8d565b5b61061b576040517f08c379a0000000000000000000000000000000000000000000000000000000008152600401610612906124ed565b60405180910390fd5b61062583836110de565b505050565b61063b6106356110d6565b82611197565b61067a576040517f08c379a00000000000000000000000000000000000000000000000000000000081526004016106719061257f565b60405180910390fd5b61068583838361122c565b505050565b6106a583838360405180602001604052806000815250610d46565b505050565b60096020528060005260406000206000915090508060000154908060010180546106d3906123b7565b80601f01602080910402602001604051908101604052809291908181526020018280546106ff906123b7565b801561074c5780601f106107215761010080835404028352916020019161074c565b820191906000526020600020905b81548152906001019060200180831161072f57829003601f168201915b505050505090806002018054610761906123b7565b80601f016020809104026020016040519081016040528092919081815260200182805461078d906123b7565b80156107da5780601f106107af576101008083540402835291602001916107da565b820191906000526020600020905b8154815290600101906020018083116107bd57829003601f168201915b5050505050908060030180546107ef906123b7565b80601f016020809104026020016040519081016040528092919081815260200182805461081b906123b7565b80156108685780601f1061083d57610100808354040283529160200191610868565b820191906000526020600020905b81548152906001019060200180831161084b57829003601f168201915b5050505050905084565b6000806002600084815260200190815260200160002060009054906101000a900473ffffffffffffffffffffffffffffffffffffffff169050600073ffffffffffffffffffffffffffffffffffffffff168173ffffffffffffffffffffffffffffffffffffffff16141561091b576040517f08c379a0000000000000000000000000000000000000000000000000000000008152600401610912906125eb565b60405180910390fd5b80915050919050565b60008073ffffffffffffffffffffffffffffffffffffffff168273ffffffffffffffffffffffffffffffffffffffff161415610995576040517f08c379a000000000000000000000000000000000000000000000000000000000815260040161098c9061267d565b60405180910390fd5b600360008373ffffffffffffffffffffffffffffffffffffffff1673ffffffffffffffffffffffffffffffffffffffff168152602001908152602001600020549050919050565b6060600180546109eb906123b7565b80601f0160208091040260200160405190810160405280929190818152602001828054610a17906123b7565b8015610a645780601f10610a3957610100808354040283529160200191610a64565b820191906000526020600020905b815481529060010190602001808311610a4757829003601f168201915b5050505050905090565b610a80610a796110d6565b8383611493565b5050565b6000600860003373ffffffffffffffffffffffffffffffffffffffff1673ffffffffffffffffffffffffffffffffffffffff1681526020019081526020016000208054905011610b09576040517f08c379a0000000000000000000000000000000000000000000000000000000008152600401610b009061270f565b60405180910390fd5b6000610ba2600860008873ffffffffffffffffffffffffffffffffffffffff1673ffffffffffffffffffffffffffffffffffffffff168152602001908152602001600020805480602002602001604051908101604052809291908181526020018280548015610b9757602002820191906000526020600020905b815481526020019060010190808311610b83575b505050505086611600565b905080610bdb576040517f4ec6212e00000000000000000000000000000000000000000000000000000000815260040160405180910390fd5b6000600a60008781526020019081526020016000205414610c28576040517f3263593f00000000000000000000000000000000000000000000000000000000815260040160405180910390fd5b610c32600761165a565b6000610c3e6007611670565b9050610c4a878261167e565b610c548186611858565b60405180608001604052808281526020018481526020018681526020018581525060096000838152602001908152602001600020600082015181600001556020820151816001019080519060200190610cae929190611b58565b506040820151816002019080519060200190610ccb929190611b58565b506060820151816003019080519060200190610ce8929190611b58565b5090505080600a6000888152602001908152602001600020819055507f0176f203df400d7bd5f1b1c9ef36c16709bf3b5d9fd35f000a6bae32393f66c38188604051610d3592919061272f565b60405180910390a150505050505050565b610d57610d516110d6565b83611197565b610d96576040517f08c379a0000000000000000000000000000000000000000000000000000000008152600401610d8d9061257f565b60405180910390fd5b610da2848484846118cc565b50505050565b6000610e41600860003373ffffffffffffffffffffffffffffffffffffffff1673ffffffffffffffffffffffffffffffffffffffff168152602001908152602001600020805480602002602001604051908101604052809291908181526020018280548015610e3657602002820191906000526020600020905b815481526020019060010190808311610e22575b505050505083611600565b90508015610e7b576040517fa3dc114a00000000000000000000000000000000000000000000000000000000815260040160405180910390fd5b600860003373ffffffffffffffffffffffffffffffffffffffff1673ffffffffffffffffffffffffffffffffffffffff1681526020019081526020016000208290806001815401808255809150506001900390600052602060002001600090919091909150555050565b6060600960008381526020019081526020016000206002018054610f08906123b7565b80601f0160208091040260200160405190810160405280929190818152602001828054610f34906123b7565b8015610f815780601f10610f5657610100808354040283529160200191610f81565b820191906000526020600020905b815481529060010190602001808311610f6457829003601f168201915b50505050509050919050565b6000600560008473ffffffffffffffffffffffffffffffffffffffff1673ffffffffffffffffffffffffffffffffffffffff16815260200190815260200160002060008373ffffffffffffffffffffffffffffffffffffffff1673ffffffffffffffffffffffffffffffffffffffff16815260200190815260200160002060009054906101000a900460ff16905092915050565b60007f01ffc9a7000000000000000000000000000000000000000000000000000000007bffffffffffffffffffffffffffffffffffffffffffffffffffffffff1916827bffffffffffffffffffffffffffffffffffffffffffffffffffffffff1916149050919050565b61109481611928565b6110d3576040517f08c379a00000000000000000000000000000000000000000000000000000000081526004016110ca906125eb565b60405180910390fd5b50565b600033905090565b816004600083815260200190815260200160002060006101000a81548173ffffffffffffffffffffffffffffffffffffffff021916908373ffffffffffffffffffffffffffffffffffffffff160217905550808273ffffffffffffffffffffffffffffffffffffffff1661115183610872565b73ffffffffffffffffffffffffffffffffffffffff167f8c5be1e5ebec7d5bd14f71427d1e84f3dd0314c0f7b2291e5b200ac8c7c3b92560405160405180910390a45050565b6000806111a383610872565b90508073ffffffffffffffffffffffffffffffffffffffff168473ffffffffffffffffffffffffffffffffffffffff1614806111e557506111e48185610f8d565b5b8061122357508373ffffffffffffffffffffffffffffffffffffffff1661120b846104cc565b73ffffffffffffffffffffffffffffffffffffffff16145b91505092915050565b8273ffffffffffffffffffffffffffffffffffffffff1661124c82610872565b73ffffffffffffffffffffffffffffffffffffffff16146112a2576040517f08c379a0000000000000000000000000000000000000000000000000000000008152600401611299906127ca565b60405180910390fd5b600073ffffffffffffffffffffffffffffffffffffffff168273ffffffffffffffffffffffffffffffffffffffff161415611312576040517f08c379a00000000000000000000000000000000000000000000000000000000081526004016113099061285c565b60405180910390fd5b61131d838383611994565b6113286000826110de565b6001600360008573ffffffffffffffffffffffffffffffffffffffff1673ffffffffffffffffffffffffffffffffffffffff168152602001908152602001600020600082825461137891906128ab565b925050819055506001600360008473ffffffffffffffffffffffffffffffffffffffff1673ffffffffffffffffffffffffffffffffffffffff16815260200190815260200160002060008282546113cf91906128df565b92505081905550816002600083815260200190815260200160002060006101000a81548173ffffffffffffffffffffffffffffffffffffffff021916908373ffffffffffffffffffffffffffffffffffffffff160217905550808273ffffffffffffffffffffffffffffffffffffffff168473ffffffffffffffffffffffffffffffffffffffff167fddf252ad1be2c89b69c2b068fc378daa952ba7f163c4a11628f55a4df523b3ef60405160405180910390a461148e838383611999565b505050565b8173ffffffffffffffffffffffffffffffffffffffff168373ffffffffffffffffffffffffffffffffffffffff161415611502576040517f08c379a00000000000000000000000000000000000000000000000000000000081526004016114f990612981565b60405180910390fd5b80600560008573ffffffffffffffffffffffffffffffffffffffff1673ffffffffffffffffffffffffffffffffffffffff16815260200190815260200160002060008473ffffffffffffffffffffffffffffffffffffffff1673ffffffffffffffffffffffffffffffffffffffff16815260200190815260200160002060006101000a81548160ff0219169083151502179055508173ffffffffffffffffffffffffffffffffffffffff168373ffffffffffffffffffffffffffffffffffffffff167f17307eab39ab6107e8899845ad3d59bd9653f200f220920489ca2b5937696c31836040516115f39190611caf565b60405180910390a3505050565b600080600090505b835181101561164e5782848281518110611625576116246129a1565b5b6020026020010151141561163d576001915050611654565b80611647906129d0565b9050611608565b50600090505b92915050565b6001816000016000828254019250508190555050565b600081600001549050919050565b600073ffffffffffffffffffffffffffffffffffffffff168273ffffffffffffffffffffffffffffffffffffffff1614156116ee576040517f08c379a00000000000000000000000000000000000000000000000000000000081526004016116e590612a65565b60405180910390fd5b6116f781611928565b15611737576040517f08c379a000000000000000000000000000000000000000000000000000000000815260040161172e90612ad1565b60405180910390fd5b61174360008383611994565b6001600360008473ffffffffffffffffffffffffffffffffffffffff1673ffffffffffffffffffffffffffffffffffffffff168152602001908152602001600020600082825461179391906128df565b92505081905550816002600083815260200190815260200160002060006101000a81548173ffffffffffffffffffffffffffffffffffffffff021916908373ffffffffffffffffffffffffffffffffffffffff160217905550808273ffffffffffffffffffffffffffffffffffffffff16600073ffffffffffffffffffffffffffffffffffffffff167fddf252ad1be2c89b69c2b068fc378daa952ba7f163c4a11628f55a4df523b3ef60405160405180910390a461185460008383611999565b5050565b61186182611928565b6118a0576040517f08c379a000000000000000000000000000000000000000000000000000000000815260040161189790612b63565b60405180910390fd5b806006600084815260200190815260200160002090805190602001906118c7929190611b58565b505050565b6118d784848461122c565b6118e38484848461199e565b611922576040517f08c379a000000000000000000000000000000000000000000000000000000000815260040161191990612bf5565b60405180910390fd5b50505050565b60008073ffffffffffffffffffffffffffffffffffffffff166002600084815260200190815260200160002060009054906101000a900473ffffffffffffffffffffffffffffffffffffffff1673ffffffffffffffffffffffffffffffffffffffff1614159050919050565b505050565b505050565b60006119bf8473ffffffffffffffffffffffffffffffffffffffff16611b35565b15611b28578373ffffffffffffffffffffffffffffffffffffffff1663150b7a026119e86110d6565b8786866040518563ffffffff1660e01b8152600401611a0a9493929190612c6a565b602060405180830381600087803b158015611a2457600080fd5b505af1925050508015611a5557506040513d601f19601f82011682018060405250810190611a529190612ccb565b60015b611ad8573d8060008114611a85576040519150601f19603f3d011682016040523d82523d6000602084013e611a8a565b606091505b50600081511415611ad0576040517f08c379a0000000000000000000000000000000000000000000000000000000008152600401611ac790612bf5565b60405180910390fd5b805181602001fd5b63150b7a0260e01b7bffffffffffffffffffffffffffffffffffffffffffffffffffffffff1916817bffffffffffffffffffffffffffffffffffffffffffffffffffffffff191614915050611b2d565b600190505b949350505050565b6000808273ffffffffffffffffffffffffffffffffffffffff163b119050919050565b828054611b64906123b7565b90600052602060002090601f016020900481019282611b865760008555611bcd565b82601f10611b9f57805160ff1916838001178555611bcd565b82800160010185558215611bcd579182015b82811115611bcc578251825591602001919060010190611bb1565b5b509050611bda9190611bde565b5090565b5b80821115611bf7576000816000905550600101611bdf565b5090565b6000604051905090565b600080fd5b600080fd5b60007fffffffff0000000000000000000000000000000000000000000000000000000082169050919050565b611c4481611c0f565b8114611c4f57600080fd5b50565b600081359050611c6181611c3b565b92915050565b600060208284031215611c7d57611c7c611c05565b5b6000611c8b84828501611c52565b91505092915050565b60008115159050919050565b611ca981611c94565b82525050565b6000602082019050611cc46000830184611ca0565b92915050565b600081519050919050565b600082825260208201905092915050565b60005b83811015611d04578082015181840152602081019050611ce9565b83811115611d13576000848401525b50505050565b6000601f19601f8301169050919050565b6000611d3582611cca565b611d3f8185611cd5565b9350611d4f818560208601611ce6565b611d5881611d19565b840191505092915050565b60006020820190508181036000830152611d7d8184611d2a565b905092915050565b6000819050919050565b611d9881611d85565b8114611da357600080fd5b50565b600081359050611db581611d8f565b92915050565b600060208284031215611dd157611dd0611c05565b5b6000611ddf84828501611da6565b91505092915050565b600073ffffffffffffffffffffffffffffffffffffffff82169050919050565b6000611e1382611de8565b9050919050565b611e2381611e08565b82525050565b6000602082019050611e3e6000830184611e1a565b92915050565b611e4d81611e08565b8114611e5857600080fd5b50565b600081359050611e6a81611e44565b92915050565b60008060408385031215611e8757611e86611c05565b5b6000611e9585828601611e5b565b9250506020611ea685828601611da6565b9150509250929050565b600080600060608486031215611ec957611ec8611c05565b5b6000611ed786828701611e5b565b9350506020611ee886828701611e5b565b9250506040611ef986828701611da6565b9150509250925092565b611f0c81611d85565b82525050565b6000608082019050611f276000830187611f03565b8181036020830152611f398186611d2a565b90508181036040830152611f4d8185611d2a565b90508181036060830152611f618184611d2a565b905095945050505050565b600060208284031215611f8257611f81611c05565b5b6000611f9084828501611e5b565b91505092915050565b6000602082019050611fae6000830184611f03565b92915050565b611fbd81611c94565b8114611fc857600080fd5b50565b600081359050611fda81611fb4565b92915050565b60008060408385031215611ff757611ff6611c05565b5b600061200585828601611e5b565b925050602061201685828601611fcb565b9150509250929050565b600080fd5b600080fd5b7f4e487b7100000000000000000000000000000000000000000000000000000000600052604160045260246000fd5b61206282611d19565b810181811067ffffffffffffffff821117156120815761208061202a565b5b80604052505050565b6000612094611bfb565b90506120a08282612059565b919050565b600067ffffffffffffffff8211156120c0576120bf61202a565b5b6120c982611d19565b9050602081019050919050565b82818337600083830152505050565b60006120f86120f3846120a5565b61208a565b90508281526020810184848401111561211457612113612025565b5b61211f8482856120d6565b509392505050565b600082601f83011261213c5761213b612020565b5b813561214c8482602086016120e5565b91505092915050565b600080600080600060a0868803121561217157612170611c05565b5b600061217f88828901611e5b565b955050602061219088828901611da6565b945050604086013567ffffffffffffffff8111156121b1576121b0611c0a565b5b6121bd88828901612127565b935050606086013567ffffffffffffffff8111156121de576121dd611c0a565b5b6121ea88828901612127565b925050608086013567ffffffffffffffff81111561220b5761220a611c0a565b5b61221788828901612127565b9150509295509295909350565b600067ffffffffffffffff82111561223f5761223e61202a565b5b61224882611d19565b9050602081019050919050565b600061226861226384612224565b61208a565b90508281526020810184848401111561228457612283612025565b5b61228f8482856120d6565b509392505050565b600082601f8301126122ac576122ab612020565b5b81356122bc848260208601612255565b91505092915050565b600080600080608085870312156122df576122de611c05565b5b60006122ed87828801611e5b565b94505060206122fe87828801611e5b565b935050604061230f87828801611da6565b925050606085013567ffffffffffffffff8111156123305761232f611c0a565b5b61233c87828801612297565b91505092959194509250565b6000806040838503121561235f5761235e611c05565b5b600061236d85828601611e5b565b925050602061237e85828601611e5b565b9150509250929050565b7f4e487b7100000000000000000000000000000000000000000000000000000000600052602260045260246000fd5b600060028204905060018216806123cf57607f821691505b602082108114156123e3576123e2612388565b5b50919050565b7f4552433732313a20617070726f76616c20746f2063757272656e74206f776e6560008201527f7200000000000000000000000000000000000000000000000000000000000000602082015250565b6000612445602183611cd5565b9150612450826123e9565b604082019050919050565b6000602082019050818103600083015261247481612438565b9050919050565b7f4552433732313a20617070726f76652063616c6c6572206973206e6f7420746f60008201527f6b656e206f776e6572206e6f7220617070726f76656420666f7220616c6c0000602082015250565b60006124d7603e83611cd5565b91506124e28261247b565b604082019050919050565b60006020820190508181036000830152612506816124ca565b9050919050565b7f4552433732313a2063616c6c6572206973206e6f7420746f6b656e206f776e6560008201527f72206e6f7220617070726f766564000000000000000000000000000000000000602082015250565b6000612569602e83611cd5565b91506125748261250d565b604082019050919050565b600060208201905081810360008301526125988161255c565b9050919050565b7f4552433732313a20696e76616c696420746f6b656e2049440000000000000000600082015250565b60006125d5601883611cd5565b91506125e08261259f565b602082019050919050565b60006020820190508181036000830152612604816125c8565b9050919050565b7f4552433732313a2061646472657373207a65726f206973206e6f74206120766160008201527f6c6964206f776e65720000000000000000000000000000000000000000000000602082015250565b6000612667602983611cd5565b91506126728261260b565b604082019050919050565b600060208201905081810360008301526126968161265a565b9050919050565b7f4e6f7420416c6c6f7765642c20596f7520617265206e6f7420637573746f6d6560008201527f7200000000000000000000000000000000000000000000000000000000000000602082015250565b60006126f9602183611cd5565b91506127048261269d565b604082019050919050565b60006020820190508181036000830152612728816126ec565b9050919050565b60006040820190506127446000830185611f03565b6127516020830184611e1a565b9392505050565b7f4552433732313a207472616e736665722066726f6d20696e636f72726563742060008201527f6f776e6572000000000000000000000000000000000000000000000000000000602082015250565b60006127b4602583611cd5565b91506127bf82612758565b604082019050919050565b600060208201905081810360008301526127e3816127a7565b9050919050565b7f4552433732313a207472616e7366657220746f20746865207a65726f2061646460008201527f7265737300000000000000000000000000000000000000000000000000000000602082015250565b6000612846602483611cd5565b9150612851826127ea565b604082019050919050565b6000602082019050818103600083015261287581612839565b9050919050565b7f4e487b7100000000000000000000000000000000000000000000000000000000600052601160045260246000fd5b60006128b682611d85565b91506128c183611d85565b9250828210156128d4576128d361287c565b5b828203905092915050565b60006128ea82611d85565b91506128f583611d85565b9250827fffffffffffffffffffffffffffffffffffffffffffffffffffffffffffffffff0382111561292a5761292961287c565b5b828201905092915050565b7f4552433732313a20617070726f766520746f2063616c6c657200000000000000600082015250565b600061296b601983611cd5565b915061297682612935565b602082019050919050565b6000602082019050818103600083015261299a8161295e565b9050919050565b7f4e487b7100000000000000000000000000000000000000000000000000000000600052603260045260246000fd5b60006129db82611d85565b91507fffffffffffffffffffffffffffffffffffffffffffffffffffffffffffffffff821415612a0e57612a0d61287c565b5b600182019050919050565b7f4552433732313a206d696e7420746f20746865207a65726f2061646472657373600082015250565b6000612a4f602083611cd5565b9150612a5a82612a19565b602082019050919050565b60006020820190508181036000830152612a7e81612a42565b9050919050565b7f4552433732313a20746f6b656e20616c7265616479206d696e74656400000000600082015250565b6000612abb601c83611cd5565b9150612ac682612a85565b602082019050919050565b60006020820190508181036000830152612aea81612aae565b9050919050565b7f45524337323155524953746f726167653a2055524920736574206f66206e6f6e60008201527f6578697374656e7420746f6b656e000000000000000000000000000000000000602082015250565b6000612b4d602e83611cd5565b9150612b5882612af1565b604082019050919050565b60006020820190508181036000830152612b7c81612b40565b9050919050565b7f4552433732313a207472616e7366657220746f206e6f6e20455243373231526560008201527f63656976657220696d706c656d656e7465720000000000000000000000000000602082015250565b6000612bdf603283611cd5565b9150612bea82612b83565b604082019050919050565b60006020820190508181036000830152612c0e81612bd2565b9050919050565b600081519050919050565b600082825260208201905092915050565b6000612c3c82612c15565b612c468185612c20565b9350612c56818560208601611ce6565b612c5f81611d19565b840191505092915050565b6000608082019050612c7f6000830187611e1a565b612c8c6020830186611e1a565b612c996040830185611f03565b8181036060830152612cab8184612c31565b905095945050505050565b600081519050612cc581611c3b565b92915050565b600060208284031215612ce157612ce0611c05565b5b6000612cef84828501612cb6565b9150509291505056fea264697066735822122001f881733e1390a3c28200079110ddfa236d0c6c5c89001b0cc5e5cd52b5820664736f6c63430008080033a264697066735822122071c2f637ac97c4ee1435b55479b033eb2d1cfab9b1f8f68761b03f6f1ac63bf464736f6c63430008080033",
  "linkReferences": {},
  "deployedLinkReferences": {}
}