{
  "_format": "hh-sol-artifact-1",
  "contractName": "WarrantyNFT",
  "sourceName": "contracts/WarrantyNFT.sol",
  "abi": [
    {
      "inputs": [
        {
          "internalType": "address",
          "name": "sellerId",
          "type": "address"
        },
        {
          "internalType": "string",
          "name": "NFTName",
          "type": "string"
        },
        {
          "internalType": "string",
          "name": "NFTSymbol",
          "type": "string"
        }
      ],
      "stateMutability": "nonpayable",
      "type": "constructor"
    },
    {
      "inputs": [],
      "name": "WarrantyNFT__AlreadyIssuedNFT",
      "type": "error"
    },
    {
      "inputs": [],
      "name": "WarrantyNFT__alreadyExists",
      "type": "error"
    },
    {
      "inputs": [],
      "name": "WarrantyNFT__orderNotFound",
      "type": "error"
    },
    {
      "anonymous": false,
      "inputs": [
        {
          "indexed": true,
          "internalType": "address",
          "name": "owner",
          "type": "address"
        },
        {
          "indexed": true,
          "internalType": "address",
          "name": "approved",
          "type": "address"
        },
        {
          "indexed": true,
          "internalType": "uint256",
          "name": "tokenId",
          "type": "uint256"
        }
      ],
      "name": "Approval",
      "type": "event"
    },
    {
      "anonymous": false,
      "inputs": [
        {
          "indexed": true,
          "internalType": "address",
          "name": "owner",
          "type": "address"
        },
        {
          "indexed": true,
          "internalType": "address",
          "name": "operator",
          "type": "address"
        },
        {
          "indexed": false,
          "internalType": "bool",
          "name": "approved",
          "type": "bool"
        }
      ],
      "name": "ApprovalForAll",
      "type": "event"
    },
    {
      "anonymous": false,
      "inputs": [
        {
          "indexed": false,
          "internalType": "uint256",
          "name": "tokenId",
          "type": "uint256"
        },
        {
          "indexed": false,
          "internalType": "address",
          "name": "owner",
          "type": "address"
        }
      ],
      "name": "NFTMinted",
      "type": "event"
    },
    {
      "anonymous": false,
      "inputs": [
        {
          "indexed": true,
          "internalType": "address",
          "name": "from",
          "type": "address"
        },
        {
          "indexed": true,
          "internalType": "address",
          "name": "to",
          "type": "address"
        },
        {
          "indexed": true,
          "internalType": "uint256",
          "name": "tokenId",
          "type": "uint256"
        }
      ],
      "name": "Transfer",
      "type": "event"
    },
    {
      "inputs": [
        {
          "internalType": "uint256",
          "name": "",
          "type": "uint256"
        }
      ],
      "name": "NftTokenToData",
      "outputs": [
        {
          "internalType": "uint256",
          "name": "tokenId",
          "type": "uint256"
        },
        {
          "internalType": "uint256",
          "name": "expiry",
          "type": "uint256"
        },
        {
          "internalType": "string",
          "name": "tokenURI",
          "type": "string"
        },
        {
          "internalType": "string",
          "name": "expireTokenURI",
          "type": "string"
        },
        {
          "internalType": "uint256",
          "name": "timeStamp",
          "type": "uint256"
        },
        {
          "internalType": "bool",
          "name": "expired",
          "type": "bool"
        }
      ],
      "stateMutability": "view",
      "type": "function"
    },
    {
      "inputs": [
        {
          "internalType": "address",
          "name": "to",
          "type": "address"
        },
        {
          "internalType": "uint256",
          "name": "tokenId",
          "type": "uint256"
        }
      ],
      "name": "approve",
      "outputs": [],
      "stateMutability": "nonpayable",
      "type": "function"
    },
    {
      "inputs": [
        {
          "internalType": "address",
          "name": "owner",
          "type": "address"
        }
      ],
      "name": "balanceOf",
      "outputs": [
        {
          "internalType": "uint256",
          "name": "",
          "type": "uint256"
        }
      ],
      "stateMutability": "view",
      "type": "function"
    },
    {
      "inputs": [
        {
          "internalType": "uint256",
          "name": "tokenId",
          "type": "uint256"
        }
      ],
      "name": "getApproved",
      "outputs": [
        {
          "internalType": "address",
          "name": "",
          "type": "address"
        }
      ],
      "stateMutability": "view",
      "type": "function"
    },
    {
      "inputs": [],
      "name": "getCustomersTokens",
      "outputs": [
        {
          "internalType": "string[]",
          "name": "",
          "type": "string[]"
        }
      ],
      "stateMutability": "view",
      "type": "function"
    },
    {
      "inputs": [
        {
          "internalType": "address",
          "name": "owner",
          "type": "address"
        },
        {
          "internalType": "address",
          "name": "operator",
          "type": "address"
        }
      ],
      "name": "isApprovedForAll",
      "outputs": [
        {
          "internalType": "bool",
          "name": "",
          "type": "bool"
        }
      ],
      "stateMutability": "view",
      "type": "function"
    },
    {
      "inputs": [
        {
          "internalType": "address",
          "name": "customer",
          "type": "address"
        },
        {
          "internalType": "uint256",
          "name": "orderId",
          "type": "uint256"
        },
        {
          "internalType": "string",
          "name": "activeTokenURI",
          "type": "string"
        },
        {
          "internalType": "string",
          "name": "expireTokenURI",
          "type": "string"
        },
        {
          "internalType": "uint256",
          "name": "expiry",
          "type": "uint256"
        }
      ],
      "name": "mintWarrantyNFT",
      "outputs": [],
      "stateMutability": "nonpayable",
      "type": "function"
    },
    {
      "inputs": [],
      "name": "name",
      "outputs": [
        {
          "internalType": "string",
          "name": "",
          "type": "string"
        }
      ],
      "stateMutability": "view",
      "type": "function"
    },
    {
      "inputs": [
        {
          "internalType": "uint256",
          "name": "tokenId",
          "type": "uint256"
        }
      ],
      "name": "ownerOf",
      "outputs": [
        {
          "internalType": "address",
          "name": "",
          "type": "address"
        }
      ],
      "stateMutability": "view",
      "type": "function"
    },
    {
      "inputs": [
        {
          "internalType": "uint256",
          "name": "orderId",
          "type": "uint256"
        }
      ],
      "name": "placeOrder",
      "outputs": [],
      "stateMutability": "nonpayable",
      "type": "function"
    },
    {
      "inputs": [
        {
          "internalType": "address",
          "name": "from",
          "type": "address"
        },
        {
          "internalType": "address",
          "name": "to",
          "type": "address"
        },
        {
          "internalType": "uint256",
          "name": "tokenId",
          "type": "uint256"
        }
      ],
      "name": "safeTransferFrom",
      "outputs": [],
      "stateMutability": "nonpayable",
      "type": "function"
    },
    {
      "inputs": [
        {
          "internalType": "address",
          "name": "from",
          "type": "address"
        },
        {
          "internalType": "address",
          "name": "to",
          "type": "address"
        },
        {
          "internalType": "uint256",
          "name": "tokenId",
          "type": "uint256"
        },
        {
          "internalType": "bytes",
          "name": "data",
          "type": "bytes"
        }
      ],
      "name": "safeTransferFrom",
      "outputs": [],
      "stateMutability": "nonpayable",
      "type": "function"
    },
    {
      "inputs": [
        {
          "internalType": "address",
          "name": "operator",
          "type": "address"
        },
        {
          "internalType": "bool",
          "name": "approved",
          "type": "bool"
        }
      ],
      "name": "setApprovalForAll",
      "outputs": [],
      "stateMutability": "nonpayable",
      "type": "function"
    },
    {
      "inputs": [
        {
          "internalType": "bytes4",
          "name": "interfaceId",
          "type": "bytes4"
        }
      ],
      "name": "supportsInterface",
      "outputs": [
        {
          "internalType": "bool",
          "name": "",
          "type": "bool"
        }
      ],
      "stateMutability": "view",
      "type": "function"
    },
    {
      "inputs": [],
      "name": "symbol",
      "outputs": [
        {
          "internalType": "string",
          "name": "",
          "type": "string"
        }
      ],
      "stateMutability": "view",
      "type": "function"
    },
    {
      "inputs": [
        {
          "internalType": "uint256",
          "name": "tokenId",
          "type": "uint256"
        }
      ],
      "name": "tokenURI",
      "outputs": [
        {
          "internalType": "string",
          "name": "",
          "type": "string"
        }
      ],
      "stateMutability": "view",
      "type": "function"
    },
    {
      "inputs": [
        {
          "internalType": "address",
          "name": "from",
          "type": "address"
        },
        {
          "internalType": "address",
          "name": "to",
          "type": "address"
        },
        {
          "internalType": "uint256",
          "name": "tokenId",
          "type": "uint256"
        }
      ],
      "name": "transferFrom",
      "outputs": [],
      "stateMutability": "nonpayable",
      "type": "function"
    }
  ],
  "bytecode": "0x60a06040523480156200001157600080fd5b50604051620034e4380380620034e483398181016040528101906200003791906200035f565b8181816000908051906020019062000051929190620000ad565b5080600190805190602001906200006a929190620000ad565b5050508273ffffffffffffffffffffffffffffffffffffffff1660808173ffffffffffffffffffffffffffffffffffffffff1660601b815250505050506200045e565b828054620000bb9062000428565b90600052602060002090601f016020900481019282620000df57600085556200012b565b82601f10620000fa57805160ff19168380011785556200012b565b828001600101855582156200012b579182015b828111156200012a5782518255916020019190600101906200010d565b5b5090506200013a91906200013e565b5090565b5b80821115620001595760008160009055506001016200013f565b5090565b6000604051905090565b600080fd5b600080fd5b600073ffffffffffffffffffffffffffffffffffffffff82169050919050565b60006200019e8262000171565b9050919050565b620001b08162000191565b8114620001bc57600080fd5b50565b600081519050620001d081620001a5565b92915050565b600080fd5b600080fd5b6000601f19601f8301169050919050565b7f4e487b7100000000000000000000000000000000000000000000000000000000600052604160045260246000fd5b6200022b82620001e0565b810181811067ffffffffffffffff821117156200024d576200024c620001f1565b5b80604052505050565b6000620002626200015d565b905062000270828262000220565b919050565b600067ffffffffffffffff821115620002935762000292620001f1565b5b6200029e82620001e0565b9050602081019050919050565b60005b83811015620002cb578082015181840152602081019050620002ae565b83811115620002db576000848401525b50505050565b6000620002f8620002f28462000275565b62000256565b905082815260208101848484011115620003175762000316620001db565b5b62000324848285620002ab565b509392505050565b600082601f830112620003445762000343620001d6565b5b815162000356848260208601620002e1565b91505092915050565b6000806000606084860312156200037b576200037a62000167565b5b60006200038b86828701620001bf565b935050602084015167ffffffffffffffff811115620003af57620003ae6200016c565b5b620003bd868287016200032c565b925050604084015167ffffffffffffffff811115620003e157620003e06200016c565b5b620003ef868287016200032c565b9150509250925092565b7f4e487b7100000000000000000000000000000000000000000000000000000000600052602260045260246000fd5b600060028204905060018216806200044157607f821691505b60208210811415620004585762000457620003f9565b5b50919050565b60805160601c61306a6200047a6000396000505061306a6000f3fe608060405234801561001057600080fd5b506004361061010b5760003560e01c806370a08231116100a2578063ba2255f411610071578063ba2255f4146102cd578063c4d73c9d146102e9578063c87b56dd14610305578063e985e9c514610335578063fff70e11146103655761010b565b806370a082311461024757806395d89b4114610277578063a22cb46514610295578063b88d4fde146102b15761010b565b806323b872dd116100de57806323b872dd146101aa57806342842e0e146101c65780635e1f6edc146101e25780636352211e146102175761010b565b806301ffc9a71461011057806306fdde0314610140578063081812fc1461015e578063095ea7b31461018e575b600080fd5b61012a60048036038101906101259190611f0e565b610383565b6040516101379190611f56565b60405180910390f35b610148610465565b604051610155919061200a565b60405180910390f35b61017860048036038101906101739190612062565b6104f7565b60405161018591906120d0565b60405180910390f35b6101a860048036038101906101a39190612117565b61053d565b005b6101c460048036038101906101bf9190612157565b610655565b005b6101e060048036038101906101db9190612157565b6106b5565b005b6101fc60048036038101906101f79190612062565b6106d5565b60405161020e969594939291906121b9565b60405180910390f35b610231600480360381019061022c9190612062565b61082e565b60405161023e91906120d0565b60405180910390f35b610261600480360381019061025c9190612228565b6108e0565b60405161026e9190612255565b60405180910390f35b61027f610998565b60405161028c919061200a565b60405180910390f35b6102af60048036038101906102aa919061229c565b610a2a565b005b6102cb60048036038101906102c69190612411565b610a40565b005b6102e760048036038101906102e29190612062565b610aa2565b005b61030360048036038101906102fe9190612535565b610bdf565b005b61031f600480360381019061031a9190612062565b610f23565b60405161032c919061200a565b60405180910390f35b61034f600480360381019061034a91906125e8565b6110e1565b60405161035c9190611f56565b60405180910390f35b61036d611175565b60405161037a9190612734565b60405180910390f35b60007f80ac58cd000000000000000000000000000000000000000000000000000000007bffffffffffffffffffffffffffffffffffffffffffffffffffffffff1916827bffffffffffffffffffffffffffffffffffffffffffffffffffffffff1916148061044e57507f5b5e139f000000000000000000000000000000000000000000000000000000007bffffffffffffffffffffffffffffffffffffffffffffffffffffffff1916827bffffffffffffffffffffffffffffffffffffffffffffffffffffffff1916145b8061045e575061045d826112c3565b5b9050919050565b60606000805461047490612785565b80601f01602080910402602001604051908101604052809291908181526020018280546104a090612785565b80156104ed5780601f106104c2576101008083540402835291602001916104ed565b820191906000526020600020905b8154815290600101906020018083116104d057829003601f168201915b5050505050905090565b60006105028261132d565b6004600083815260200190815260200160002060009054906101000a900473ffffffffffffffffffffffffffffffffffffffff169050919050565b60006105488261082e565b90508073ffffffffffffffffffffffffffffffffffffffff168373ffffffffffffffffffffffffffffffffffffffff1614156105b9576040517f08c379a00000000000000000000000000000000000000000000000000000000081526004016105b090612829565b60405180910390fd5b8073ffffffffffffffffffffffffffffffffffffffff166105d8611378565b73ffffffffffffffffffffffffffffffffffffffff161480610607575061060681610601611378565b6110e1565b5b610646576040517f08c379a000000000000000000000000000000000000000000000000000000000815260040161063d906128bb565b60405180910390fd5b6106508383611380565b505050565b610666610660611378565b82611439565b6106a5576040517f08c379a000000000000000000000000000000000000000000000000000000000815260040161069c9061294d565b60405180910390fd5b6106b08383836114ce565b505050565b6106d083838360405180602001604052806000815250610a40565b505050565b600860205280600052604060002060009150905080600001549080600101549080600201805461070490612785565b80601f016020809104026020016040519081016040528092919081815260200182805461073090612785565b801561077d5780601f106107525761010080835404028352916020019161077d565b820191906000526020600020905b81548152906001019060200180831161076057829003601f168201915b50505050509080600301805461079290612785565b80601f01602080910402602001604051908101604052809291908181526020018280546107be90612785565b801561080b5780601f106107e05761010080835404028352916020019161080b565b820191906000526020600020905b8154815290600101906020018083116107ee57829003601f168201915b5050505050908060040154908060050160009054906101000a900460ff16905086565b6000806002600084815260200190815260200160002060009054906101000a900473ffffffffffffffffffffffffffffffffffffffff169050600073ffffffffffffffffffffffffffffffffffffffff168173ffffffffffffffffffffffffffffffffffffffff1614156108d7576040517f08c379a00000000000000000000000000000000000000000000000000000000081526004016108ce906129b9565b60405180910390fd5b80915050919050565b60008073ffffffffffffffffffffffffffffffffffffffff168273ffffffffffffffffffffffffffffffffffffffff161415610951576040517f08c379a000000000000000000000000000000000000000000000000000000000815260040161094890612a4b565b60405180910390fd5b600360008373ffffffffffffffffffffffffffffffffffffffff1673ffffffffffffffffffffffffffffffffffffffff168152602001908152602001600020549050919050565b6060600180546109a790612785565b80601f01602080910402602001604051908101604052809291908181526020018280546109d390612785565b8015610a205780601f106109f557610100808354040283529160200191610a20565b820191906000526020600020905b815481529060010190602001808311610a0357829003601f168201915b5050505050905090565b610a3c610a35611378565b8383611735565b5050565b610a51610a4b611378565b83611439565b610a90576040517f08c379a0000000000000000000000000000000000000000000000000000000008152600401610a879061294d565b60405180910390fd5b610a9c848484846118a2565b50505050565b6000610b3b600760003373ffffffffffffffffffffffffffffffffffffffff1673ffffffffffffffffffffffffffffffffffffffff168152602001908152602001600020805480602002602001604051908101604052809291908181526020018280548015610b3057602002820191906000526020600020905b815481526020019060010190808311610b1c575b5050505050836118fe565b90508015610b75576040517fa3dc114a00000000000000000000000000000000000000000000000000000000815260040160405180910390fd5b600760003373ffffffffffffffffffffffffffffffffffffffff1673ffffffffffffffffffffffffffffffffffffffff1681526020019081526020016000208290806001815401808255809150506001900390600052602060002001600090919091909150555050565b6000600760003373ffffffffffffffffffffffffffffffffffffffff1673ffffffffffffffffffffffffffffffffffffffff1681526020019081526020016000208054905011610c64576040517f08c379a0000000000000000000000000000000000000000000000000000000008152600401610c5b90612add565b60405180910390fd5b6000610cfd600760008873ffffffffffffffffffffffffffffffffffffffff1673ffffffffffffffffffffffffffffffffffffffff168152602001908152602001600020805480602002602001604051908101604052809291908181526020018280548015610cf257602002820191906000526020600020905b815481526020019060010190808311610cde575b5050505050866118fe565b905080610d36576040517f4ec6212e00000000000000000000000000000000000000000000000000000000815260040160405180910390fd5b6000600a60008781526020019081526020016000205414610d83576040517f3263593f00000000000000000000000000000000000000000000000000000000815260040160405180910390fd5b610d8d6006611958565b6000610d99600661196e565b9050610da5878261197c565b6040518060c00160405280828152602001848152602001868152602001858152602001428152602001600015158152506008600083815260200190815260200160002060008201518160000155602082015181600101556040820151816002019080519060200190610e18929190611dff565b506060820151816003019080519060200190610e35929190611dff565b506080820151816004015560a08201518160050160006101000a81548160ff02191690831515021790555090505080600a600088815260200190815260200160002081905550600960008873ffffffffffffffffffffffffffffffffffffffff1673ffffffffffffffffffffffffffffffffffffffff1681526020019081526020016000208190806001815401808255809150506001900390600052602060002001600090919091909150557f0176f203df400d7bd5f1b1c9ef36c16709bf3b5d9fd35f000a6bae32393f66c38188604051610f12929190612afd565b60405180910390a150505050505050565b60606000600860008481526020019081526020016000206040518060c00160405290816000820154815260200160018201548152602001600282018054610f6990612785565b80601f0160208091040260200160405190810160405280929190818152602001828054610f9590612785565b8015610fe25780601f10610fb757610100808354040283529160200191610fe2565b820191906000526020600020905b815481529060010190602001808311610fc557829003601f168201915b50505050508152602001600382018054610ffb90612785565b80601f016020809104026020016040519081016040528092919081815260200182805461102790612785565b80156110745780601f1061104957610100808354040283529160200191611074565b820191906000526020600020905b81548152906001019060200180831161105757829003601f168201915b50505050508152602001600482015481526020016005820160009054906101000a900460ff1615151515815250509050600081602001518260800151426110bb9190612b55565b11905080156110d2578160600151925050506110dc565b8160400151925050505b919050565b6000600560008473ffffffffffffffffffffffffffffffffffffffff1673ffffffffffffffffffffffffffffffffffffffff16815260200190815260200160002060008373ffffffffffffffffffffffffffffffffffffffff1673ffffffffffffffffffffffffffffffffffffffff16815260200190815260200160002060009054906101000a900460ff16905092915050565b60606000600960003373ffffffffffffffffffffffffffffffffffffffff1673ffffffffffffffffffffffffffffffffffffffff16815260200190815260200160002080548060200260200160405190810160405280929190818152602001828054801561120257602002820191906000526020600020905b8154815260200190600101908083116111ee575b505050505090506000815167ffffffffffffffff811115611226576112256122e6565b5b60405190808252806020026020018201604052801561125957816020015b60608152602001906001900390816112445790505b50905060005b82518110156112ba5761128b83828151811061127e5761127d612b89565b5b6020026020010151610f23565b82828151811061129e5761129d612b89565b5b6020026020010181905250806112b390612bb8565b905061125f565b50809250505090565b60007f01ffc9a7000000000000000000000000000000000000000000000000000000007bffffffffffffffffffffffffffffffffffffffffffffffffffffffff1916827bffffffffffffffffffffffffffffffffffffffffffffffffffffffff1916149050919050565b6113368161199a565b611375576040517f08c379a000000000000000000000000000000000000000000000000000000000815260040161136c906129b9565b60405180910390fd5b50565b600033905090565b816004600083815260200190815260200160002060006101000a81548173ffffffffffffffffffffffffffffffffffffffff021916908373ffffffffffffffffffffffffffffffffffffffff160217905550808273ffffffffffffffffffffffffffffffffffffffff166113f38361082e565b73ffffffffffffffffffffffffffffffffffffffff167f8c5be1e5ebec7d5bd14f71427d1e84f3dd0314c0f7b2291e5b200ac8c7c3b92560405160405180910390a45050565b6000806114458361082e565b90508073ffffffffffffffffffffffffffffffffffffffff168473ffffffffffffffffffffffffffffffffffffffff161480611487575061148681856110e1565b5b806114c557508373ffffffffffffffffffffffffffffffffffffffff166114ad846104f7565b73ffffffffffffffffffffffffffffffffffffffff16145b91505092915050565b8273ffffffffffffffffffffffffffffffffffffffff166114ee8261082e565b73ffffffffffffffffffffffffffffffffffffffff1614611544576040517f08c379a000000000000000000000000000000000000000000000000000000000815260040161153b90612c73565b60405180910390fd5b600073ffffffffffffffffffffffffffffffffffffffff168273ffffffffffffffffffffffffffffffffffffffff1614156115b4576040517f08c379a00000000000000000000000000000000000000000000000000000000081526004016115ab90612d05565b60405180910390fd5b6115bf838383611a06565b6115ca600082611380565b6001600360008573ffffffffffffffffffffffffffffffffffffffff1673ffffffffffffffffffffffffffffffffffffffff168152602001908152602001600020600082825461161a9190612b55565b925050819055506001600360008473ffffffffffffffffffffffffffffffffffffffff1673ffffffffffffffffffffffffffffffffffffffff16815260200190815260200160002060008282546116719190612d25565b92505081905550816002600083815260200190815260200160002060006101000a81548173ffffffffffffffffffffffffffffffffffffffff021916908373ffffffffffffffffffffffffffffffffffffffff160217905550808273ffffffffffffffffffffffffffffffffffffffff168473ffffffffffffffffffffffffffffffffffffffff167fddf252ad1be2c89b69c2b068fc378daa952ba7f163c4a11628f55a4df523b3ef60405160405180910390a4611730838383611a0b565b505050565b8173ffffffffffffffffffffffffffffffffffffffff168373ffffffffffffffffffffffffffffffffffffffff1614156117a4576040517f08c379a000000000000000000000000000000000000000000000000000000000815260040161179b90612dc7565b60405180910390fd5b80600560008573ffffffffffffffffffffffffffffffffffffffff1673ffffffffffffffffffffffffffffffffffffffff16815260200190815260200160002060008473ffffffffffffffffffffffffffffffffffffffff1673ffffffffffffffffffffffffffffffffffffffff16815260200190815260200160002060006101000a81548160ff0219169083151502179055508173ffffffffffffffffffffffffffffffffffffffff168373ffffffffffffffffffffffffffffffffffffffff167f17307eab39ab6107e8899845ad3d59bd9653f200f220920489ca2b5937696c31836040516118959190611f56565b60405180910390a3505050565b6118ad8484846114ce565b6118b984848484611a10565b6118f8576040517f08c379a00000000000000000000000000000000000000000000000000000000081526004016118ef90612e59565b60405180910390fd5b50505050565b600080600090505b835181101561194c578284828151811061192357611922612b89565b5b6020026020010151141561193b576001915050611952565b8061194590612bb8565b9050611906565b50600090505b92915050565b6001816000016000828254019250508190555050565b600081600001549050919050565b611996828260405180602001604052806000815250611ba7565b5050565b60008073ffffffffffffffffffffffffffffffffffffffff166002600084815260200190815260200160002060009054906101000a900473ffffffffffffffffffffffffffffffffffffffff1673ffffffffffffffffffffffffffffffffffffffff1614159050919050565b505050565b505050565b6000611a318473ffffffffffffffffffffffffffffffffffffffff16611c02565b15611b9a578373ffffffffffffffffffffffffffffffffffffffff1663150b7a02611a5a611378565b8786866040518563ffffffff1660e01b8152600401611a7c9493929190612ece565b602060405180830381600087803b158015611a9657600080fd5b505af1925050508015611ac757506040513d601f19601f82011682018060405250810190611ac49190612f2f565b60015b611b4a573d8060008114611af7576040519150601f19603f3d011682016040523d82523d6000602084013e611afc565b606091505b50600081511415611b42576040517f08c379a0000000000000000000000000000000000000000000000000000000008152600401611b3990612e59565b60405180910390fd5b805181602001fd5b63150b7a0260e01b7bffffffffffffffffffffffffffffffffffffffffffffffffffffffff1916817bffffffffffffffffffffffffffffffffffffffffffffffffffffffff191614915050611b9f565b600190505b949350505050565b611bb18383611c25565b611bbe6000848484611a10565b611bfd576040517f08c379a0000000000000000000000000000000000000000000000000000000008152600401611bf490612e59565b60405180910390fd5b505050565b6000808273ffffffffffffffffffffffffffffffffffffffff163b119050919050565b600073ffffffffffffffffffffffffffffffffffffffff168273ffffffffffffffffffffffffffffffffffffffff161415611c95576040517f08c379a0000000000000000000000000000000000000000000000000000000008152600401611c8c90612fa8565b60405180910390fd5b611c9e8161199a565b15611cde576040517f08c379a0000000000000000000000000000000000000000000000000000000008152600401611cd590613014565b60405180910390fd5b611cea60008383611a06565b6001600360008473ffffffffffffffffffffffffffffffffffffffff1673ffffffffffffffffffffffffffffffffffffffff1681526020019081526020016000206000828254611d3a9190612d25565b92505081905550816002600083815260200190815260200160002060006101000a81548173ffffffffffffffffffffffffffffffffffffffff021916908373ffffffffffffffffffffffffffffffffffffffff160217905550808273ffffffffffffffffffffffffffffffffffffffff16600073ffffffffffffffffffffffffffffffffffffffff167fddf252ad1be2c89b69c2b068fc378daa952ba7f163c4a11628f55a4df523b3ef60405160405180910390a4611dfb60008383611a0b565b5050565b828054611e0b90612785565b90600052602060002090601f016020900481019282611e2d5760008555611e74565b82601f10611e4657805160ff1916838001178555611e74565b82800160010185558215611e74579182015b82811115611e73578251825591602001919060010190611e58565b5b509050611e819190611e85565b5090565b5b80821115611e9e576000816000905550600101611e86565b5090565b6000604051905090565b600080fd5b600080fd5b60007fffffffff0000000000000000000000000000000000000000000000000000000082169050919050565b611eeb81611eb6565b8114611ef657600080fd5b50565b600081359050611f0881611ee2565b92915050565b600060208284031215611f2457611f23611eac565b5b6000611f3284828501611ef9565b91505092915050565b60008115159050919050565b611f5081611f3b565b82525050565b6000602082019050611f6b6000830184611f47565b92915050565b600081519050919050565b600082825260208201905092915050565b60005b83811015611fab578082015181840152602081019050611f90565b83811115611fba576000848401525b50505050565b6000601f19601f8301169050919050565b6000611fdc82611f71565b611fe68185611f7c565b9350611ff6818560208601611f8d565b611fff81611fc0565b840191505092915050565b600060208201905081810360008301526120248184611fd1565b905092915050565b6000819050919050565b61203f8161202c565b811461204a57600080fd5b50565b60008135905061205c81612036565b92915050565b60006020828403121561207857612077611eac565b5b60006120868482850161204d565b91505092915050565b600073ffffffffffffffffffffffffffffffffffffffff82169050919050565b60006120ba8261208f565b9050919050565b6120ca816120af565b82525050565b60006020820190506120e560008301846120c1565b92915050565b6120f4816120af565b81146120ff57600080fd5b50565b600081359050612111816120eb565b92915050565b6000806040838503121561212e5761212d611eac565b5b600061213c85828601612102565b925050602061214d8582860161204d565b9150509250929050565b6000806000606084860312156121705761216f611eac565b5b600061217e86828701612102565b935050602061218f86828701612102565b92505060406121a08682870161204d565b9150509250925092565b6121b38161202c565b82525050565b600060c0820190506121ce60008301896121aa565b6121db60208301886121aa565b81810360408301526121ed8187611fd1565b905081810360608301526122018186611fd1565b905061221060808301856121aa565b61221d60a0830184611f47565b979650505050505050565b60006020828403121561223e5761223d611eac565b5b600061224c84828501612102565b91505092915050565b600060208201905061226a60008301846121aa565b92915050565b61227981611f3b565b811461228457600080fd5b50565b60008135905061229681612270565b92915050565b600080604083850312156122b3576122b2611eac565b5b60006122c185828601612102565b92505060206122d285828601612287565b9150509250929050565b600080fd5b600080fd5b7f4e487b7100000000000000000000000000000000000000000000000000000000600052604160045260246000fd5b61231e82611fc0565b810181811067ffffffffffffffff8211171561233d5761233c6122e6565b5b80604052505050565b6000612350611ea2565b905061235c8282612315565b919050565b600067ffffffffffffffff82111561237c5761237b6122e6565b5b61238582611fc0565b9050602081019050919050565b82818337600083830152505050565b60006123b46123af84612361565b612346565b9050828152602081018484840111156123d0576123cf6122e1565b5b6123db848285612392565b509392505050565b600082601f8301126123f8576123f76122dc565b5b81356124088482602086016123a1565b91505092915050565b6000806000806080858703121561242b5761242a611eac565b5b600061243987828801612102565b945050602061244a87828801612102565b935050604061245b8782880161204d565b925050606085013567ffffffffffffffff81111561247c5761247b611eb1565b5b612488878288016123e3565b91505092959194509250565b600067ffffffffffffffff8211156124af576124ae6122e6565b5b6124b882611fc0565b9050602081019050919050565b60006124d86124d384612494565b612346565b9050828152602081018484840111156124f4576124f36122e1565b5b6124ff848285612392565b509392505050565b600082601f83011261251c5761251b6122dc565b5b813561252c8482602086016124c5565b91505092915050565b600080600080600060a0868803121561255157612550611eac565b5b600061255f88828901612102565b95505060206125708882890161204d565b945050604086013567ffffffffffffffff81111561259157612590611eb1565b5b61259d88828901612507565b935050606086013567ffffffffffffffff8111156125be576125bd611eb1565b5b6125ca88828901612507565b92505060806125db8882890161204d565b9150509295509295909350565b600080604083850312156125ff576125fe611eac565b5b600061260d85828601612102565b925050602061261e85828601612102565b9150509250929050565b600081519050919050565b600082825260208201905092915050565b6000819050602082019050919050565b600082825260208201905092915050565b600061267082611f71565b61267a8185612654565b935061268a818560208601611f8d565b61269381611fc0565b840191505092915050565b60006126aa8383612665565b905092915050565b6000602082019050919050565b60006126ca82612628565b6126d48185612633565b9350836020820285016126e685612644565b8060005b858110156127225784840389528151612703858261269e565b945061270e836126b2565b925060208a019950506001810190506126ea565b50829750879550505050505092915050565b6000602082019050818103600083015261274e81846126bf565b905092915050565b7f4e487b7100000000000000000000000000000000000000000000000000000000600052602260045260246000fd5b6000600282049050600182168061279d57607f821691505b602082108114156127b1576127b0612756565b5b50919050565b7f4552433732313a20617070726f76616c20746f2063757272656e74206f776e6560008201527f7200000000000000000000000000000000000000000000000000000000000000602082015250565b6000612813602183611f7c565b915061281e826127b7565b604082019050919050565b6000602082019050818103600083015261284281612806565b9050919050565b7f4552433732313a20617070726f76652063616c6c6572206973206e6f7420746f60008201527f6b656e206f776e6572206e6f7220617070726f76656420666f7220616c6c0000602082015250565b60006128a5603e83611f7c565b91506128b082612849565b604082019050919050565b600060208201905081810360008301526128d481612898565b9050919050565b7f4552433732313a2063616c6c6572206973206e6f7420746f6b656e206f776e6560008201527f72206e6f7220617070726f766564000000000000000000000000000000000000602082015250565b6000612937602e83611f7c565b9150612942826128db565b604082019050919050565b600060208201905081810360008301526129668161292a565b9050919050565b7f4552433732313a20696e76616c696420746f6b656e2049440000000000000000600082015250565b60006129a3601883611f7c565b91506129ae8261296d565b602082019050919050565b600060208201905081810360008301526129d281612996565b9050919050565b7f4552433732313a2061646472657373207a65726f206973206e6f74206120766160008201527f6c6964206f776e65720000000000000000000000000000000000000000000000602082015250565b6000612a35602983611f7c565b9150612a40826129d9565b604082019050919050565b60006020820190508181036000830152612a6481612a28565b9050919050565b7f4e6f7420416c6c6f7765642c20596f7520617265206e6f7420637573746f6d6560008201527f7200000000000000000000000000000000000000000000000000000000000000602082015250565b6000612ac7602183611f7c565b9150612ad282612a6b565b604082019050919050565b60006020820190508181036000830152612af681612aba565b9050919050565b6000604082019050612b1260008301856121aa565b612b1f60208301846120c1565b9392505050565b7f4e487b7100000000000000000000000000000000000000000000000000000000600052601160045260246000fd5b6000612b608261202c565b9150612b6b8361202c565b925082821015612b7e57612b7d612b26565b5b828203905092915050565b7f4e487b7100000000000000000000000000000000000000000000000000000000600052603260045260246000fd5b6000612bc38261202c565b91507fffffffffffffffffffffffffffffffffffffffffffffffffffffffffffffffff821415612bf657612bf5612b26565b5b600182019050919050565b7f4552433732313a207472616e736665722066726f6d20696e636f72726563742060008201527f6f776e6572000000000000000000000000000000000000000000000000000000602082015250565b6000612c5d602583611f7c565b9150612c6882612c01565b604082019050919050565b60006020820190508181036000830152612c8c81612c50565b9050919050565b7f4552433732313a207472616e7366657220746f20746865207a65726f2061646460008201527f7265737300000000000000000000000000000000000000000000000000000000602082015250565b6000612cef602483611f7c565b9150612cfa82612c93565b604082019050919050565b60006020820190508181036000830152612d1e81612ce2565b9050919050565b6000612d308261202c565b9150612d3b8361202c565b9250827fffffffffffffffffffffffffffffffffffffffffffffffffffffffffffffffff03821115612d7057612d6f612b26565b5b828201905092915050565b7f4552433732313a20617070726f766520746f2063616c6c657200000000000000600082015250565b6000612db1601983611f7c565b9150612dbc82612d7b565b602082019050919050565b60006020820190508181036000830152612de081612da4565b9050919050565b7f4552433732313a207472616e7366657220746f206e6f6e20455243373231526560008201527f63656976657220696d706c656d656e7465720000000000000000000000000000602082015250565b6000612e43603283611f7c565b9150612e4e82612de7565b604082019050919050565b60006020820190508181036000830152612e7281612e36565b9050919050565b600081519050919050565b600082825260208201905092915050565b6000612ea082612e79565b612eaa8185612e84565b9350612eba818560208601611f8d565b612ec381611fc0565b840191505092915050565b6000608082019050612ee360008301876120c1565b612ef060208301866120c1565b612efd60408301856121aa565b8181036060830152612f0f8184612e95565b905095945050505050565b600081519050612f2981611ee2565b92915050565b600060208284031215612f4557612f44611eac565b5b6000612f5384828501612f1a565b91505092915050565b7f4552433732313a206d696e7420746f20746865207a65726f2061646472657373600082015250565b6000612f92602083611f7c565b9150612f9d82612f5c565b602082019050919050565b60006020820190508181036000830152612fc181612f85565b9050919050565b7f4552433732313a20746f6b656e20616c7265616479206d696e74656400000000600082015250565b6000612ffe601c83611f7c565b915061300982612fc8565b602082019050919050565b6000602082019050818103600083015261302d81612ff1565b905091905056fea264697066735822122044ef648281d4319e7d1bb0e264c7bfbb19b1bd7be6537dfd80f8277495048e6764736f6c63430008080033",
  "linkReferences": {},
  "deployedLinkReferences": {}
}