{
  "_format": "hh-sol-artifact-1",
  "contractName": "WarrantyNFT",
  "sourceName": "contracts/WarrantyNFT.sol",
  "abi": [
    {
      "inputs": [
        {
          "internalType": "address",
          "name": "sellerId",
          "type": "address"
        },
        {
          "internalType": "string",
          "name": "NFTName",
          "type": "string"
        },
        {
          "internalType": "string",
          "name": "NFTSymbol",
          "type": "string"
        }
      ],
      "stateMutability": "nonpayable",
      "type": "constructor"
    },
    {
      "inputs": [],
      "name": "WarrantyNFT__AlreadyIssuedNFT",
      "type": "error"
    },
    {
      "inputs": [],
      "name": "WarrantyNFT__alreadyExists",
      "type": "error"
    },
    {
      "inputs": [],
      "name": "WarrantyNFT__orderNotFound",
      "type": "error"
    },
    {
      "anonymous": false,
      "inputs": [
        {
          "indexed": true,
          "internalType": "address",
          "name": "owner",
          "type": "address"
        },
        {
          "indexed": true,
          "internalType": "address",
          "name": "approved",
          "type": "address"
        },
        {
          "indexed": true,
          "internalType": "uint256",
          "name": "tokenId",
          "type": "uint256"
        }
      ],
      "name": "Approval",
      "type": "event"
    },
    {
      "anonymous": false,
      "inputs": [
        {
          "indexed": true,
          "internalType": "address",
          "name": "owner",
          "type": "address"
        },
        {
          "indexed": true,
          "internalType": "address",
          "name": "operator",
          "type": "address"
        },
        {
          "indexed": false,
          "internalType": "bool",
          "name": "approved",
          "type": "bool"
        }
      ],
      "name": "ApprovalForAll",
      "type": "event"
    },
    {
      "anonymous": false,
      "inputs": [
        {
          "indexed": false,
          "internalType": "uint256",
          "name": "tokenId",
          "type": "uint256"
        },
        {
          "indexed": false,
          "internalType": "address",
          "name": "owner",
          "type": "address"
        }
      ],
      "name": "NFTMinted",
      "type": "event"
    },
    {
      "anonymous": false,
      "inputs": [
        {
          "indexed": true,
          "internalType": "address",
          "name": "from",
          "type": "address"
        },
        {
          "indexed": true,
          "internalType": "address",
          "name": "to",
          "type": "address"
        },
        {
          "indexed": true,
          "internalType": "uint256",
          "name": "tokenId",
          "type": "uint256"
        }
      ],
      "name": "Transfer",
      "type": "event"
    },
    {
      "inputs": [
        {
          "internalType": "uint256",
          "name": "",
          "type": "uint256"
        }
      ],
      "name": "NftTokenToData",
      "outputs": [
        {
          "internalType": "uint256",
          "name": "tokenId",
          "type": "uint256"
        },
        {
          "internalType": "uint256",
          "name": "expiry",
          "type": "uint256"
        },
        {
          "internalType": "string",
          "name": "tokenURI",
          "type": "string"
        },
        {
          "internalType": "string",
          "name": "expireTokenURI",
          "type": "string"
        },
        {
          "internalType": "uint256",
          "name": "timeStamp",
          "type": "uint256"
        },
        {
          "internalType": "bool",
          "name": "expired",
          "type": "bool"
        }
      ],
      "stateMutability": "view",
      "type": "function"
    },
    {
      "inputs": [
        {
          "internalType": "address",
          "name": "to",
          "type": "address"
        },
        {
          "internalType": "uint256",
          "name": "tokenId",
          "type": "uint256"
        }
      ],
      "name": "approve",
      "outputs": [],
      "stateMutability": "nonpayable",
      "type": "function"
    },
    {
      "inputs": [
        {
          "internalType": "address",
          "name": "owner",
          "type": "address"
        }
      ],
      "name": "balanceOf",
      "outputs": [
        {
          "internalType": "uint256",
          "name": "",
          "type": "uint256"
        }
      ],
      "stateMutability": "view",
      "type": "function"
    },
    {
      "inputs": [
        {
          "internalType": "uint256",
          "name": "tokenId",
          "type": "uint256"
        }
      ],
      "name": "getApproved",
      "outputs": [
        {
          "internalType": "address",
          "name": "",
          "type": "address"
        }
      ],
      "stateMutability": "view",
      "type": "function"
    },
    {
      "inputs": [],
      "name": "getCustomerOrders",
      "outputs": [
        {
          "internalType": "uint256[]",
          "name": "",
          "type": "uint256[]"
        }
      ],
      "stateMutability": "view",
      "type": "function"
    },
    {
      "inputs": [],
      "name": "getCustomersTokens",
      "outputs": [
        {
          "internalType": "string[]",
          "name": "",
          "type": "string[]"
        }
      ],
      "stateMutability": "view",
      "type": "function"
    },
    {
      "inputs": [
        {
          "internalType": "uint256",
          "name": "orderId",
          "type": "uint256"
        }
      ],
      "name": "getTokenDetailsFromOrderId",
      "outputs": [
        {
          "internalType": "uint256",
          "name": "",
          "type": "uint256"
        }
      ],
      "stateMutability": "view",
      "type": "function"
    },
    {
      "inputs": [
        {
          "internalType": "address",
          "name": "owner",
          "type": "address"
        },
        {
          "internalType": "address",
          "name": "operator",
          "type": "address"
        }
      ],
      "name": "isApprovedForAll",
      "outputs": [
        {
          "internalType": "bool",
          "name": "",
          "type": "bool"
        }
      ],
      "stateMutability": "view",
      "type": "function"
    },
    {
      "inputs": [
        {
          "internalType": "uint256",
          "name": "orderId",
          "type": "uint256"
        },
        {
          "internalType": "string",
          "name": "activeTokenURI",
          "type": "string"
        },
        {
          "internalType": "string",
          "name": "expireTokenURI",
          "type": "string"
        },
        {
          "internalType": "uint256",
          "name": "expiry",
          "type": "uint256"
        }
      ],
      "name": "mintWarrantyNFT",
      "outputs": [],
      "stateMutability": "nonpayable",
      "type": "function"
    },
    {
      "inputs": [],
      "name": "name",
      "outputs": [
        {
          "internalType": "string",
          "name": "",
          "type": "string"
        }
      ],
      "stateMutability": "view",
      "type": "function"
    },
    {
      "inputs": [
        {
          "internalType": "uint256",
          "name": "tokenId",
          "type": "uint256"
        }
      ],
      "name": "ownerOf",
      "outputs": [
        {
          "internalType": "address",
          "name": "",
          "type": "address"
        }
      ],
      "stateMutability": "view",
      "type": "function"
    },
    {
      "inputs": [
        {
          "internalType": "address",
          "name": "customerAddress",
          "type": "address"
        },
        {
          "internalType": "uint256",
          "name": "orderId",
          "type": "uint256"
        }
      ],
      "name": "placeOrder",
      "outputs": [],
      "stateMutability": "nonpayable",
      "type": "function"
    },
    {
      "inputs": [
        {
          "internalType": "address",
          "name": "from",
          "type": "address"
        },
        {
          "internalType": "address",
          "name": "to",
          "type": "address"
        },
        {
          "internalType": "uint256",
          "name": "tokenId",
          "type": "uint256"
        }
      ],
      "name": "safeTransferFrom",
      "outputs": [],
      "stateMutability": "nonpayable",
      "type": "function"
    },
    {
      "inputs": [
        {
          "internalType": "address",
          "name": "from",
          "type": "address"
        },
        {
          "internalType": "address",
          "name": "to",
          "type": "address"
        },
        {
          "internalType": "uint256",
          "name": "tokenId",
          "type": "uint256"
        },
        {
          "internalType": "bytes",
          "name": "data",
          "type": "bytes"
        }
      ],
      "name": "safeTransferFrom",
      "outputs": [],
      "stateMutability": "nonpayable",
      "type": "function"
    },
    {
      "inputs": [
        {
          "internalType": "address",
          "name": "operator",
          "type": "address"
        },
        {
          "internalType": "bool",
          "name": "approved",
          "type": "bool"
        }
      ],
      "name": "setApprovalForAll",
      "outputs": [],
      "stateMutability": "nonpayable",
      "type": "function"
    },
    {
      "inputs": [
        {
          "internalType": "bytes4",
          "name": "interfaceId",
          "type": "bytes4"
        }
      ],
      "name": "supportsInterface",
      "outputs": [
        {
          "internalType": "bool",
          "name": "",
          "type": "bool"
        }
      ],
      "stateMutability": "view",
      "type": "function"
    },
    {
      "inputs": [],
      "name": "symbol",
      "outputs": [
        {
          "internalType": "string",
          "name": "",
          "type": "string"
        }
      ],
      "stateMutability": "view",
      "type": "function"
    },
    {
      "inputs": [
        {
          "internalType": "uint256",
          "name": "tokenId",
          "type": "uint256"
        }
      ],
      "name": "tokenURI",
      "outputs": [
        {
          "internalType": "string",
          "name": "",
          "type": "string"
        }
      ],
      "stateMutability": "view",
      "type": "function"
    },
    {
      "inputs": [
        {
          "internalType": "address",
          "name": "from",
          "type": "address"
        },
        {
          "internalType": "address",
          "name": "to",
          "type": "address"
        },
        {
          "internalType": "uint256",
          "name": "tokenId",
          "type": "uint256"
        }
      ],
      "name": "transferFrom",
      "outputs": [],
      "stateMutability": "nonpayable",
      "type": "function"
    }
  ],
  "bytecode": "0x60a06040523480156200001157600080fd5b50604051620037193803806200371983398181016040528101906200003791906200035f565b8181816000908051906020019062000051929190620000ad565b5080600190805190602001906200006a929190620000ad565b5050508273ffffffffffffffffffffffffffffffffffffffff1660808173ffffffffffffffffffffffffffffffffffffffff1660601b815250505050506200045e565b828054620000bb9062000428565b90600052602060002090601f016020900481019282620000df57600085556200012b565b82601f10620000fa57805160ff19168380011785556200012b565b828001600101855582156200012b579182015b828111156200012a5782518255916020019190600101906200010d565b5b5090506200013a91906200013e565b5090565b5b80821115620001595760008160009055506001016200013f565b5090565b6000604051905090565b600080fd5b600080fd5b600073ffffffffffffffffffffffffffffffffffffffff82169050919050565b60006200019e8262000171565b9050919050565b620001b08162000191565b8114620001bc57600080fd5b50565b600081519050620001d081620001a5565b92915050565b600080fd5b600080fd5b6000601f19601f8301169050919050565b7f4e487b7100000000000000000000000000000000000000000000000000000000600052604160045260246000fd5b6200022b82620001e0565b810181811067ffffffffffffffff821117156200024d576200024c620001f1565b5b80604052505050565b6000620002626200015d565b905062000270828262000220565b919050565b600067ffffffffffffffff821115620002935762000292620001f1565b5b6200029e82620001e0565b9050602081019050919050565b60005b83811015620002cb578082015181840152602081019050620002ae565b83811115620002db576000848401525b50505050565b6000620002f8620002f28462000275565b62000256565b905082815260208101848484011115620003175762000316620001db565b5b62000324848285620002ab565b509392505050565b600082601f830112620003445762000343620001d6565b5b815162000356848260208601620002e1565b91505092915050565b6000806000606084860312156200037b576200037a62000167565b5b60006200038b86828701620001bf565b935050602084015167ffffffffffffffff811115620003af57620003ae6200016c565b5b620003bd868287016200032c565b925050604084015167ffffffffffffffff811115620003e157620003e06200016c565b5b620003ef868287016200032c565b9150509250925092565b7f4e487b7100000000000000000000000000000000000000000000000000000000600052602260045260246000fd5b600060028204905060018216806200044157607f821691505b60208210811415620004585762000457620003f9565b5b50919050565b60805160601c61329f6200047a6000396000505061329f6000f3fe608060405234801561001057600080fd5b50600436106101215760003560e01c806395d89b41116100ad578063b9b255e211610071578063b9b255e21461032f578063c87b56dd1461034d578063e985e9c51461037d578063f385db32146103ad578063fff70e11146103c957610121565b806395d89b411461028d578063a085e05d146102ab578063a22cb465146102db578063b25e2e68146102f7578063b88d4fde1461031357610121565b806323b872dd116100f457806323b872dd146101c057806342842e0e146101dc5780635e1f6edc146101f85780636352211e1461022d57806370a082311461025d57610121565b806301ffc9a71461012657806306fdde0314610156578063081812fc14610174578063095ea7b3146101a4575b600080fd5b610140600480360381019061013b9190612077565b6103e7565b60405161014d91906120bf565b60405180910390f35b61015e6104c9565b60405161016b9190612173565b60405180910390f35b61018e600480360381019061018991906121cb565b61055b565b60405161019b9190612239565b60405180910390f35b6101be60048036038101906101b99190612280565b6105a1565b005b6101da60048036038101906101d591906122c0565b6106b9565b005b6101f660048036038101906101f191906122c0565b610719565b005b610212600480360381019061020d91906121cb565b610739565b60405161022496959493929190612322565b60405180910390f35b610247600480360381019061024291906121cb565b610892565b6040516102549190612239565b60405180910390f35b61027760048036038101906102729190612391565b610944565b60405161028491906123be565b60405180910390f35b6102956109fc565b6040516102a29190612173565b60405180910390f35b6102c560048036038101906102c091906121cb565b610a8e565b6040516102d291906123be565b60405180910390f35b6102f560048036038101906102f09190612405565b610afe565b005b610311600480360381019061030c9190612280565b610b14565b005b61032d6004803603810190610328919061257a565b610c52565b005b610337610cb4565b60405161034491906126bb565b60405180910390f35b610367600480360381019061036291906121cb565b610d49565b6040516103749190612173565b60405180910390f35b610397600480360381019061039291906126dd565b610f07565b6040516103a491906120bf565b60405180910390f35b6103c760048036038101906103c291906127be565b610f9b565b005b6103d16112de565b6040516103de9190612969565b60405180910390f35b60007f80ac58cd000000000000000000000000000000000000000000000000000000007bffffffffffffffffffffffffffffffffffffffffffffffffffffffff1916827bffffffffffffffffffffffffffffffffffffffffffffffffffffffff191614806104b257507f5b5e139f000000000000000000000000000000000000000000000000000000007bffffffffffffffffffffffffffffffffffffffffffffffffffffffff1916827bffffffffffffffffffffffffffffffffffffffffffffffffffffffff1916145b806104c257506104c18261142c565b5b9050919050565b6060600080546104d8906129ba565b80601f0160208091040260200160405190810160405280929190818152602001828054610504906129ba565b80156105515780601f1061052657610100808354040283529160200191610551565b820191906000526020600020905b81548152906001019060200180831161053457829003601f168201915b5050505050905090565b600061056682611496565b6004600083815260200190815260200160002060009054906101000a900473ffffffffffffffffffffffffffffffffffffffff169050919050565b60006105ac82610892565b90508073ffffffffffffffffffffffffffffffffffffffff168373ffffffffffffffffffffffffffffffffffffffff16141561061d576040517f08c379a000000000000000000000000000000000000000000000000000000000815260040161061490612a5e565b60405180910390fd5b8073ffffffffffffffffffffffffffffffffffffffff1661063c6114e1565b73ffffffffffffffffffffffffffffffffffffffff16148061066b575061066a816106656114e1565b610f07565b5b6106aa576040517f08c379a00000000000000000000000000000000000000000000000000000000081526004016106a190612af0565b60405180910390fd5b6106b483836114e9565b505050565b6106ca6106c46114e1565b826115a2565b610709576040517f08c379a000000000000000000000000000000000000000000000000000000000815260040161070090612b82565b60405180910390fd5b610714838383611637565b505050565b61073483838360405180602001604052806000815250610c52565b505050565b6008602052806000526040600020600091509050806000015490806001015490806002018054610768906129ba565b80601f0160208091040260200160405190810160405280929190818152602001828054610794906129ba565b80156107e15780601f106107b6576101008083540402835291602001916107e1565b820191906000526020600020905b8154815290600101906020018083116107c457829003601f168201915b5050505050908060030180546107f6906129ba565b80601f0160208091040260200160405190810160405280929190818152602001828054610822906129ba565b801561086f5780601f106108445761010080835404028352916020019161086f565b820191906000526020600020905b81548152906001019060200180831161085257829003601f168201915b5050505050908060040154908060050160009054906101000a900460ff16905086565b6000806002600084815260200190815260200160002060009054906101000a900473ffffffffffffffffffffffffffffffffffffffff169050600073ffffffffffffffffffffffffffffffffffffffff168173ffffffffffffffffffffffffffffffffffffffff16141561093b576040517f08c379a000000000000000000000000000000000000000000000000000000000815260040161093290612bee565b60405180910390fd5b80915050919050565b60008073ffffffffffffffffffffffffffffffffffffffff168273ffffffffffffffffffffffffffffffffffffffff1614156109b5576040517f08c379a00000000000000000000000000000000000000000000000000000000081526004016109ac90612c80565b60405180910390fd5b600360008373ffffffffffffffffffffffffffffffffffffffff1673ffffffffffffffffffffffffffffffffffffffff168152602001908152602001600020549050919050565b606060018054610a0b906129ba565b80601f0160208091040260200160405190810160405280929190818152602001828054610a37906129ba565b8015610a845780601f10610a5957610100808354040283529160200191610a84565b820191906000526020600020905b815481529060010190602001808311610a6757829003601f168201915b5050505050905090565b600080600a6000848152602001908152602001600020541415610add576040517f4ec6212e00000000000000000000000000000000000000000000000000000000815260040160405180910390fd5b6000600a600084815260200190815260200160002054905080915050919050565b610b10610b096114e1565b838361189e565b5050565b6000610bad600760008573ffffffffffffffffffffffffffffffffffffffff1673ffffffffffffffffffffffffffffffffffffffff168152602001908152602001600020805480602002602001604051908101604052809291908181526020018280548015610ba257602002820191906000526020600020905b815481526020019060010190808311610b8e575b505050505083611a0b565b90508015610be7576040517fa3dc114a00000000000000000000000000000000000000000000000000000000815260040160405180910390fd5b600760008473ffffffffffffffffffffffffffffffffffffffff1673ffffffffffffffffffffffffffffffffffffffff168152602001908152602001600020829080600181540180825580915050600190039060005260206000200160009091909190915055505050565b610c63610c5d6114e1565b836115a2565b610ca2576040517f08c379a0000000000000000000000000000000000000000000000000000000008152600401610c9990612b82565b60405180910390fd5b610cae84848484611a65565b50505050565b6060600760003373ffffffffffffffffffffffffffffffffffffffff1673ffffffffffffffffffffffffffffffffffffffff168152602001908152602001600020805480602002602001604051908101604052809291908181526020018280548015610d3f57602002820191906000526020600020905b815481526020019060010190808311610d2b575b5050505050905090565b60606000600860008481526020019081526020016000206040518060c00160405290816000820154815260200160018201548152602001600282018054610d8f906129ba565b80601f0160208091040260200160405190810160405280929190818152602001828054610dbb906129ba565b8015610e085780601f10610ddd57610100808354040283529160200191610e08565b820191906000526020600020905b815481529060010190602001808311610deb57829003601f168201915b50505050508152602001600382018054610e21906129ba565b80601f0160208091040260200160405190810160405280929190818152602001828054610e4d906129ba565b8015610e9a5780601f10610e6f57610100808354040283529160200191610e9a565b820191906000526020600020905b815481529060010190602001808311610e7d57829003601f168201915b50505050508152602001600482015481526020016005820160009054906101000a900460ff161515151581525050905060008160200151826080015142610ee19190612ccf565b1190508015610ef857816060015192505050610f02565b8160400151925050505b919050565b6000600560008473ffffffffffffffffffffffffffffffffffffffff1673ffffffffffffffffffffffffffffffffffffffff16815260200190815260200160002060008373ffffffffffffffffffffffffffffffffffffffff1673ffffffffffffffffffffffffffffffffffffffff16815260200190815260200160002060009054906101000a900460ff16905092915050565b6000600760003373ffffffffffffffffffffffffffffffffffffffff1673ffffffffffffffffffffffffffffffffffffffff1681526020019081526020016000208054905011611020576040517f08c379a000000000000000000000000000000000000000000000000000000000815260040161101790612d75565b60405180910390fd5b60006110b9600760003373ffffffffffffffffffffffffffffffffffffffff1673ffffffffffffffffffffffffffffffffffffffff1681526020019081526020016000208054806020026020016040519081016040528092919081815260200182805480156110ae57602002820191906000526020600020905b81548152602001906001019080831161109a575b505050505086611a0b565b9050806110f2576040517f4ec6212e00000000000000000000000000000000000000000000000000000000815260040160405180910390fd5b6000600a6000878152602001908152602001600020541461113f576040517f3263593f00000000000000000000000000000000000000000000000000000000815260040160405180910390fd5b6111496006611ac1565b60006111556006611ad7565b90506111613382611ae5565b6040518060c001604052808281526020018481526020018681526020018581526020014281526020016000151581525060086000838152602001908152602001600020600082015181600001556020820151816001015560408201518160020190805190602001906111d4929190611f68565b5060608201518160030190805190602001906111f1929190611f68565b506080820151816004015560a08201518160050160006101000a81548160ff02191690831515021790555090505080600a600088815260200190815260200160002081905550600960003373ffffffffffffffffffffffffffffffffffffffff1673ffffffffffffffffffffffffffffffffffffffff1681526020019081526020016000208190806001815401808255809150506001900390600052602060002001600090919091909150557f0176f203df400d7bd5f1b1c9ef36c16709bf3b5d9fd35f000a6bae32393f66c381336040516112ce929190612d95565b60405180910390a1505050505050565b60606000600960003373ffffffffffffffffffffffffffffffffffffffff1673ffffffffffffffffffffffffffffffffffffffff16815260200190815260200160002080548060200260200160405190810160405280929190818152602001828054801561136b57602002820191906000526020600020905b815481526020019060010190808311611357575b505050505090506000815167ffffffffffffffff81111561138f5761138e61244f565b5b6040519080825280602002602001820160405280156113c257816020015b60608152602001906001900390816113ad5790505b50905060005b8251811015611423576113f48382815181106113e7576113e6612dbe565b5b6020026020010151610d49565b82828151811061140757611406612dbe565b5b60200260200101819052508061141c90612ded565b90506113c8565b50809250505090565b60007f01ffc9a7000000000000000000000000000000000000000000000000000000007bffffffffffffffffffffffffffffffffffffffffffffffffffffffff1916827bffffffffffffffffffffffffffffffffffffffffffffffffffffffff1916149050919050565b61149f81611b03565b6114de576040517f08c379a00000000000000000000000000000000000000000000000000000000081526004016114d590612bee565b60405180910390fd5b50565b600033905090565b816004600083815260200190815260200160002060006101000a81548173ffffffffffffffffffffffffffffffffffffffff021916908373ffffffffffffffffffffffffffffffffffffffff160217905550808273ffffffffffffffffffffffffffffffffffffffff1661155c83610892565b73ffffffffffffffffffffffffffffffffffffffff167f8c5be1e5ebec7d5bd14f71427d1e84f3dd0314c0f7b2291e5b200ac8c7c3b92560405160405180910390a45050565b6000806115ae83610892565b90508073ffffffffffffffffffffffffffffffffffffffff168473ffffffffffffffffffffffffffffffffffffffff1614806115f057506115ef8185610f07565b5b8061162e57508373ffffffffffffffffffffffffffffffffffffffff166116168461055b565b73ffffffffffffffffffffffffffffffffffffffff16145b91505092915050565b8273ffffffffffffffffffffffffffffffffffffffff1661165782610892565b73ffffffffffffffffffffffffffffffffffffffff16146116ad576040517f08c379a00000000000000000000000000000000000000000000000000000000081526004016116a490612ea8565b60405180910390fd5b600073ffffffffffffffffffffffffffffffffffffffff168273ffffffffffffffffffffffffffffffffffffffff16141561171d576040517f08c379a000000000000000000000000000000000000000000000000000000000815260040161171490612f3a565b60405180910390fd5b611728838383611b6f565b6117336000826114e9565b6001600360008573ffffffffffffffffffffffffffffffffffffffff1673ffffffffffffffffffffffffffffffffffffffff16815260200190815260200160002060008282546117839190612ccf565b925050819055506001600360008473ffffffffffffffffffffffffffffffffffffffff1673ffffffffffffffffffffffffffffffffffffffff16815260200190815260200160002060008282546117da9190612f5a565b92505081905550816002600083815260200190815260200160002060006101000a81548173ffffffffffffffffffffffffffffffffffffffff021916908373ffffffffffffffffffffffffffffffffffffffff160217905550808273ffffffffffffffffffffffffffffffffffffffff168473ffffffffffffffffffffffffffffffffffffffff167fddf252ad1be2c89b69c2b068fc378daa952ba7f163c4a11628f55a4df523b3ef60405160405180910390a4611899838383611b74565b505050565b8173ffffffffffffffffffffffffffffffffffffffff168373ffffffffffffffffffffffffffffffffffffffff16141561190d576040517f08c379a000000000000000000000000000000000000000000000000000000000815260040161190490612ffc565b60405180910390fd5b80600560008573ffffffffffffffffffffffffffffffffffffffff1673ffffffffffffffffffffffffffffffffffffffff16815260200190815260200160002060008473ffffffffffffffffffffffffffffffffffffffff1673ffffffffffffffffffffffffffffffffffffffff16815260200190815260200160002060006101000a81548160ff0219169083151502179055508173ffffffffffffffffffffffffffffffffffffffff168373ffffffffffffffffffffffffffffffffffffffff167f17307eab39ab6107e8899845ad3d59bd9653f200f220920489ca2b5937696c31836040516119fe91906120bf565b60405180910390a3505050565b600080600090505b8351811015611a595782848281518110611a3057611a2f612dbe565b5b60200260200101511415611a48576001915050611a5f565b80611a5290612ded565b9050611a13565b50600090505b92915050565b611a70848484611637565b611a7c84848484611b79565b611abb576040517f08c379a0000000000000000000000000000000000000000000000000000000008152600401611ab29061308e565b60405180910390fd5b50505050565b6001816000016000828254019250508190555050565b600081600001549050919050565b611aff828260405180602001604052806000815250611d10565b5050565b60008073ffffffffffffffffffffffffffffffffffffffff166002600084815260200190815260200160002060009054906101000a900473ffffffffffffffffffffffffffffffffffffffff1673ffffffffffffffffffffffffffffffffffffffff1614159050919050565b505050565b505050565b6000611b9a8473ffffffffffffffffffffffffffffffffffffffff16611d6b565b15611d03578373ffffffffffffffffffffffffffffffffffffffff1663150b7a02611bc36114e1565b8786866040518563ffffffff1660e01b8152600401611be59493929190613103565b602060405180830381600087803b158015611bff57600080fd5b505af1925050508015611c3057506040513d601f19601f82011682018060405250810190611c2d9190613164565b60015b611cb3573d8060008114611c60576040519150601f19603f3d011682016040523d82523d6000602084013e611c65565b606091505b50600081511415611cab576040517f08c379a0000000000000000000000000000000000000000000000000000000008152600401611ca29061308e565b60405180910390fd5b805181602001fd5b63150b7a0260e01b7bffffffffffffffffffffffffffffffffffffffffffffffffffffffff1916817bffffffffffffffffffffffffffffffffffffffffffffffffffffffff191614915050611d08565b600190505b949350505050565b611d1a8383611d8e565b611d276000848484611b79565b611d66576040517f08c379a0000000000000000000000000000000000000000000000000000000008152600401611d5d9061308e565b60405180910390fd5b505050565b6000808273ffffffffffffffffffffffffffffffffffffffff163b119050919050565b600073ffffffffffffffffffffffffffffffffffffffff168273ffffffffffffffffffffffffffffffffffffffff161415611dfe576040517f08c379a0000000000000000000000000000000000000000000000000000000008152600401611df5906131dd565b60405180910390fd5b611e0781611b03565b15611e47576040517f08c379a0000000000000000000000000000000000000000000000000000000008152600401611e3e90613249565b60405180910390fd5b611e5360008383611b6f565b6001600360008473ffffffffffffffffffffffffffffffffffffffff1673ffffffffffffffffffffffffffffffffffffffff1681526020019081526020016000206000828254611ea39190612f5a565b92505081905550816002600083815260200190815260200160002060006101000a81548173ffffffffffffffffffffffffffffffffffffffff021916908373ffffffffffffffffffffffffffffffffffffffff160217905550808273ffffffffffffffffffffffffffffffffffffffff16600073ffffffffffffffffffffffffffffffffffffffff167fddf252ad1be2c89b69c2b068fc378daa952ba7f163c4a11628f55a4df523b3ef60405160405180910390a4611f6460008383611b74565b5050565b828054611f74906129ba565b90600052602060002090601f016020900481019282611f965760008555611fdd565b82601f10611faf57805160ff1916838001178555611fdd565b82800160010185558215611fdd579182015b82811115611fdc578251825591602001919060010190611fc1565b5b509050611fea9190611fee565b5090565b5b80821115612007576000816000905550600101611fef565b5090565b6000604051905090565b600080fd5b600080fd5b60007fffffffff0000000000000000000000000000000000000000000000000000000082169050919050565b6120548161201f565b811461205f57600080fd5b50565b6000813590506120718161204b565b92915050565b60006020828403121561208d5761208c612015565b5b600061209b84828501612062565b91505092915050565b60008115159050919050565b6120b9816120a4565b82525050565b60006020820190506120d460008301846120b0565b92915050565b600081519050919050565b600082825260208201905092915050565b60005b838110156121145780820151818401526020810190506120f9565b83811115612123576000848401525b50505050565b6000601f19601f8301169050919050565b6000612145826120da565b61214f81856120e5565b935061215f8185602086016120f6565b61216881612129565b840191505092915050565b6000602082019050818103600083015261218d818461213a565b905092915050565b6000819050919050565b6121a881612195565b81146121b357600080fd5b50565b6000813590506121c58161219f565b92915050565b6000602082840312156121e1576121e0612015565b5b60006121ef848285016121b6565b91505092915050565b600073ffffffffffffffffffffffffffffffffffffffff82169050919050565b6000612223826121f8565b9050919050565b61223381612218565b82525050565b600060208201905061224e600083018461222a565b92915050565b61225d81612218565b811461226857600080fd5b50565b60008135905061227a81612254565b92915050565b6000806040838503121561229757612296612015565b5b60006122a58582860161226b565b92505060206122b6858286016121b6565b9150509250929050565b6000806000606084860312156122d9576122d8612015565b5b60006122e78682870161226b565b93505060206122f88682870161226b565b9250506040612309868287016121b6565b9150509250925092565b61231c81612195565b82525050565b600060c0820190506123376000830189612313565b6123446020830188612313565b8181036040830152612356818761213a565b9050818103606083015261236a818661213a565b90506123796080830185612313565b61238660a08301846120b0565b979650505050505050565b6000602082840312156123a7576123a6612015565b5b60006123b58482850161226b565b91505092915050565b60006020820190506123d36000830184612313565b92915050565b6123e2816120a4565b81146123ed57600080fd5b50565b6000813590506123ff816123d9565b92915050565b6000806040838503121561241c5761241b612015565b5b600061242a8582860161226b565b925050602061243b858286016123f0565b9150509250929050565b600080fd5b600080fd5b7f4e487b7100000000000000000000000000000000000000000000000000000000600052604160045260246000fd5b61248782612129565b810181811067ffffffffffffffff821117156124a6576124a561244f565b5b80604052505050565b60006124b961200b565b90506124c5828261247e565b919050565b600067ffffffffffffffff8211156124e5576124e461244f565b5b6124ee82612129565b9050602081019050919050565b82818337600083830152505050565b600061251d612518846124ca565b6124af565b9050828152602081018484840111156125395761253861244a565b5b6125448482856124fb565b509392505050565b600082601f83011261256157612560612445565b5b813561257184826020860161250a565b91505092915050565b6000806000806080858703121561259457612593612015565b5b60006125a28782880161226b565b94505060206125b38782880161226b565b93505060406125c4878288016121b6565b925050606085013567ffffffffffffffff8111156125e5576125e461201a565b5b6125f18782880161254c565b91505092959194509250565b600081519050919050565b600082825260208201905092915050565b6000819050602082019050919050565b61263281612195565b82525050565b60006126448383612629565b60208301905092915050565b6000602082019050919050565b6000612668826125fd565b6126728185612608565b935061267d83612619565b8060005b838110156126ae5781516126958882612638565b97506126a083612650565b925050600181019050612681565b5085935050505092915050565b600060208201905081810360008301526126d5818461265d565b905092915050565b600080604083850312156126f4576126f3612015565b5b60006127028582860161226b565b92505060206127138582860161226b565b9150509250929050565b600067ffffffffffffffff8211156127385761273761244f565b5b61274182612129565b9050602081019050919050565b600061276161275c8461271d565b6124af565b90508281526020810184848401111561277d5761277c61244a565b5b6127888482856124fb565b509392505050565b600082601f8301126127a5576127a4612445565b5b81356127b584826020860161274e565b91505092915050565b600080600080608085870312156127d8576127d7612015565b5b60006127e6878288016121b6565b945050602085013567ffffffffffffffff8111156128075761280661201a565b5b61281387828801612790565b935050604085013567ffffffffffffffff8111156128345761283361201a565b5b61284087828801612790565b9250506060612851878288016121b6565b91505092959194509250565b600081519050919050565b600082825260208201905092915050565b6000819050602082019050919050565b600082825260208201905092915050565b60006128a5826120da565b6128af8185612889565b93506128bf8185602086016120f6565b6128c881612129565b840191505092915050565b60006128df838361289a565b905092915050565b6000602082019050919050565b60006128ff8261285d565b6129098185612868565b93508360208202850161291b85612879565b8060005b85811015612957578484038952815161293885826128d3565b9450612943836128e7565b925060208a0199505060018101905061291f565b50829750879550505050505092915050565b6000602082019050818103600083015261298381846128f4565b905092915050565b7f4e487b7100000000000000000000000000000000000000000000000000000000600052602260045260246000fd5b600060028204905060018216806129d257607f821691505b602082108114156129e6576129e561298b565b5b50919050565b7f4552433732313a20617070726f76616c20746f2063757272656e74206f776e6560008201527f7200000000000000000000000000000000000000000000000000000000000000602082015250565b6000612a486021836120e5565b9150612a53826129ec565b604082019050919050565b60006020820190508181036000830152612a7781612a3b565b9050919050565b7f4552433732313a20617070726f76652063616c6c6572206973206e6f7420746f60008201527f6b656e206f776e6572206e6f7220617070726f76656420666f7220616c6c0000602082015250565b6000612ada603e836120e5565b9150612ae582612a7e565b604082019050919050565b60006020820190508181036000830152612b0981612acd565b9050919050565b7f4552433732313a2063616c6c6572206973206e6f7420746f6b656e206f776e6560008201527f72206e6f7220617070726f766564000000000000000000000000000000000000602082015250565b6000612b6c602e836120e5565b9150612b7782612b10565b604082019050919050565b60006020820190508181036000830152612b9b81612b5f565b9050919050565b7f4552433732313a20696e76616c696420746f6b656e2049440000000000000000600082015250565b6000612bd86018836120e5565b9150612be382612ba2565b602082019050919050565b60006020820190508181036000830152612c0781612bcb565b9050919050565b7f4552433732313a2061646472657373207a65726f206973206e6f74206120766160008201527f6c6964206f776e65720000000000000000000000000000000000000000000000602082015250565b6000612c6a6029836120e5565b9150612c7582612c0e565b604082019050919050565b60006020820190508181036000830152612c9981612c5d565b9050919050565b7f4e487b7100000000000000000000000000000000000000000000000000000000600052601160045260246000fd5b6000612cda82612195565b9150612ce583612195565b925082821015612cf857612cf7612ca0565b5b828203905092915050565b7f4e6f7420416c6c6f7765642c20596f7520617265206e6f7420637573746f6d6560008201527f7200000000000000000000000000000000000000000000000000000000000000602082015250565b6000612d5f6021836120e5565b9150612d6a82612d03565b604082019050919050565b60006020820190508181036000830152612d8e81612d52565b9050919050565b6000604082019050612daa6000830185612313565b612db7602083018461222a565b9392505050565b7f4e487b7100000000000000000000000000000000000000000000000000000000600052603260045260246000fd5b6000612df882612195565b91507fffffffffffffffffffffffffffffffffffffffffffffffffffffffffffffffff821415612e2b57612e2a612ca0565b5b600182019050919050565b7f4552433732313a207472616e736665722066726f6d20696e636f72726563742060008201527f6f776e6572000000000000000000000000000000000000000000000000000000602082015250565b6000612e926025836120e5565b9150612e9d82612e36565b604082019050919050565b60006020820190508181036000830152612ec181612e85565b9050919050565b7f4552433732313a207472616e7366657220746f20746865207a65726f2061646460008201527f7265737300000000000000000000000000000000000000000000000000000000602082015250565b6000612f246024836120e5565b9150612f2f82612ec8565b604082019050919050565b60006020820190508181036000830152612f5381612f17565b9050919050565b6000612f6582612195565b9150612f7083612195565b9250827fffffffffffffffffffffffffffffffffffffffffffffffffffffffffffffffff03821115612fa557612fa4612ca0565b5b828201905092915050565b7f4552433732313a20617070726f766520746f2063616c6c657200000000000000600082015250565b6000612fe66019836120e5565b9150612ff182612fb0565b602082019050919050565b6000602082019050818103600083015261301581612fd9565b9050919050565b7f4552433732313a207472616e7366657220746f206e6f6e20455243373231526560008201527f63656976657220696d706c656d656e7465720000000000000000000000000000602082015250565b60006130786032836120e5565b91506130838261301c565b604082019050919050565b600060208201905081810360008301526130a78161306b565b9050919050565b600081519050919050565b600082825260208201905092915050565b60006130d5826130ae565b6130df81856130b9565b93506130ef8185602086016120f6565b6130f881612129565b840191505092915050565b6000608082019050613118600083018761222a565b613125602083018661222a565b6131326040830185612313565b818103606083015261314481846130ca565b905095945050505050565b60008151905061315e8161204b565b92915050565b60006020828403121561317a57613179612015565b5b60006131888482850161314f565b91505092915050565b7f4552433732313a206d696e7420746f20746865207a65726f2061646472657373600082015250565b60006131c76020836120e5565b91506131d282613191565b602082019050919050565b600060208201905081810360008301526131f6816131ba565b9050919050565b7f4552433732313a20746f6b656e20616c7265616479206d696e74656400000000600082015250565b6000613233601c836120e5565b915061323e826131fd565b602082019050919050565b6000602082019050818103600083015261326281613226565b905091905056fea264697066735822122019dc1d10a31b357f4202bfff83586ffe785b6fb62b6240fd04c67a68034463a664736f6c63430008080033",
  "linkReferences": {},
  "deployedLinkReferences": {}
}