{
  "_format": "hh-sol-artifact-1",
  "contractName": "WarrantyNFT",
  "sourceName": "contracts/WarrantyNFT.sol",
  "abi": [
    {
      "inputs": [
        {
          "internalType": "address",
          "name": "sellerId",
          "type": "address"
        },
        {
          "internalType": "string",
          "name": "NFTName",
          "type": "string"
        },
        {
          "internalType": "string",
          "name": "NFTSymbol",
          "type": "string"
        }
      ],
      "stateMutability": "nonpayable",
      "type": "constructor"
    },
    {
      "inputs": [],
      "name": "WarrantyNFT__AlreadyIssuedNFT",
      "type": "error"
    },
    {
      "inputs": [],
      "name": "WarrantyNFT__alreadyExists",
      "type": "error"
    },
    {
      "inputs": [],
      "name": "WarrantyNFT__orderNotFound",
      "type": "error"
    },
    {
      "anonymous": false,
      "inputs": [
        {
          "indexed": true,
          "internalType": "address",
          "name": "owner",
          "type": "address"
        },
        {
          "indexed": true,
          "internalType": "address",
          "name": "approved",
          "type": "address"
        },
        {
          "indexed": true,
          "internalType": "uint256",
          "name": "tokenId",
          "type": "uint256"
        }
      ],
      "name": "Approval",
      "type": "event"
    },
    {
      "anonymous": false,
      "inputs": [
        {
          "indexed": true,
          "internalType": "address",
          "name": "owner",
          "type": "address"
        },
        {
          "indexed": true,
          "internalType": "address",
          "name": "operator",
          "type": "address"
        },
        {
          "indexed": false,
          "internalType": "bool",
          "name": "approved",
          "type": "bool"
        }
      ],
      "name": "ApprovalForAll",
      "type": "event"
    },
    {
      "anonymous": false,
      "inputs": [
        {
          "indexed": true,
          "internalType": "address",
          "name": "previousOwner",
          "type": "address"
        },
        {
          "indexed": true,
          "internalType": "address",
          "name": "newOwner",
          "type": "address"
        }
      ],
      "name": "OwnershipTransferred",
      "type": "event"
    },
    {
      "anonymous": false,
      "inputs": [
        {
          "indexed": true,
          "internalType": "address",
          "name": "from",
          "type": "address"
        },
        {
          "indexed": true,
          "internalType": "address",
          "name": "to",
          "type": "address"
        },
        {
          "indexed": true,
          "internalType": "uint256",
          "name": "tokenId",
          "type": "uint256"
        }
      ],
      "name": "Transfer",
      "type": "event"
    },
    {
      "inputs": [
        {
          "internalType": "uint256",
          "name": "",
          "type": "uint256"
        }
      ],
      "name": "NftTokenToData",
      "outputs": [
        {
          "internalType": "uint256",
          "name": "tokenId",
          "type": "uint256"
        },
        {
          "internalType": "string",
          "name": "expiryDate",
          "type": "string"
        },
        {
          "internalType": "string",
          "name": "tokenURI",
          "type": "string"
        },
        {
          "internalType": "string",
          "name": "expireTokenURI",
          "type": "string"
        }
      ],
      "stateMutability": "view",
      "type": "function"
    },
    {
      "inputs": [
        {
          "internalType": "address",
          "name": "to",
          "type": "address"
        },
        {
          "internalType": "uint256",
          "name": "tokenId",
          "type": "uint256"
        }
      ],
      "name": "approve",
      "outputs": [],
      "stateMutability": "nonpayable",
      "type": "function"
    },
    {
      "inputs": [
        {
          "internalType": "address",
          "name": "owner",
          "type": "address"
        }
      ],
      "name": "balanceOf",
      "outputs": [
        {
          "internalType": "uint256",
          "name": "",
          "type": "uint256"
        }
      ],
      "stateMutability": "view",
      "type": "function"
    },
    {
      "inputs": [
        {
          "internalType": "uint256",
          "name": "tokenId",
          "type": "uint256"
        }
      ],
      "name": "getApproved",
      "outputs": [
        {
          "internalType": "address",
          "name": "",
          "type": "address"
        }
      ],
      "stateMutability": "view",
      "type": "function"
    },
    {
      "inputs": [
        {
          "internalType": "address",
          "name": "owner",
          "type": "address"
        },
        {
          "internalType": "address",
          "name": "operator",
          "type": "address"
        }
      ],
      "name": "isApprovedForAll",
      "outputs": [
        {
          "internalType": "bool",
          "name": "",
          "type": "bool"
        }
      ],
      "stateMutability": "view",
      "type": "function"
    },
    {
      "inputs": [
        {
          "internalType": "address",
          "name": "customer",
          "type": "address"
        },
        {
          "internalType": "uint256",
          "name": "orderId",
          "type": "uint256"
        },
        {
          "internalType": "string",
          "name": "tokenURI",
          "type": "string"
        },
        {
          "internalType": "string",
          "name": "expireTokenURI",
          "type": "string"
        },
        {
          "internalType": "string",
          "name": "expiryDate",
          "type": "string"
        }
      ],
      "name": "mintWarrantyNFT",
      "outputs": [
        {
          "internalType": "uint256",
          "name": "",
          "type": "uint256"
        }
      ],
      "stateMutability": "nonpayable",
      "type": "function"
    },
    {
      "inputs": [],
      "name": "name",
      "outputs": [
        {
          "internalType": "string",
          "name": "",
          "type": "string"
        }
      ],
      "stateMutability": "view",
      "type": "function"
    },
    {
      "inputs": [],
      "name": "owner",
      "outputs": [
        {
          "internalType": "address",
          "name": "",
          "type": "address"
        }
      ],
      "stateMutability": "view",
      "type": "function"
    },
    {
      "inputs": [
        {
          "internalType": "uint256",
          "name": "tokenId",
          "type": "uint256"
        }
      ],
      "name": "ownerOf",
      "outputs": [
        {
          "internalType": "address",
          "name": "",
          "type": "address"
        }
      ],
      "stateMutability": "view",
      "type": "function"
    },
    {
      "inputs": [
        {
          "internalType": "address",
          "name": "customer",
          "type": "address"
        },
        {
          "internalType": "uint256",
          "name": "orderId",
          "type": "uint256"
        }
      ],
      "name": "placeOrder",
      "outputs": [],
      "stateMutability": "nonpayable",
      "type": "function"
    },
    {
      "inputs": [],
      "name": "renounceOwnership",
      "outputs": [],
      "stateMutability": "nonpayable",
      "type": "function"
    },
    {
      "inputs": [
        {
          "internalType": "address",
          "name": "from",
          "type": "address"
        },
        {
          "internalType": "address",
          "name": "to",
          "type": "address"
        },
        {
          "internalType": "uint256",
          "name": "tokenId",
          "type": "uint256"
        }
      ],
      "name": "safeTransferFrom",
      "outputs": [],
      "stateMutability": "nonpayable",
      "type": "function"
    },
    {
      "inputs": [
        {
          "internalType": "address",
          "name": "from",
          "type": "address"
        },
        {
          "internalType": "address",
          "name": "to",
          "type": "address"
        },
        {
          "internalType": "uint256",
          "name": "tokenId",
          "type": "uint256"
        },
        {
          "internalType": "bytes",
          "name": "data",
          "type": "bytes"
        }
      ],
      "name": "safeTransferFrom",
      "outputs": [],
      "stateMutability": "nonpayable",
      "type": "function"
    },
    {
      "inputs": [
        {
          "internalType": "address",
          "name": "operator",
          "type": "address"
        },
        {
          "internalType": "bool",
          "name": "approved",
          "type": "bool"
        }
      ],
      "name": "setApprovalForAll",
      "outputs": [],
      "stateMutability": "nonpayable",
      "type": "function"
    },
    {
      "inputs": [
        {
          "internalType": "bytes4",
          "name": "interfaceId",
          "type": "bytes4"
        }
      ],
      "name": "supportsInterface",
      "outputs": [
        {
          "internalType": "bool",
          "name": "",
          "type": "bool"
        }
      ],
      "stateMutability": "view",
      "type": "function"
    },
    {
      "inputs": [],
      "name": "symbol",
      "outputs": [
        {
          "internalType": "string",
          "name": "",
          "type": "string"
        }
      ],
      "stateMutability": "view",
      "type": "function"
    },
    {
      "inputs": [
        {
          "internalType": "uint256",
          "name": "tokenId",
          "type": "uint256"
        }
      ],
      "name": "tokenURI",
      "outputs": [
        {
          "internalType": "string",
          "name": "",
          "type": "string"
        }
      ],
      "stateMutability": "view",
      "type": "function"
    },
    {
      "inputs": [
        {
          "internalType": "address",
          "name": "from",
          "type": "address"
        },
        {
          "internalType": "address",
          "name": "to",
          "type": "address"
        },
        {
          "internalType": "uint256",
          "name": "tokenId",
          "type": "uint256"
        }
      ],
      "name": "transferFrom",
      "outputs": [],
      "stateMutability": "nonpayable",
      "type": "function"
    },
    {
      "inputs": [
        {
          "internalType": "address",
          "name": "newOwner",
          "type": "address"
        }
      ],
      "name": "transferOwnership",
      "outputs": [],
      "stateMutability": "nonpayable",
      "type": "function"
    }
  ],
  "bytecode": "0x60a06040523480156200001157600080fd5b50604051620038fc380380620038fc83398181016040528101906200003791906200044d565b81818160009080519060200190620000519291906200019b565b5080600190805190602001906200006a9291906200019b565b5050506200008d62000081620000cd60201b60201c565b620000d560201b60201c565b8273ffffffffffffffffffffffffffffffffffffffff1660808173ffffffffffffffffffffffffffffffffffffffff1660601b815250505050506200054c565b600033905090565b6000600760009054906101000a900473ffffffffffffffffffffffffffffffffffffffff16905081600760006101000a81548173ffffffffffffffffffffffffffffffffffffffff021916908373ffffffffffffffffffffffffffffffffffffffff1602179055508173ffffffffffffffffffffffffffffffffffffffff168173ffffffffffffffffffffffffffffffffffffffff167f8be0079c531659141344cd1fd0a4f28419497f9722a3daafe3b4186f6b6457e060405160405180910390a35050565b828054620001a99062000516565b90600052602060002090601f016020900481019282620001cd576000855562000219565b82601f10620001e857805160ff191683800117855562000219565b8280016001018555821562000219579182015b8281111562000218578251825591602001919060010190620001fb565b5b5090506200022891906200022c565b5090565b5b80821115620002475760008160009055506001016200022d565b5090565b6000604051905090565b600080fd5b600080fd5b600073ffffffffffffffffffffffffffffffffffffffff82169050919050565b60006200028c826200025f565b9050919050565b6200029e816200027f565b8114620002aa57600080fd5b50565b600081519050620002be8162000293565b92915050565b600080fd5b600080fd5b6000601f19601f8301169050919050565b7f4e487b7100000000000000000000000000000000000000000000000000000000600052604160045260246000fd5b6200031982620002ce565b810181811067ffffffffffffffff821117156200033b576200033a620002df565b5b80604052505050565b6000620003506200024b565b90506200035e82826200030e565b919050565b600067ffffffffffffffff821115620003815762000380620002df565b5b6200038c82620002ce565b9050602081019050919050565b60005b83811015620003b95780820151818401526020810190506200039c565b83811115620003c9576000848401525b50505050565b6000620003e6620003e08462000363565b62000344565b905082815260208101848484011115620004055762000404620002c9565b5b6200041284828562000399565b509392505050565b600082601f830112620004325762000431620002c4565b5b815162000444848260208601620003cf565b91505092915050565b60008060006060848603121562000469576200046862000255565b5b60006200047986828701620002ad565b935050602084015167ffffffffffffffff8111156200049d576200049c6200025a565b5b620004ab868287016200041a565b925050604084015167ffffffffffffffff811115620004cf57620004ce6200025a565b5b620004dd868287016200041a565b9150509250925092565b7f4e487b7100000000000000000000000000000000000000000000000000000000600052602260045260246000fd5b600060028204905060018216806200052f57607f821691505b60208210811415620005465762000545620004e7565b5b50919050565b60805160601c61339462000568600039600050506133946000f3fe608060405234801561001057600080fd5b50600436106101215760003560e01c8063715018a6116100ad578063b25e2e6811610071578063b25e2e681461031d578063b88d4fde14610339578063c87b56dd14610355578063e985e9c514610385578063f2fde38b146103b557610121565b8063715018a61461028b5780638da5cb5b1461029557806395d89b41146102b3578063a22cb465146102d1578063a4833b4a146102ed57610121565b806323b872dd116100f457806323b872dd146101c057806342842e0e146101dc5780635e1f6edc146101f85780636352211e1461022b57806370a082311461025b57610121565b806301ffc9a71461012657806306fdde0314610156578063081812fc14610174578063095ea7b3146101a4575b600080fd5b610140600480360381019061013b9190612107565b6103d1565b60405161014d919061214f565b60405180910390f35b61015e6104b3565b60405161016b9190612203565b60405180910390f35b61018e6004803603810190610189919061225b565b610545565b60405161019b91906122c9565b60405180910390f35b6101be60048036038101906101b99190612310565b61058b565b005b6101da60048036038101906101d59190612350565b6106a3565b005b6101f660048036038101906101f19190612350565b610703565b005b610212600480360381019061020d919061225b565b610723565b60405161022294939291906123b2565b60405180910390f35b6102456004803603810190610240919061225b565b6108eb565b60405161025291906122c9565b60405180910390f35b6102756004803603810190610270919061240c565b61099d565b6040516102829190612439565b60405180910390f35b610293610a55565b005b61029d610a69565b6040516102aa91906122c9565b60405180910390f35b6102bb610a93565b6040516102c89190612203565b60405180910390f35b6102eb60048036038101906102e69190612480565b610b25565b005b610307600480360381019061030291906125f5565b610b3b565b6040516103149190612439565b60405180910390f35b61033760048036038101906103329190612310565b610dca565b005b610353600480360381019061034e9190612765565b610f10565b005b61036f600480360381019061036a919061225b565b610f72565b60405161037c9190612203565b60405180910390f35b61039f600480360381019061039a91906127e8565b611085565b6040516103ac919061214f565b60405180910390f35b6103cf60048036038101906103ca919061240c565b611119565b005b60007f80ac58cd000000000000000000000000000000000000000000000000000000007bffffffffffffffffffffffffffffffffffffffffffffffffffffffff1916827bffffffffffffffffffffffffffffffffffffffffffffffffffffffff1916148061049c57507f5b5e139f000000000000000000000000000000000000000000000000000000007bffffffffffffffffffffffffffffffffffffffffffffffffffffffff1916827bffffffffffffffffffffffffffffffffffffffffffffffffffffffff1916145b806104ac57506104ab8261119d565b5b9050919050565b6060600080546104c290612857565b80601f01602080910402602001604051908101604052809291908181526020018280546104ee90612857565b801561053b5780601f106105105761010080835404028352916020019161053b565b820191906000526020600020905b81548152906001019060200180831161051e57829003601f168201915b5050505050905090565b600061055082611207565b6004600083815260200190815260200160002060009054906101000a900473ffffffffffffffffffffffffffffffffffffffff169050919050565b6000610596826108eb565b90508073ffffffffffffffffffffffffffffffffffffffff168373ffffffffffffffffffffffffffffffffffffffff161415610607576040517f08c379a00000000000000000000000000000000000000000000000000000000081526004016105fe906128fb565b60405180910390fd5b8073ffffffffffffffffffffffffffffffffffffffff16610626611252565b73ffffffffffffffffffffffffffffffffffffffff16148061065557506106548161064f611252565b611085565b5b610694576040517f08c379a000000000000000000000000000000000000000000000000000000000815260040161068b9061298d565b60405180910390fd5b61069e838361125a565b505050565b6106b46106ae611252565b82611313565b6106f3576040517f08c379a00000000000000000000000000000000000000000000000000000000081526004016106ea90612a1f565b60405180910390fd5b6106fe8383836113a8565b505050565b61071e83838360405180602001604052806000815250610f10565b505050565b600a60205280600052604060002060009150905080600001549080600101805461074c90612857565b80601f016020809104026020016040519081016040528092919081815260200182805461077890612857565b80156107c55780601f1061079a576101008083540402835291602001916107c5565b820191906000526020600020905b8154815290600101906020018083116107a857829003601f168201915b5050505050908060020180546107da90612857565b80601f016020809104026020016040519081016040528092919081815260200182805461080690612857565b80156108535780601f1061082857610100808354040283529160200191610853565b820191906000526020600020905b81548152906001019060200180831161083657829003601f168201915b50505050509080600301805461086890612857565b80601f016020809104026020016040519081016040528092919081815260200182805461089490612857565b80156108e15780601f106108b6576101008083540402835291602001916108e1565b820191906000526020600020905b8154815290600101906020018083116108c457829003601f168201915b5050505050905084565b6000806002600084815260200190815260200160002060009054906101000a900473ffffffffffffffffffffffffffffffffffffffff169050600073ffffffffffffffffffffffffffffffffffffffff168173ffffffffffffffffffffffffffffffffffffffff161415610994576040517f08c379a000000000000000000000000000000000000000000000000000000000815260040161098b90612a8b565b60405180910390fd5b80915050919050565b60008073ffffffffffffffffffffffffffffffffffffffff168273ffffffffffffffffffffffffffffffffffffffff161415610a0e576040517f08c379a0000000000000000000000000000000000000000000000000000000008152600401610a0590612b1d565b60405180910390fd5b600360008373ffffffffffffffffffffffffffffffffffffffff1673ffffffffffffffffffffffffffffffffffffffff168152602001908152602001600020549050919050565b610a5d61160f565b610a67600061168d565b565b6000600760009054906101000a900473ffffffffffffffffffffffffffffffffffffffff16905090565b606060018054610aa290612857565b80601f0160208091040260200160405190810160405280929190818152602001828054610ace90612857565b8015610b1b5780601f10610af057610100808354040283529160200191610b1b565b820191906000526020600020905b815481529060010190602001808311610afe57829003601f168201915b5050505050905090565b610b37610b30611252565b8383611753565b5050565b600080600960003373ffffffffffffffffffffffffffffffffffffffff1673ffffffffffffffffffffffffffffffffffffffff1681526020019081526020016000208054905011610bc1576040517f08c379a0000000000000000000000000000000000000000000000000000000008152600401610bb890612baf565b60405180910390fd5b6000610c5a600960008973ffffffffffffffffffffffffffffffffffffffff1673ffffffffffffffffffffffffffffffffffffffff168152602001908152602001600020805480602002602001604051908101604052809291908181526020018280548015610c4f57602002820191906000526020600020905b815481526020019060010190808311610c3b575b5050505050876118c0565b905080610c93576040517f4ec6212e00000000000000000000000000000000000000000000000000000000815260040160405180910390fd5b6000600b60008881526020019081526020016000205414610ce0576040517f3263593f00000000000000000000000000000000000000000000000000000000815260040160405180910390fd5b610cea600861191a565b6000610cf66008611930565b9050610d02888261193e565b610d0c8187611b18565b604051806080016040528082815260200185815260200187815260200186815250600a6000838152602001908152602001600020600082015181600001556020820151816001019080519060200190610d66929190611ff8565b506040820151816002019080519060200190610d83929190611ff8565b506060820151816003019080519060200190610da0929190611ff8565b5090505080600b600089815260200190815260200160002081905550809250505095945050505050565b610dd261160f565b6000610e6b600960008573ffffffffffffffffffffffffffffffffffffffff1673ffffffffffffffffffffffffffffffffffffffff168152602001908152602001600020805480602002602001604051908101604052809291908181526020018280548015610e6057602002820191906000526020600020905b815481526020019060010190808311610e4c575b5050505050836118c0565b90508015610ea5576040517fa3dc114a00000000000000000000000000000000000000000000000000000000815260040160405180910390fd5b600960008473ffffffffffffffffffffffffffffffffffffffff1673ffffffffffffffffffffffffffffffffffffffff168152602001908152602001600020829080600181540180825580915050600190039060005260206000200160009091909190915055505050565b610f21610f1b611252565b83611313565b610f60576040517f08c379a0000000000000000000000000000000000000000000000000000000008152600401610f5790612a1f565b60405180910390fd5b610f6c84848484611b8c565b50505050565b6060610f7d82611207565b6000600660008481526020019081526020016000208054610f9d90612857565b80601f0160208091040260200160405190810160405280929190818152602001828054610fc990612857565b80156110165780601f10610feb57610100808354040283529160200191611016565b820191906000526020600020905b815481529060010190602001808311610ff957829003601f168201915b505050505090506000611027611be8565b905060008151141561103d578192505050611080565b60008251111561107257808260405160200161105a929190612c0b565b60405160208183030381529060405292505050611080565b61107b84611bff565b925050505b919050565b6000600560008473ffffffffffffffffffffffffffffffffffffffff1673ffffffffffffffffffffffffffffffffffffffff16815260200190815260200160002060008373ffffffffffffffffffffffffffffffffffffffff1673ffffffffffffffffffffffffffffffffffffffff16815260200190815260200160002060009054906101000a900460ff16905092915050565b61112161160f565b600073ffffffffffffffffffffffffffffffffffffffff168173ffffffffffffffffffffffffffffffffffffffff161415611191576040517f08c379a000000000000000000000000000000000000000000000000000000000815260040161118890612ca1565b60405180910390fd5b61119a8161168d565b50565b60007f01ffc9a7000000000000000000000000000000000000000000000000000000007bffffffffffffffffffffffffffffffffffffffffffffffffffffffff1916827bffffffffffffffffffffffffffffffffffffffffffffffffffffffff1916149050919050565b61121081611c67565b61124f576040517f08c379a000000000000000000000000000000000000000000000000000000000815260040161124690612a8b565b60405180910390fd5b50565b600033905090565b816004600083815260200190815260200160002060006101000a81548173ffffffffffffffffffffffffffffffffffffffff021916908373ffffffffffffffffffffffffffffffffffffffff160217905550808273ffffffffffffffffffffffffffffffffffffffff166112cd836108eb565b73ffffffffffffffffffffffffffffffffffffffff167f8c5be1e5ebec7d5bd14f71427d1e84f3dd0314c0f7b2291e5b200ac8c7c3b92560405160405180910390a45050565b60008061131f836108eb565b90508073ffffffffffffffffffffffffffffffffffffffff168473ffffffffffffffffffffffffffffffffffffffff16148061136157506113608185611085565b5b8061139f57508373ffffffffffffffffffffffffffffffffffffffff1661138784610545565b73ffffffffffffffffffffffffffffffffffffffff16145b91505092915050565b8273ffffffffffffffffffffffffffffffffffffffff166113c8826108eb565b73ffffffffffffffffffffffffffffffffffffffff161461141e576040517f08c379a000000000000000000000000000000000000000000000000000000000815260040161141590612d33565b60405180910390fd5b600073ffffffffffffffffffffffffffffffffffffffff168273ffffffffffffffffffffffffffffffffffffffff16141561148e576040517f08c379a000000000000000000000000000000000000000000000000000000000815260040161148590612dc5565b60405180910390fd5b611499838383611cd3565b6114a460008261125a565b6001600360008573ffffffffffffffffffffffffffffffffffffffff1673ffffffffffffffffffffffffffffffffffffffff16815260200190815260200160002060008282546114f49190612e14565b925050819055506001600360008473ffffffffffffffffffffffffffffffffffffffff1673ffffffffffffffffffffffffffffffffffffffff168152602001908152602001600020600082825461154b9190612e48565b92505081905550816002600083815260200190815260200160002060006101000a81548173ffffffffffffffffffffffffffffffffffffffff021916908373ffffffffffffffffffffffffffffffffffffffff160217905550808273ffffffffffffffffffffffffffffffffffffffff168473ffffffffffffffffffffffffffffffffffffffff167fddf252ad1be2c89b69c2b068fc378daa952ba7f163c4a11628f55a4df523b3ef60405160405180910390a461160a838383611cd8565b505050565b611617611252565b73ffffffffffffffffffffffffffffffffffffffff16611635610a69565b73ffffffffffffffffffffffffffffffffffffffff161461168b576040517f08c379a000000000000000000000000000000000000000000000000000000000815260040161168290612eea565b60405180910390fd5b565b6000600760009054906101000a900473ffffffffffffffffffffffffffffffffffffffff16905081600760006101000a81548173ffffffffffffffffffffffffffffffffffffffff021916908373ffffffffffffffffffffffffffffffffffffffff1602179055508173ffffffffffffffffffffffffffffffffffffffff168173ffffffffffffffffffffffffffffffffffffffff167f8be0079c531659141344cd1fd0a4f28419497f9722a3daafe3b4186f6b6457e060405160405180910390a35050565b8173ffffffffffffffffffffffffffffffffffffffff168373ffffffffffffffffffffffffffffffffffffffff1614156117c2576040517f08c379a00000000000000000000000000000000000000000000000000000000081526004016117b990612f56565b60405180910390fd5b80600560008573ffffffffffffffffffffffffffffffffffffffff1673ffffffffffffffffffffffffffffffffffffffff16815260200190815260200160002060008473ffffffffffffffffffffffffffffffffffffffff1673ffffffffffffffffffffffffffffffffffffffff16815260200190815260200160002060006101000a81548160ff0219169083151502179055508173ffffffffffffffffffffffffffffffffffffffff168373ffffffffffffffffffffffffffffffffffffffff167f17307eab39ab6107e8899845ad3d59bd9653f200f220920489ca2b5937696c31836040516118b3919061214f565b60405180910390a3505050565b600080600090505b835181101561190e57828482815181106118e5576118e4612f76565b5b602002602001015114156118fd576001915050611914565b8061190790612fa5565b90506118c8565b50600090505b92915050565b6001816000016000828254019250508190555050565b600081600001549050919050565b600073ffffffffffffffffffffffffffffffffffffffff168273ffffffffffffffffffffffffffffffffffffffff1614156119ae576040517f08c379a00000000000000000000000000000000000000000000000000000000081526004016119a59061303a565b60405180910390fd5b6119b781611c67565b156119f7576040517f08c379a00000000000000000000000000000000000000000000000000000000081526004016119ee906130a6565b60405180910390fd5b611a0360008383611cd3565b6001600360008473ffffffffffffffffffffffffffffffffffffffff1673ffffffffffffffffffffffffffffffffffffffff1681526020019081526020016000206000828254611a539190612e48565b92505081905550816002600083815260200190815260200160002060006101000a81548173ffffffffffffffffffffffffffffffffffffffff021916908373ffffffffffffffffffffffffffffffffffffffff160217905550808273ffffffffffffffffffffffffffffffffffffffff16600073ffffffffffffffffffffffffffffffffffffffff167fddf252ad1be2c89b69c2b068fc378daa952ba7f163c4a11628f55a4df523b3ef60405160405180910390a4611b1460008383611cd8565b5050565b611b2182611c67565b611b60576040517f08c379a0000000000000000000000000000000000000000000000000000000008152600401611b5790613138565b60405180910390fd5b80600660008481526020019081526020016000209080519060200190611b87929190611ff8565b505050565b611b978484846113a8565b611ba384848484611cdd565b611be2576040517f08c379a0000000000000000000000000000000000000000000000000000000008152600401611bd9906131ca565b60405180910390fd5b50505050565b606060405180602001604052806000815250905090565b6060611c0a82611207565b6000611c14611be8565b90506000815111611c345760405180602001604052806000815250611c5f565b80611c3e84611e74565b604051602001611c4f929190612c0b565b6040516020818303038152906040525b915050919050565b60008073ffffffffffffffffffffffffffffffffffffffff166002600084815260200190815260200160002060009054906101000a900473ffffffffffffffffffffffffffffffffffffffff1673ffffffffffffffffffffffffffffffffffffffff1614159050919050565b505050565b505050565b6000611cfe8473ffffffffffffffffffffffffffffffffffffffff16611fd5565b15611e67578373ffffffffffffffffffffffffffffffffffffffff1663150b7a02611d27611252565b8786866040518563ffffffff1660e01b8152600401611d49949392919061323f565b602060405180830381600087803b158015611d6357600080fd5b505af1925050508015611d9457506040513d601f19601f82011682018060405250810190611d9191906132a0565b60015b611e17573d8060008114611dc4576040519150601f19603f3d011682016040523d82523d6000602084013e611dc9565b606091505b50600081511415611e0f576040517f08c379a0000000000000000000000000000000000000000000000000000000008152600401611e06906131ca565b60405180910390fd5b805181602001fd5b63150b7a0260e01b7bffffffffffffffffffffffffffffffffffffffffffffffffffffffff1916817bffffffffffffffffffffffffffffffffffffffffffffffffffffffff191614915050611e6c565b600190505b949350505050565b60606000821415611ebc576040518060400160405280600181526020017f30000000000000000000000000000000000000000000000000000000000000008152509050611fd0565b600082905060005b60008214611eee578080611ed790612fa5565b915050600a82611ee791906132fc565b9150611ec4565b60008167ffffffffffffffff811115611f0a57611f096124ca565b5b6040519080825280601f01601f191660200182016040528015611f3c5781602001600182028036833780820191505090505b5090505b60008514611fc957600182611f559190612e14565b9150600a85611f64919061332d565b6030611f709190612e48565b60f81b818381518110611f8657611f85612f76565b5b60200101907effffffffffffffffffffffffffffffffffffffffffffffffffffffffffffff1916908160001a905350600a85611fc291906132fc565b9450611f40565b8093505050505b919050565b6000808273ffffffffffffffffffffffffffffffffffffffff163b119050919050565b82805461200490612857565b90600052602060002090601f016020900481019282612026576000855561206d565b82601f1061203f57805160ff191683800117855561206d565b8280016001018555821561206d579182015b8281111561206c578251825591602001919060010190612051565b5b50905061207a919061207e565b5090565b5b8082111561209757600081600090555060010161207f565b5090565b6000604051905090565b600080fd5b600080fd5b60007fffffffff0000000000000000000000000000000000000000000000000000000082169050919050565b6120e4816120af565b81146120ef57600080fd5b50565b600081359050612101816120db565b92915050565b60006020828403121561211d5761211c6120a5565b5b600061212b848285016120f2565b91505092915050565b60008115159050919050565b61214981612134565b82525050565b60006020820190506121646000830184612140565b92915050565b600081519050919050565b600082825260208201905092915050565b60005b838110156121a4578082015181840152602081019050612189565b838111156121b3576000848401525b50505050565b6000601f19601f8301169050919050565b60006121d58261216a565b6121df8185612175565b93506121ef818560208601612186565b6121f8816121b9565b840191505092915050565b6000602082019050818103600083015261221d81846121ca565b905092915050565b6000819050919050565b61223881612225565b811461224357600080fd5b50565b6000813590506122558161222f565b92915050565b600060208284031215612271576122706120a5565b5b600061227f84828501612246565b91505092915050565b600073ffffffffffffffffffffffffffffffffffffffff82169050919050565b60006122b382612288565b9050919050565b6122c3816122a8565b82525050565b60006020820190506122de60008301846122ba565b92915050565b6122ed816122a8565b81146122f857600080fd5b50565b60008135905061230a816122e4565b92915050565b60008060408385031215612327576123266120a5565b5b6000612335858286016122fb565b925050602061234685828601612246565b9150509250929050565b600080600060608486031215612369576123686120a5565b5b6000612377868287016122fb565b9350506020612388868287016122fb565b925050604061239986828701612246565b9150509250925092565b6123ac81612225565b82525050565b60006080820190506123c760008301876123a3565b81810360208301526123d981866121ca565b905081810360408301526123ed81856121ca565b9050818103606083015261240181846121ca565b905095945050505050565b600060208284031215612422576124216120a5565b5b6000612430848285016122fb565b91505092915050565b600060208201905061244e60008301846123a3565b92915050565b61245d81612134565b811461246857600080fd5b50565b60008135905061247a81612454565b92915050565b60008060408385031215612497576124966120a5565b5b60006124a5858286016122fb565b92505060206124b68582860161246b565b9150509250929050565b600080fd5b600080fd5b7f4e487b7100000000000000000000000000000000000000000000000000000000600052604160045260246000fd5b612502826121b9565b810181811067ffffffffffffffff82111715612521576125206124ca565b5b80604052505050565b600061253461209b565b905061254082826124f9565b919050565b600067ffffffffffffffff8211156125605761255f6124ca565b5b612569826121b9565b9050602081019050919050565b82818337600083830152505050565b600061259861259384612545565b61252a565b9050828152602081018484840111156125b4576125b36124c5565b5b6125bf848285612576565b509392505050565b600082601f8301126125dc576125db6124c0565b5b81356125ec848260208601612585565b91505092915050565b600080600080600060a08688031215612611576126106120a5565b5b600061261f888289016122fb565b955050602061263088828901612246565b945050604086013567ffffffffffffffff811115612651576126506120aa565b5b61265d888289016125c7565b935050606086013567ffffffffffffffff81111561267e5761267d6120aa565b5b61268a888289016125c7565b925050608086013567ffffffffffffffff8111156126ab576126aa6120aa565b5b6126b7888289016125c7565b9150509295509295909350565b600067ffffffffffffffff8211156126df576126de6124ca565b5b6126e8826121b9565b9050602081019050919050565b6000612708612703846126c4565b61252a565b905082815260208101848484011115612724576127236124c5565b5b61272f848285612576565b509392505050565b600082601f83011261274c5761274b6124c0565b5b813561275c8482602086016126f5565b91505092915050565b6000806000806080858703121561277f5761277e6120a5565b5b600061278d878288016122fb565b945050602061279e878288016122fb565b93505060406127af87828801612246565b925050606085013567ffffffffffffffff8111156127d0576127cf6120aa565b5b6127dc87828801612737565b91505092959194509250565b600080604083850312156127ff576127fe6120a5565b5b600061280d858286016122fb565b925050602061281e858286016122fb565b9150509250929050565b7f4e487b7100000000000000000000000000000000000000000000000000000000600052602260045260246000fd5b6000600282049050600182168061286f57607f821691505b6020821081141561288357612882612828565b5b50919050565b7f4552433732313a20617070726f76616c20746f2063757272656e74206f776e6560008201527f7200000000000000000000000000000000000000000000000000000000000000602082015250565b60006128e5602183612175565b91506128f082612889565b604082019050919050565b60006020820190508181036000830152612914816128d8565b9050919050565b7f4552433732313a20617070726f76652063616c6c6572206973206e6f7420746f60008201527f6b656e206f776e6572206e6f7220617070726f76656420666f7220616c6c0000602082015250565b6000612977603e83612175565b91506129828261291b565b604082019050919050565b600060208201905081810360008301526129a68161296a565b9050919050565b7f4552433732313a2063616c6c6572206973206e6f7420746f6b656e206f776e6560008201527f72206e6f7220617070726f766564000000000000000000000000000000000000602082015250565b6000612a09602e83612175565b9150612a14826129ad565b604082019050919050565b60006020820190508181036000830152612a38816129fc565b9050919050565b7f4552433732313a20696e76616c696420746f6b656e2049440000000000000000600082015250565b6000612a75601883612175565b9150612a8082612a3f565b602082019050919050565b60006020820190508181036000830152612aa481612a68565b9050919050565b7f4552433732313a2061646472657373207a65726f206973206e6f74206120766160008201527f6c6964206f776e65720000000000000000000000000000000000000000000000602082015250565b6000612b07602983612175565b9150612b1282612aab565b604082019050919050565b60006020820190508181036000830152612b3681612afa565b9050919050565b7f4e6f7420416c6c6f7765642c20596f7520617265206e6f7420637573746f6d6560008201527f7200000000000000000000000000000000000000000000000000000000000000602082015250565b6000612b99602183612175565b9150612ba482612b3d565b604082019050919050565b60006020820190508181036000830152612bc881612b8c565b9050919050565b600081905092915050565b6000612be58261216a565b612bef8185612bcf565b9350612bff818560208601612186565b80840191505092915050565b6000612c178285612bda565b9150612c238284612bda565b91508190509392505050565b7f4f776e61626c653a206e6577206f776e657220697320746865207a65726f206160008201527f6464726573730000000000000000000000000000000000000000000000000000602082015250565b6000612c8b602683612175565b9150612c9682612c2f565b604082019050919050565b60006020820190508181036000830152612cba81612c7e565b9050919050565b7f4552433732313a207472616e736665722066726f6d20696e636f72726563742060008201527f6f776e6572000000000000000000000000000000000000000000000000000000602082015250565b6000612d1d602583612175565b9150612d2882612cc1565b604082019050919050565b60006020820190508181036000830152612d4c81612d10565b9050919050565b7f4552433732313a207472616e7366657220746f20746865207a65726f2061646460008201527f7265737300000000000000000000000000000000000000000000000000000000602082015250565b6000612daf602483612175565b9150612dba82612d53565b604082019050919050565b60006020820190508181036000830152612dde81612da2565b9050919050565b7f4e487b7100000000000000000000000000000000000000000000000000000000600052601160045260246000fd5b6000612e1f82612225565b9150612e2a83612225565b925082821015612e3d57612e3c612de5565b5b828203905092915050565b6000612e5382612225565b9150612e5e83612225565b9250827fffffffffffffffffffffffffffffffffffffffffffffffffffffffffffffffff03821115612e9357612e92612de5565b5b828201905092915050565b7f4f776e61626c653a2063616c6c6572206973206e6f7420746865206f776e6572600082015250565b6000612ed4602083612175565b9150612edf82612e9e565b602082019050919050565b60006020820190508181036000830152612f0381612ec7565b9050919050565b7f4552433732313a20617070726f766520746f2063616c6c657200000000000000600082015250565b6000612f40601983612175565b9150612f4b82612f0a565b602082019050919050565b60006020820190508181036000830152612f6f81612f33565b9050919050565b7f4e487b7100000000000000000000000000000000000000000000000000000000600052603260045260246000fd5b6000612fb082612225565b91507fffffffffffffffffffffffffffffffffffffffffffffffffffffffffffffffff821415612fe357612fe2612de5565b5b600182019050919050565b7f4552433732313a206d696e7420746f20746865207a65726f2061646472657373600082015250565b6000613024602083612175565b915061302f82612fee565b602082019050919050565b6000602082019050818103600083015261305381613017565b9050919050565b7f4552433732313a20746f6b656e20616c7265616479206d696e74656400000000600082015250565b6000613090601c83612175565b915061309b8261305a565b602082019050919050565b600060208201905081810360008301526130bf81613083565b9050919050565b7f45524337323155524953746f726167653a2055524920736574206f66206e6f6e60008201527f6578697374656e7420746f6b656e000000000000000000000000000000000000602082015250565b6000613122602e83612175565b915061312d826130c6565b604082019050919050565b6000602082019050818103600083015261315181613115565b9050919050565b7f4552433732313a207472616e7366657220746f206e6f6e20455243373231526560008201527f63656976657220696d706c656d656e7465720000000000000000000000000000602082015250565b60006131b4603283612175565b91506131bf82613158565b604082019050919050565b600060208201905081810360008301526131e3816131a7565b9050919050565b600081519050919050565b600082825260208201905092915050565b6000613211826131ea565b61321b81856131f5565b935061322b818560208601612186565b613234816121b9565b840191505092915050565b600060808201905061325460008301876122ba565b61326160208301866122ba565b61326e60408301856123a3565b81810360608301526132808184613206565b905095945050505050565b60008151905061329a816120db565b92915050565b6000602082840312156132b6576132b56120a5565b5b60006132c48482850161328b565b91505092915050565b7f4e487b7100000000000000000000000000000000000000000000000000000000600052601260045260246000fd5b600061330782612225565b915061331283612225565b925082613322576133216132cd565b5b828204905092915050565b600061333882612225565b915061334383612225565b925082613353576133526132cd565b5b82820690509291505056fea2646970667358221220d99965fd06fc38a37eefd36823580f33331d35a7b7a1a5de561a2e7445f36d1764736f6c63430008080033",
  "linkReferences": {},
  "deployedLinkReferences": {}
}