{
  "_format": "hh-sol-artifact-1",
  "contractName": "WarrantyNFT",
  "sourceName": "contracts/WarrantyTest.sol",
  "abi": [
    {
      "inputs": [
        {
          "internalType": "address",
          "name": "sellerId",
          "type": "address"
        },
        {
          "internalType": "string",
          "name": "NFTName",
          "type": "string"
        },
        {
          "internalType": "string",
          "name": "NFTSymbol",
          "type": "string"
        }
      ],
      "stateMutability": "nonpayable",
      "type": "constructor"
    },
    {
      "inputs": [],
      "name": "WarrantyNFT__AlreadyIssuedNFT",
      "type": "error"
    },
    {
      "inputs": [],
      "name": "WarrantyNFT__alreadyExists",
      "type": "error"
    },
    {
      "inputs": [],
      "name": "WarrantyNFT__orderNotFound",
      "type": "error"
    },
    {
      "anonymous": false,
      "inputs": [
        {
          "indexed": true,
          "internalType": "address",
          "name": "owner",
          "type": "address"
        },
        {
          "indexed": true,
          "internalType": "address",
          "name": "approved",
          "type": "address"
        },
        {
          "indexed": true,
          "internalType": "uint256",
          "name": "tokenId",
          "type": "uint256"
        }
      ],
      "name": "Approval",
      "type": "event"
    },
    {
      "anonymous": false,
      "inputs": [
        {
          "indexed": true,
          "internalType": "address",
          "name": "owner",
          "type": "address"
        },
        {
          "indexed": true,
          "internalType": "address",
          "name": "operator",
          "type": "address"
        },
        {
          "indexed": false,
          "internalType": "bool",
          "name": "approved",
          "type": "bool"
        }
      ],
      "name": "ApprovalForAll",
      "type": "event"
    },
    {
      "anonymous": false,
      "inputs": [
        {
          "indexed": false,
          "internalType": "uint256",
          "name": "tokenId",
          "type": "uint256"
        },
        {
          "indexed": false,
          "internalType": "address",
          "name": "owner",
          "type": "address"
        }
      ],
      "name": "NFTMinted",
      "type": "event"
    },
    {
      "anonymous": false,
      "inputs": [
        {
          "indexed": true,
          "internalType": "address",
          "name": "from",
          "type": "address"
        },
        {
          "indexed": true,
          "internalType": "address",
          "name": "to",
          "type": "address"
        },
        {
          "indexed": true,
          "internalType": "uint256",
          "name": "tokenId",
          "type": "uint256"
        }
      ],
      "name": "Transfer",
      "type": "event"
    },
    {
      "inputs": [
        {
          "internalType": "uint256",
          "name": "",
          "type": "uint256"
        }
      ],
      "name": "NftTokenToData",
      "outputs": [
        {
          "internalType": "uint256",
          "name": "tokenId",
          "type": "uint256"
        },
        {
          "internalType": "uint256",
          "name": "expiry",
          "type": "uint256"
        },
        {
          "internalType": "string",
          "name": "tokenURI",
          "type": "string"
        },
        {
          "internalType": "string",
          "name": "expireTokenURI",
          "type": "string"
        },
        {
          "internalType": "uint256",
          "name": "timeStamp",
          "type": "uint256"
        },
        {
          "internalType": "bool",
          "name": "expired",
          "type": "bool"
        }
      ],
      "stateMutability": "view",
      "type": "function"
    },
    {
      "inputs": [
        {
          "internalType": "address",
          "name": "to",
          "type": "address"
        },
        {
          "internalType": "uint256",
          "name": "tokenId",
          "type": "uint256"
        }
      ],
      "name": "approve",
      "outputs": [],
      "stateMutability": "nonpayable",
      "type": "function"
    },
    {
      "inputs": [
        {
          "internalType": "address",
          "name": "owner",
          "type": "address"
        }
      ],
      "name": "balanceOf",
      "outputs": [
        {
          "internalType": "uint256",
          "name": "",
          "type": "uint256"
        }
      ],
      "stateMutability": "view",
      "type": "function"
    },
    {
      "inputs": [
        {
          "internalType": "uint256",
          "name": "tokenId",
          "type": "uint256"
        }
      ],
      "name": "getApproved",
      "outputs": [
        {
          "internalType": "address",
          "name": "",
          "type": "address"
        }
      ],
      "stateMutability": "view",
      "type": "function"
    },
    {
      "inputs": [
        {
          "internalType": "address",
          "name": "owner",
          "type": "address"
        },
        {
          "internalType": "address",
          "name": "operator",
          "type": "address"
        }
      ],
      "name": "isApprovedForAll",
      "outputs": [
        {
          "internalType": "bool",
          "name": "",
          "type": "bool"
        }
      ],
      "stateMutability": "view",
      "type": "function"
    },
    {
      "inputs": [
        {
          "internalType": "address",
          "name": "customer",
          "type": "address"
        },
        {
          "internalType": "uint256",
          "name": "orderId",
          "type": "uint256"
        },
        {
          "internalType": "string",
          "name": "tokenURI",
          "type": "string"
        },
        {
          "internalType": "string",
          "name": "expireTokenURI",
          "type": "string"
        },
        {
          "internalType": "uint256",
          "name": "expiry",
          "type": "uint256"
        }
      ],
      "name": "mintWarrantyNFT",
      "outputs": [],
      "stateMutability": "nonpayable",
      "type": "function"
    },
    {
      "inputs": [],
      "name": "name",
      "outputs": [
        {
          "internalType": "string",
          "name": "",
          "type": "string"
        }
      ],
      "stateMutability": "view",
      "type": "function"
    },
    {
      "inputs": [
        {
          "internalType": "uint256",
          "name": "tokenId",
          "type": "uint256"
        }
      ],
      "name": "ownerOf",
      "outputs": [
        {
          "internalType": "address",
          "name": "",
          "type": "address"
        }
      ],
      "stateMutability": "view",
      "type": "function"
    },
    {
      "inputs": [
        {
          "internalType": "uint256",
          "name": "orderId",
          "type": "uint256"
        }
      ],
      "name": "placeOrder",
      "outputs": [],
      "stateMutability": "nonpayable",
      "type": "function"
    },
    {
      "inputs": [
        {
          "internalType": "address",
          "name": "from",
          "type": "address"
        },
        {
          "internalType": "address",
          "name": "to",
          "type": "address"
        },
        {
          "internalType": "uint256",
          "name": "tokenId",
          "type": "uint256"
        }
      ],
      "name": "safeTransferFrom",
      "outputs": [],
      "stateMutability": "nonpayable",
      "type": "function"
    },
    {
      "inputs": [
        {
          "internalType": "address",
          "name": "from",
          "type": "address"
        },
        {
          "internalType": "address",
          "name": "to",
          "type": "address"
        },
        {
          "internalType": "uint256",
          "name": "tokenId",
          "type": "uint256"
        },
        {
          "internalType": "bytes",
          "name": "data",
          "type": "bytes"
        }
      ],
      "name": "safeTransferFrom",
      "outputs": [],
      "stateMutability": "nonpayable",
      "type": "function"
    },
    {
      "inputs": [
        {
          "internalType": "address",
          "name": "operator",
          "type": "address"
        },
        {
          "internalType": "bool",
          "name": "approved",
          "type": "bool"
        }
      ],
      "name": "setApprovalForAll",
      "outputs": [],
      "stateMutability": "nonpayable",
      "type": "function"
    },
    {
      "inputs": [
        {
          "internalType": "bytes4",
          "name": "interfaceId",
          "type": "bytes4"
        }
      ],
      "name": "supportsInterface",
      "outputs": [
        {
          "internalType": "bool",
          "name": "",
          "type": "bool"
        }
      ],
      "stateMutability": "view",
      "type": "function"
    },
    {
      "inputs": [],
      "name": "symbol",
      "outputs": [
        {
          "internalType": "string",
          "name": "",
          "type": "string"
        }
      ],
      "stateMutability": "view",
      "type": "function"
    },
    {
      "inputs": [
        {
          "internalType": "uint256",
          "name": "tokenId",
          "type": "uint256"
        }
      ],
      "name": "tokenURI",
      "outputs": [
        {
          "internalType": "string",
          "name": "",
          "type": "string"
        }
      ],
      "stateMutability": "view",
      "type": "function"
    },
    {
      "inputs": [
        {
          "internalType": "address",
          "name": "from",
          "type": "address"
        },
        {
          "internalType": "address",
          "name": "to",
          "type": "address"
        },
        {
          "internalType": "uint256",
          "name": "tokenId",
          "type": "uint256"
        }
      ],
      "name": "transferFrom",
      "outputs": [],
      "stateMutability": "nonpayable",
      "type": "function"
    }
  ],
  "bytecode": "0x60a06040523480156200001157600080fd5b50604051620031d9380380620031d983398181016040528101906200003791906200035f565b8181816000908051906020019062000051929190620000ad565b5080600190805190602001906200006a929190620000ad565b5050508273ffffffffffffffffffffffffffffffffffffffff1660808173ffffffffffffffffffffffffffffffffffffffff1660601b815250505050506200045e565b828054620000bb9062000428565b90600052602060002090601f016020900481019282620000df57600085556200012b565b82601f10620000fa57805160ff19168380011785556200012b565b828001600101855582156200012b579182015b828111156200012a5782518255916020019190600101906200010d565b5b5090506200013a91906200013e565b5090565b5b80821115620001595760008160009055506001016200013f565b5090565b6000604051905090565b600080fd5b600080fd5b600073ffffffffffffffffffffffffffffffffffffffff82169050919050565b60006200019e8262000171565b9050919050565b620001b08162000191565b8114620001bc57600080fd5b50565b600081519050620001d081620001a5565b92915050565b600080fd5b600080fd5b6000601f19601f8301169050919050565b7f4e487b7100000000000000000000000000000000000000000000000000000000600052604160045260246000fd5b6200022b82620001e0565b810181811067ffffffffffffffff821117156200024d576200024c620001f1565b5b80604052505050565b6000620002626200015d565b905062000270828262000220565b919050565b600067ffffffffffffffff821115620002935762000292620001f1565b5b6200029e82620001e0565b9050602081019050919050565b60005b83811015620002cb578082015181840152602081019050620002ae565b83811115620002db576000848401525b50505050565b6000620002f8620002f28462000275565b62000256565b905082815260208101848484011115620003175762000316620001db565b5b62000324848285620002ab565b509392505050565b600082601f830112620003445762000343620001d6565b5b815162000356848260208601620002e1565b91505092915050565b6000806000606084860312156200037b576200037a62000167565b5b60006200038b86828701620001bf565b935050602084015167ffffffffffffffff811115620003af57620003ae6200016c565b5b620003bd868287016200032c565b925050604084015167ffffffffffffffff811115620003e157620003e06200016c565b5b620003ef868287016200032c565b9150509250925092565b7f4e487b7100000000000000000000000000000000000000000000000000000000600052602260045260246000fd5b600060028204905060018216806200044157607f821691505b60208210811415620004585762000457620003f9565b5b50919050565b60805160601c612d5f6200047a60003960005050612d5f6000f3fe608060405234801561001057600080fd5b50600436106101005760003560e01c806370a0823111610097578063ba2255f411610066578063ba2255f4146102c2578063c4d73c9d146102de578063c87b56dd146102fa578063e985e9c51461032a57610100565b806370a082311461023c57806395d89b411461026c578063a22cb4651461028a578063b88d4fde146102a657610100565b806323b872dd116100d357806323b872dd1461019f57806342842e0e146101bb5780635e1f6edc146101d75780636352211e1461020c57610100565b806301ffc9a71461010557806306fdde0314610135578063081812fc14610153578063095ea7b314610183575b600080fd5b61011f600480360381019061011a9190611d31565b61035a565b60405161012c9190611d79565b60405180910390f35b61013d61043c565b60405161014a9190611e2d565b60405180910390f35b61016d60048036038101906101689190611e85565b6104ce565b60405161017a9190611ef3565b60405180910390f35b61019d60048036038101906101989190611f3a565b610514565b005b6101b960048036038101906101b49190611f7a565b61062c565b005b6101d560048036038101906101d09190611f7a565b61068c565b005b6101f160048036038101906101ec9190611e85565b6106ac565b60405161020396959493929190611fdc565b60405180910390f35b61022660048036038101906102219190611e85565b610805565b6040516102339190611ef3565b60405180910390f35b6102566004803603810190610251919061204b565b6108b7565b6040516102639190612078565b60405180910390f35b61027461096f565b6040516102819190611e2d565b60405180910390f35b6102a4600480360381019061029f91906120bf565b610a01565b005b6102c060048036038101906102bb9190612234565b610a17565b005b6102dc60048036038101906102d79190611e85565b610a79565b005b6102f860048036038101906102f39190612358565b610bb6565b005b610314600480360381019061030f9190611e85565b610e94565b6040516103219190611e2d565b60405180910390f35b610344600480360381019061033f919061240b565b611052565b6040516103519190611d79565b60405180910390f35b60007f80ac58cd000000000000000000000000000000000000000000000000000000007bffffffffffffffffffffffffffffffffffffffffffffffffffffffff1916827bffffffffffffffffffffffffffffffffffffffffffffffffffffffff1916148061042557507f5b5e139f000000000000000000000000000000000000000000000000000000007bffffffffffffffffffffffffffffffffffffffffffffffffffffffff1916827bffffffffffffffffffffffffffffffffffffffffffffffffffffffff1916145b806104355750610434826110e6565b5b9050919050565b60606000805461044b9061247a565b80601f01602080910402602001604051908101604052809291908181526020018280546104779061247a565b80156104c45780601f10610499576101008083540402835291602001916104c4565b820191906000526020600020905b8154815290600101906020018083116104a757829003601f168201915b5050505050905090565b60006104d982611150565b6004600083815260200190815260200160002060009054906101000a900473ffffffffffffffffffffffffffffffffffffffff169050919050565b600061051f82610805565b90508073ffffffffffffffffffffffffffffffffffffffff168373ffffffffffffffffffffffffffffffffffffffff161415610590576040517f08c379a00000000000000000000000000000000000000000000000000000000081526004016105879061251e565b60405180910390fd5b8073ffffffffffffffffffffffffffffffffffffffff166105af61119b565b73ffffffffffffffffffffffffffffffffffffffff1614806105de57506105dd816105d861119b565b611052565b5b61061d576040517f08c379a0000000000000000000000000000000000000000000000000000000008152600401610614906125b0565b60405180910390fd5b61062783836111a3565b505050565b61063d61063761119b565b8261125c565b61067c576040517f08c379a000000000000000000000000000000000000000000000000000000000815260040161067390612642565b60405180910390fd5b6106878383836112f1565b505050565b6106a783838360405180602001604052806000815250610a17565b505050565b60086020528060005260406000206000915090508060000154908060010154908060020180546106db9061247a565b80601f01602080910402602001604051908101604052809291908181526020018280546107079061247a565b80156107545780601f1061072957610100808354040283529160200191610754565b820191906000526020600020905b81548152906001019060200180831161073757829003601f168201915b5050505050908060030180546107699061247a565b80601f01602080910402602001604051908101604052809291908181526020018280546107959061247a565b80156107e25780601f106107b7576101008083540402835291602001916107e2565b820191906000526020600020905b8154815290600101906020018083116107c557829003601f168201915b5050505050908060040154908060050160009054906101000a900460ff16905086565b6000806002600084815260200190815260200160002060009054906101000a900473ffffffffffffffffffffffffffffffffffffffff169050600073ffffffffffffffffffffffffffffffffffffffff168173ffffffffffffffffffffffffffffffffffffffff1614156108ae576040517f08c379a00000000000000000000000000000000000000000000000000000000081526004016108a5906126ae565b60405180910390fd5b80915050919050565b60008073ffffffffffffffffffffffffffffffffffffffff168273ffffffffffffffffffffffffffffffffffffffff161415610928576040517f08c379a000000000000000000000000000000000000000000000000000000000815260040161091f90612740565b60405180910390fd5b600360008373ffffffffffffffffffffffffffffffffffffffff1673ffffffffffffffffffffffffffffffffffffffff168152602001908152602001600020549050919050565b60606001805461097e9061247a565b80601f01602080910402602001604051908101604052809291908181526020018280546109aa9061247a565b80156109f75780601f106109cc576101008083540402835291602001916109f7565b820191906000526020600020905b8154815290600101906020018083116109da57829003601f168201915b5050505050905090565b610a13610a0c61119b565b8383611558565b5050565b610a28610a2261119b565b8361125c565b610a67576040517f08c379a0000000000000000000000000000000000000000000000000000000008152600401610a5e90612642565b60405180910390fd5b610a73848484846116c5565b50505050565b6000610b12600760003373ffffffffffffffffffffffffffffffffffffffff1673ffffffffffffffffffffffffffffffffffffffff168152602001908152602001600020805480602002602001604051908101604052809291908181526020018280548015610b0757602002820191906000526020600020905b815481526020019060010190808311610af3575b505050505083611721565b90508015610b4c576040517fa3dc114a00000000000000000000000000000000000000000000000000000000815260040160405180910390fd5b600760003373ffffffffffffffffffffffffffffffffffffffff1673ffffffffffffffffffffffffffffffffffffffff1681526020019081526020016000208290806001815401808255809150506001900390600052602060002001600090919091909150555050565b6000600760003373ffffffffffffffffffffffffffffffffffffffff1673ffffffffffffffffffffffffffffffffffffffff1681526020019081526020016000208054905011610c3b576040517f08c379a0000000000000000000000000000000000000000000000000000000008152600401610c32906127d2565b60405180910390fd5b6000610cd4600760008873ffffffffffffffffffffffffffffffffffffffff1673ffffffffffffffffffffffffffffffffffffffff168152602001908152602001600020805480602002602001604051908101604052809291908181526020018280548015610cc957602002820191906000526020600020905b815481526020019060010190808311610cb5575b505050505086611721565b905080610d0d576040517f4ec6212e00000000000000000000000000000000000000000000000000000000815260040160405180910390fd5b6000600960008781526020019081526020016000205414610d5a576040517f3263593f00000000000000000000000000000000000000000000000000000000815260040160405180910390fd5b610d64600661177b565b6000610d706006611791565b9050610d7c878261179f565b6040518060c00160405280828152602001848152602001868152602001858152602001428152602001600015158152506008600083815260200190815260200160002060008201518160000155602082015181600101556040820151816002019080519060200190610def929190611c22565b506060820151816003019080519060200190610e0c929190611c22565b506080820151816004015560a08201518160050160006101000a81548160ff0219169083151502179055509050508060096000888152602001908152602001600020819055507f0176f203df400d7bd5f1b1c9ef36c16709bf3b5d9fd35f000a6bae32393f66c38188604051610e839291906127f2565b60405180910390a150505050505050565b60606000600860008481526020019081526020016000206040518060c00160405290816000820154815260200160018201548152602001600282018054610eda9061247a565b80601f0160208091040260200160405190810160405280929190818152602001828054610f069061247a565b8015610f535780601f10610f2857610100808354040283529160200191610f53565b820191906000526020600020905b815481529060010190602001808311610f3657829003601f168201915b50505050508152602001600382018054610f6c9061247a565b80601f0160208091040260200160405190810160405280929190818152602001828054610f989061247a565b8015610fe55780601f10610fba57610100808354040283529160200191610fe5565b820191906000526020600020905b815481529060010190602001808311610fc857829003601f168201915b50505050508152602001600482015481526020016005820160009054906101000a900460ff16151515158152505090506000816020015182608001514261102c919061284a565b11905080156110435781606001519250505061104d565b8160400151925050505b919050565b6000600560008473ffffffffffffffffffffffffffffffffffffffff1673ffffffffffffffffffffffffffffffffffffffff16815260200190815260200160002060008373ffffffffffffffffffffffffffffffffffffffff1673ffffffffffffffffffffffffffffffffffffffff16815260200190815260200160002060009054906101000a900460ff16905092915050565b60007f01ffc9a7000000000000000000000000000000000000000000000000000000007bffffffffffffffffffffffffffffffffffffffffffffffffffffffff1916827bffffffffffffffffffffffffffffffffffffffffffffffffffffffff1916149050919050565b611159816117bd565b611198576040517f08c379a000000000000000000000000000000000000000000000000000000000815260040161118f906126ae565b60405180910390fd5b50565b600033905090565b816004600083815260200190815260200160002060006101000a81548173ffffffffffffffffffffffffffffffffffffffff021916908373ffffffffffffffffffffffffffffffffffffffff160217905550808273ffffffffffffffffffffffffffffffffffffffff1661121683610805565b73ffffffffffffffffffffffffffffffffffffffff167f8c5be1e5ebec7d5bd14f71427d1e84f3dd0314c0f7b2291e5b200ac8c7c3b92560405160405180910390a45050565b60008061126883610805565b90508073ffffffffffffffffffffffffffffffffffffffff168473ffffffffffffffffffffffffffffffffffffffff1614806112aa57506112a98185611052565b5b806112e857508373ffffffffffffffffffffffffffffffffffffffff166112d0846104ce565b73ffffffffffffffffffffffffffffffffffffffff16145b91505092915050565b8273ffffffffffffffffffffffffffffffffffffffff1661131182610805565b73ffffffffffffffffffffffffffffffffffffffff1614611367576040517f08c379a000000000000000000000000000000000000000000000000000000000815260040161135e906128f0565b60405180910390fd5b600073ffffffffffffffffffffffffffffffffffffffff168273ffffffffffffffffffffffffffffffffffffffff1614156113d7576040517f08c379a00000000000000000000000000000000000000000000000000000000081526004016113ce90612982565b60405180910390fd5b6113e2838383611829565b6113ed6000826111a3565b6001600360008573ffffffffffffffffffffffffffffffffffffffff1673ffffffffffffffffffffffffffffffffffffffff168152602001908152602001600020600082825461143d919061284a565b925050819055506001600360008473ffffffffffffffffffffffffffffffffffffffff1673ffffffffffffffffffffffffffffffffffffffff168152602001908152602001600020600082825461149491906129a2565b92505081905550816002600083815260200190815260200160002060006101000a81548173ffffffffffffffffffffffffffffffffffffffff021916908373ffffffffffffffffffffffffffffffffffffffff160217905550808273ffffffffffffffffffffffffffffffffffffffff168473ffffffffffffffffffffffffffffffffffffffff167fddf252ad1be2c89b69c2b068fc378daa952ba7f163c4a11628f55a4df523b3ef60405160405180910390a461155383838361182e565b505050565b8173ffffffffffffffffffffffffffffffffffffffff168373ffffffffffffffffffffffffffffffffffffffff1614156115c7576040517f08c379a00000000000000000000000000000000000000000000000000000000081526004016115be90612a44565b60405180910390fd5b80600560008573ffffffffffffffffffffffffffffffffffffffff1673ffffffffffffffffffffffffffffffffffffffff16815260200190815260200160002060008473ffffffffffffffffffffffffffffffffffffffff1673ffffffffffffffffffffffffffffffffffffffff16815260200190815260200160002060006101000a81548160ff0219169083151502179055508173ffffffffffffffffffffffffffffffffffffffff168373ffffffffffffffffffffffffffffffffffffffff167f17307eab39ab6107e8899845ad3d59bd9653f200f220920489ca2b5937696c31836040516116b89190611d79565b60405180910390a3505050565b6116d08484846112f1565b6116dc84848484611833565b61171b576040517f08c379a000000000000000000000000000000000000000000000000000000000815260040161171290612ad6565b60405180910390fd5b50505050565b600080600090505b835181101561176f578284828151811061174657611745612af6565b5b6020026020010151141561175e576001915050611775565b8061176890612b25565b9050611729565b50600090505b92915050565b6001816000016000828254019250508190555050565b600081600001549050919050565b6117b98282604051806020016040528060008152506119ca565b5050565b60008073ffffffffffffffffffffffffffffffffffffffff166002600084815260200190815260200160002060009054906101000a900473ffffffffffffffffffffffffffffffffffffffff1673ffffffffffffffffffffffffffffffffffffffff1614159050919050565b505050565b505050565b60006118548473ffffffffffffffffffffffffffffffffffffffff16611a25565b156119bd578373ffffffffffffffffffffffffffffffffffffffff1663150b7a0261187d61119b565b8786866040518563ffffffff1660e01b815260040161189f9493929190612bc3565b602060405180830381600087803b1580156118b957600080fd5b505af19250505080156118ea57506040513d601f19601f820116820180604052508101906118e79190612c24565b60015b61196d573d806000811461191a576040519150601f19603f3d011682016040523d82523d6000602084013e61191f565b606091505b50600081511415611965576040517f08c379a000000000000000000000000000000000000000000000000000000000815260040161195c90612ad6565b60405180910390fd5b805181602001fd5b63150b7a0260e01b7bffffffffffffffffffffffffffffffffffffffffffffffffffffffff1916817bffffffffffffffffffffffffffffffffffffffffffffffffffffffff1916149150506119c2565b600190505b949350505050565b6119d48383611a48565b6119e16000848484611833565b611a20576040517f08c379a0000000000000000000000000000000000000000000000000000000008152600401611a1790612ad6565b60405180910390fd5b505050565b6000808273ffffffffffffffffffffffffffffffffffffffff163b119050919050565b600073ffffffffffffffffffffffffffffffffffffffff168273ffffffffffffffffffffffffffffffffffffffff161415611ab8576040517f08c379a0000000000000000000000000000000000000000000000000000000008152600401611aaf90612c9d565b60405180910390fd5b611ac1816117bd565b15611b01576040517f08c379a0000000000000000000000000000000000000000000000000000000008152600401611af890612d09565b60405180910390fd5b611b0d60008383611829565b6001600360008473ffffffffffffffffffffffffffffffffffffffff1673ffffffffffffffffffffffffffffffffffffffff1681526020019081526020016000206000828254611b5d91906129a2565b92505081905550816002600083815260200190815260200160002060006101000a81548173ffffffffffffffffffffffffffffffffffffffff021916908373ffffffffffffffffffffffffffffffffffffffff160217905550808273ffffffffffffffffffffffffffffffffffffffff16600073ffffffffffffffffffffffffffffffffffffffff167fddf252ad1be2c89b69c2b068fc378daa952ba7f163c4a11628f55a4df523b3ef60405160405180910390a4611c1e6000838361182e565b5050565b828054611c2e9061247a565b90600052602060002090601f016020900481019282611c505760008555611c97565b82601f10611c6957805160ff1916838001178555611c97565b82800160010185558215611c97579182015b82811115611c96578251825591602001919060010190611c7b565b5b509050611ca49190611ca8565b5090565b5b80821115611cc1576000816000905550600101611ca9565b5090565b6000604051905090565b600080fd5b600080fd5b60007fffffffff0000000000000000000000000000000000000000000000000000000082169050919050565b611d0e81611cd9565b8114611d1957600080fd5b50565b600081359050611d2b81611d05565b92915050565b600060208284031215611d4757611d46611ccf565b5b6000611d5584828501611d1c565b91505092915050565b60008115159050919050565b611d7381611d5e565b82525050565b6000602082019050611d8e6000830184611d6a565b92915050565b600081519050919050565b600082825260208201905092915050565b60005b83811015611dce578082015181840152602081019050611db3565b83811115611ddd576000848401525b50505050565b6000601f19601f8301169050919050565b6000611dff82611d94565b611e098185611d9f565b9350611e19818560208601611db0565b611e2281611de3565b840191505092915050565b60006020820190508181036000830152611e478184611df4565b905092915050565b6000819050919050565b611e6281611e4f565b8114611e6d57600080fd5b50565b600081359050611e7f81611e59565b92915050565b600060208284031215611e9b57611e9a611ccf565b5b6000611ea984828501611e70565b91505092915050565b600073ffffffffffffffffffffffffffffffffffffffff82169050919050565b6000611edd82611eb2565b9050919050565b611eed81611ed2565b82525050565b6000602082019050611f086000830184611ee4565b92915050565b611f1781611ed2565b8114611f2257600080fd5b50565b600081359050611f3481611f0e565b92915050565b60008060408385031215611f5157611f50611ccf565b5b6000611f5f85828601611f25565b9250506020611f7085828601611e70565b9150509250929050565b600080600060608486031215611f9357611f92611ccf565b5b6000611fa186828701611f25565b9350506020611fb286828701611f25565b9250506040611fc386828701611e70565b9150509250925092565b611fd681611e4f565b82525050565b600060c082019050611ff16000830189611fcd565b611ffe6020830188611fcd565b81810360408301526120108187611df4565b905081810360608301526120248186611df4565b90506120336080830185611fcd565b61204060a0830184611d6a565b979650505050505050565b60006020828403121561206157612060611ccf565b5b600061206f84828501611f25565b91505092915050565b600060208201905061208d6000830184611fcd565b92915050565b61209c81611d5e565b81146120a757600080fd5b50565b6000813590506120b981612093565b92915050565b600080604083850312156120d6576120d5611ccf565b5b60006120e485828601611f25565b92505060206120f5858286016120aa565b9150509250929050565b600080fd5b600080fd5b7f4e487b7100000000000000000000000000000000000000000000000000000000600052604160045260246000fd5b61214182611de3565b810181811067ffffffffffffffff821117156121605761215f612109565b5b80604052505050565b6000612173611cc5565b905061217f8282612138565b919050565b600067ffffffffffffffff82111561219f5761219e612109565b5b6121a882611de3565b9050602081019050919050565b82818337600083830152505050565b60006121d76121d284612184565b612169565b9050828152602081018484840111156121f3576121f2612104565b5b6121fe8482856121b5565b509392505050565b600082601f83011261221b5761221a6120ff565b5b813561222b8482602086016121c4565b91505092915050565b6000806000806080858703121561224e5761224d611ccf565b5b600061225c87828801611f25565b945050602061226d87828801611f25565b935050604061227e87828801611e70565b925050606085013567ffffffffffffffff81111561229f5761229e611cd4565b5b6122ab87828801612206565b91505092959194509250565b600067ffffffffffffffff8211156122d2576122d1612109565b5b6122db82611de3565b9050602081019050919050565b60006122fb6122f6846122b7565b612169565b90508281526020810184848401111561231757612316612104565b5b6123228482856121b5565b509392505050565b600082601f83011261233f5761233e6120ff565b5b813561234f8482602086016122e8565b91505092915050565b600080600080600060a0868803121561237457612373611ccf565b5b600061238288828901611f25565b955050602061239388828901611e70565b945050604086013567ffffffffffffffff8111156123b4576123b3611cd4565b5b6123c08882890161232a565b935050606086013567ffffffffffffffff8111156123e1576123e0611cd4565b5b6123ed8882890161232a565b92505060806123fe88828901611e70565b9150509295509295909350565b6000806040838503121561242257612421611ccf565b5b600061243085828601611f25565b925050602061244185828601611f25565b9150509250929050565b7f4e487b7100000000000000000000000000000000000000000000000000000000600052602260045260246000fd5b6000600282049050600182168061249257607f821691505b602082108114156124a6576124a561244b565b5b50919050565b7f4552433732313a20617070726f76616c20746f2063757272656e74206f776e6560008201527f7200000000000000000000000000000000000000000000000000000000000000602082015250565b6000612508602183611d9f565b9150612513826124ac565b604082019050919050565b60006020820190508181036000830152612537816124fb565b9050919050565b7f4552433732313a20617070726f76652063616c6c6572206973206e6f7420746f60008201527f6b656e206f776e6572206e6f7220617070726f76656420666f7220616c6c0000602082015250565b600061259a603e83611d9f565b91506125a58261253e565b604082019050919050565b600060208201905081810360008301526125c98161258d565b9050919050565b7f4552433732313a2063616c6c6572206973206e6f7420746f6b656e206f776e6560008201527f72206e6f7220617070726f766564000000000000000000000000000000000000602082015250565b600061262c602e83611d9f565b9150612637826125d0565b604082019050919050565b6000602082019050818103600083015261265b8161261f565b9050919050565b7f4552433732313a20696e76616c696420746f6b656e2049440000000000000000600082015250565b6000612698601883611d9f565b91506126a382612662565b602082019050919050565b600060208201905081810360008301526126c78161268b565b9050919050565b7f4552433732313a2061646472657373207a65726f206973206e6f74206120766160008201527f6c6964206f776e65720000000000000000000000000000000000000000000000602082015250565b600061272a602983611d9f565b9150612735826126ce565b604082019050919050565b600060208201905081810360008301526127598161271d565b9050919050565b7f4e6f7420416c6c6f7765642c20596f7520617265206e6f7420637573746f6d6560008201527f7200000000000000000000000000000000000000000000000000000000000000602082015250565b60006127bc602183611d9f565b91506127c782612760565b604082019050919050565b600060208201905081810360008301526127eb816127af565b9050919050565b60006040820190506128076000830185611fcd565b6128146020830184611ee4565b9392505050565b7f4e487b7100000000000000000000000000000000000000000000000000000000600052601160045260246000fd5b600061285582611e4f565b915061286083611e4f565b9250828210156128735761287261281b565b5b828203905092915050565b7f4552433732313a207472616e736665722066726f6d20696e636f72726563742060008201527f6f776e6572000000000000000000000000000000000000000000000000000000602082015250565b60006128da602583611d9f565b91506128e58261287e565b604082019050919050565b60006020820190508181036000830152612909816128cd565b9050919050565b7f4552433732313a207472616e7366657220746f20746865207a65726f2061646460008201527f7265737300000000000000000000000000000000000000000000000000000000602082015250565b600061296c602483611d9f565b915061297782612910565b604082019050919050565b6000602082019050818103600083015261299b8161295f565b9050919050565b60006129ad82611e4f565b91506129b883611e4f565b9250827fffffffffffffffffffffffffffffffffffffffffffffffffffffffffffffffff038211156129ed576129ec61281b565b5b828201905092915050565b7f4552433732313a20617070726f766520746f2063616c6c657200000000000000600082015250565b6000612a2e601983611d9f565b9150612a39826129f8565b602082019050919050565b60006020820190508181036000830152612a5d81612a21565b9050919050565b7f4552433732313a207472616e7366657220746f206e6f6e20455243373231526560008201527f63656976657220696d706c656d656e7465720000000000000000000000000000602082015250565b6000612ac0603283611d9f565b9150612acb82612a64565b604082019050919050565b60006020820190508181036000830152612aef81612ab3565b9050919050565b7f4e487b7100000000000000000000000000000000000000000000000000000000600052603260045260246000fd5b6000612b3082611e4f565b91507fffffffffffffffffffffffffffffffffffffffffffffffffffffffffffffffff821415612b6357612b6261281b565b5b600182019050919050565b600081519050919050565b600082825260208201905092915050565b6000612b9582612b6e565b612b9f8185612b79565b9350612baf818560208601611db0565b612bb881611de3565b840191505092915050565b6000608082019050612bd86000830187611ee4565b612be56020830186611ee4565b612bf26040830185611fcd565b8181036060830152612c048184612b8a565b905095945050505050565b600081519050612c1e81611d05565b92915050565b600060208284031215612c3a57612c39611ccf565b5b6000612c4884828501612c0f565b91505092915050565b7f4552433732313a206d696e7420746f20746865207a65726f2061646472657373600082015250565b6000612c87602083611d9f565b9150612c9282612c51565b602082019050919050565b60006020820190508181036000830152612cb681612c7a565b9050919050565b7f4552433732313a20746f6b656e20616c7265616479206d696e74656400000000600082015250565b6000612cf3601c83611d9f565b9150612cfe82612cbd565b602082019050919050565b60006020820190508181036000830152612d2281612ce6565b905091905056fea2646970667358221220ae62459a36254d9c9f0032f0e16a7579153ffe29e4e398fb961072b377f7380e64736f6c63430008080033",
  "linkReferences": {},
  "deployedLinkReferences": {}
}