{
  "address": "0x2f145BEe0E9b38D4468777e098C6e594D58249a5",
  "abi": [
    {
      "anonymous": false,
      "inputs": [
        {
          "indexed": false,
          "internalType": "uint256",
          "name": "tokenId",
          "type": "uint256"
        },
        {
          "indexed": false,
          "internalType": "address",
          "name": "owner",
          "type": "address"
        }
      ],
      "name": "NFTMinted",
      "type": "event"
    },
    {
      "inputs": [
        {
          "internalType": "address",
          "name": "sellerAddress",
          "type": "address"
        },
        {
          "internalType": "string",
          "name": "NFTName",
          "type": "string"
        },
        {
          "internalType": "string",
          "name": "NFTSymbol",
          "type": "string"
        }
      ],
      "name": "createSeller",
      "outputs": [],
      "stateMutability": "nonpayable",
      "type": "function"
    },
    {
      "inputs": [],
      "name": "getWarrantyContract",
      "outputs": [
        {
          "internalType": "contract WarrantyNFT",
          "name": "",
          "type": "address"
        }
      ],
      "stateMutability": "view",
      "type": "function"
    },
    {
      "inputs": [
        {
          "internalType": "address",
          "name": "",
          "type": "address"
        }
      ],
      "name": "sellers",
      "outputs": [
        {
          "internalType": "contract WarrantyNFT",
          "name": "WarrantyContract",
          "type": "address"
        },
        {
          "internalType": "bool",
          "name": "isValue",
          "type": "bool"
        }
      ],
      "stateMutability": "view",
      "type": "function"
    }
  ],
  "transactionHash": "0xa7f6ec7d88cc21d969574c8deea0f96badb7cad6c219760bf9780c01370e9aba",
  "args": [],
  "numDeployments": 3,
  "solcInputHash": "ec8a60253791250077c65fc452d03a4c",
  "bytecode": "0x608060405234801561001057600080fd5b50613c2f806100206000396000f3fe60806040523480156200001157600080fd5b5060043610620000465760003560e01c80634b6918c7146200004b5780636d47ab72146200006d5780639dafa2f614620000a4575b600080fd5b62000055620000c4565b60405162000064919062000338565b60405180910390f35b6200008b6004803603810190620000859190620003ae565b6200012d565b6040516200009b929190620003fd565b60405180910390f35b620000c26004803603810190620000bc91906200058c565b6200017e565b005b60008060003373ffffffffffffffffffffffffffffffffffffffff1673ffffffffffffffffffffffffffffffffffffffff16815260200190815260200160002060000160009054906101000a900473ffffffffffffffffffffffffffffffffffffffff16905090565b60006020528060005260406000206000915090508060000160009054906101000a900473ffffffffffffffffffffffffffffffffffffffff16908060000160149054906101000a900460ff16905082565b600083838360405162000191906200029f565b6200019f93929190620006ca565b604051809103906000f080158015620001bc573d6000803e3d6000fd5b509050806000808673ffffffffffffffffffffffffffffffffffffffff1673ffffffffffffffffffffffffffffffffffffffff16815260200190815260200160002060000160006101000a81548173ffffffffffffffffffffffffffffffffffffffff021916908373ffffffffffffffffffffffffffffffffffffffff16021790555060016000808673ffffffffffffffffffffffffffffffffffffffff1673ffffffffffffffffffffffffffffffffffffffff16815260200190815260200160002060000160146101000a81548160ff02191690831515021790555050505050565b6134e4806200071683390190565b600073ffffffffffffffffffffffffffffffffffffffff82169050919050565b6000819050919050565b6000620002f8620002f2620002ec84620002ad565b620002cd565b620002ad565b9050919050565b60006200030c82620002d7565b9050919050565b60006200032082620002ff565b9050919050565b620003328162000313565b82525050565b60006020820190506200034f600083018462000327565b92915050565b6000604051905090565b600080fd5b600080fd5b60006200037682620002ad565b9050919050565b620003888162000369565b81146200039457600080fd5b50565b600081359050620003a8816200037d565b92915050565b600060208284031215620003c757620003c66200035f565b5b6000620003d78482850162000397565b91505092915050565b60008115159050919050565b620003f781620003e0565b82525050565b600060408201905062000414600083018562000327565b620004236020830184620003ec565b9392505050565b600080fd5b600080fd5b6000601f19601f8301169050919050565b7f4e487b7100000000000000000000000000000000000000000000000000000000600052604160045260246000fd5b6200047f8262000434565b810181811067ffffffffffffffff82111715620004a157620004a062000445565b5b80604052505050565b6000620004b662000355565b9050620004c4828262000474565b919050565b600067ffffffffffffffff821115620004e757620004e662000445565b5b620004f28262000434565b9050602081019050919050565b82818337600083830152505050565b6000620005256200051f84620004c9565b620004aa565b9050828152602081018484840111156200054457620005436200042f565b5b62000551848285620004ff565b509392505050565b600082601f8301126200057157620005706200042a565b5b8135620005838482602086016200050e565b91505092915050565b600080600060608486031215620005a857620005a76200035f565b5b6000620005b88682870162000397565b935050602084013567ffffffffffffffff811115620005dc57620005db62000364565b5b620005ea8682870162000559565b925050604084013567ffffffffffffffff8111156200060e576200060d62000364565b5b6200061c8682870162000559565b9150509250925092565b620006318162000369565b82525050565b600081519050919050565b600082825260208201905092915050565b60005b838110156200067357808201518184015260208101905062000656565b8381111562000683576000848401525b50505050565b6000620006968262000637565b620006a2818562000642565b9350620006b481856020860162000653565b620006bf8162000434565b840191505092915050565b6000606082019050620006e1600083018662000626565b8181036020830152620006f5818562000689565b905081810360408301526200070b818462000689565b905094935050505056fe60a06040523480156200001157600080fd5b50604051620034e4380380620034e483398181016040528101906200003791906200035f565b8181816000908051906020019062000051929190620000ad565b5080600190805190602001906200006a929190620000ad565b5050508273ffffffffffffffffffffffffffffffffffffffff1660808173ffffffffffffffffffffffffffffffffffffffff1660601b815250505050506200045e565b828054620000bb9062000428565b90600052602060002090601f016020900481019282620000df57600085556200012b565b82601f10620000fa57805160ff19168380011785556200012b565b828001600101855582156200012b579182015b828111156200012a5782518255916020019190600101906200010d565b5b5090506200013a91906200013e565b5090565b5b80821115620001595760008160009055506001016200013f565b5090565b6000604051905090565b600080fd5b600080fd5b600073ffffffffffffffffffffffffffffffffffffffff82169050919050565b60006200019e8262000171565b9050919050565b620001b08162000191565b8114620001bc57600080fd5b50565b600081519050620001d081620001a5565b92915050565b600080fd5b600080fd5b6000601f19601f8301169050919050565b7f4e487b7100000000000000000000000000000000000000000000000000000000600052604160045260246000fd5b6200022b82620001e0565b810181811067ffffffffffffffff821117156200024d576200024c620001f1565b5b80604052505050565b6000620002626200015d565b905062000270828262000220565b919050565b600067ffffffffffffffff821115620002935762000292620001f1565b5b6200029e82620001e0565b9050602081019050919050565b60005b83811015620002cb578082015181840152602081019050620002ae565b83811115620002db576000848401525b50505050565b6000620002f8620002f28462000275565b62000256565b905082815260208101848484011115620003175762000316620001db565b5b62000324848285620002ab565b509392505050565b600082601f830112620003445762000343620001d6565b5b815162000356848260208601620002e1565b91505092915050565b6000806000606084860312156200037b576200037a62000167565b5b60006200038b86828701620001bf565b935050602084015167ffffffffffffffff811115620003af57620003ae6200016c565b5b620003bd868287016200032c565b925050604084015167ffffffffffffffff811115620003e157620003e06200016c565b5b620003ef868287016200032c565b9150509250925092565b7f4e487b7100000000000000000000000000000000000000000000000000000000600052602260045260246000fd5b600060028204905060018216806200044157607f821691505b60208210811415620004585762000457620003f9565b5b50919050565b60805160601c61306a6200047a6000396000505061306a6000f3fe608060405234801561001057600080fd5b50600436106101005760003560e01c806370a0823111610097578063b88d4fde11610066578063b88d4fde146102c0578063ba2255f4146102dc578063c87b56dd146102f8578063e985e9c51461032857610100565b806370a082311461023a57806395d89b411461026a578063a22cb46514610288578063a4833b4a146102a457610100565b806323b872dd116100d357806323b872dd1461019f57806342842e0e146101bb5780635e1f6edc146101d75780636352211e1461020a57610100565b806301ffc9a71461010557806306fdde0314610135578063081812fc14610153578063095ea7b314610183575b600080fd5b61011f600480360381019061011a9190611eb2565b610358565b60405161012c9190611efa565b60405180910390f35b61013d61043a565b60405161014a9190611fae565b60405180910390f35b61016d60048036038101906101689190612006565b6104cc565b60405161017a9190612074565b60405180910390f35b61019d600480360381019061019891906120bb565b610512565b005b6101b960048036038101906101b491906120fb565b61062a565b005b6101d560048036038101906101d091906120fb565b61068a565b005b6101f160048036038101906101ec9190612006565b6106aa565b604051610201949392919061215d565b60405180910390f35b610224600480360381019061021f9190612006565b610872565b6040516102319190612074565b60405180910390f35b610254600480360381019061024f91906121b7565b610924565b60405161026191906121e4565b60405180910390f35b6102726109dc565b60405161027f9190611fae565b60405180910390f35b6102a2600480360381019061029d919061222b565b610a6e565b005b6102be60048036038101906102b991906123a0565b610a84565b005b6102da60048036038101906102d59190612510565b610d46565b005b6102f660048036038101906102f19190612006565b610da8565b005b610312600480360381019061030d9190612006565b610ee5565b60405161031f9190611fae565b60405180910390f35b610342600480360381019061033d9190612593565b610ff8565b60405161034f9190611efa565b60405180910390f35b60007f80ac58cd000000000000000000000000000000000000000000000000000000007bffffffffffffffffffffffffffffffffffffffffffffffffffffffff1916827bffffffffffffffffffffffffffffffffffffffffffffffffffffffff1916148061042357507f5b5e139f000000000000000000000000000000000000000000000000000000007bffffffffffffffffffffffffffffffffffffffffffffffffffffffff1916827bffffffffffffffffffffffffffffffffffffffffffffffffffffffff1916145b8061043357506104328261108c565b5b9050919050565b60606000805461044990612602565b80601f016020809104026020016040519081016040528092919081815260200182805461047590612602565b80156104c25780601f10610497576101008083540402835291602001916104c2565b820191906000526020600020905b8154815290600101906020018083116104a557829003601f168201915b5050505050905090565b60006104d7826110f6565b6004600083815260200190815260200160002060009054906101000a900473ffffffffffffffffffffffffffffffffffffffff169050919050565b600061051d82610872565b90508073ffffffffffffffffffffffffffffffffffffffff168373ffffffffffffffffffffffffffffffffffffffff16141561058e576040517f08c379a0000000000000000000000000000000000000000000000000000000008152600401610585906126a6565b60405180910390fd5b8073ffffffffffffffffffffffffffffffffffffffff166105ad611141565b73ffffffffffffffffffffffffffffffffffffffff1614806105dc57506105db816105d6611141565b610ff8565b5b61061b576040517f08c379a000000000000000000000000000000000000000000000000000000000815260040161061290612738565b60405180910390fd5b6106258383611149565b505050565b61063b610635611141565b82611202565b61067a576040517f08c379a0000000000000000000000000000000000000000000000000000000008152600401610671906127ca565b60405180910390fd5b610685838383611297565b505050565b6106a583838360405180602001604052806000815250610d46565b505050565b60096020528060005260406000206000915090508060000154908060010180546106d390612602565b80601f01602080910402602001604051908101604052809291908181526020018280546106ff90612602565b801561074c5780601f106107215761010080835404028352916020019161074c565b820191906000526020600020905b81548152906001019060200180831161072f57829003601f168201915b50505050509080600201805461076190612602565b80601f016020809104026020016040519081016040528092919081815260200182805461078d90612602565b80156107da5780601f106107af576101008083540402835291602001916107da565b820191906000526020600020905b8154815290600101906020018083116107bd57829003601f168201915b5050505050908060030180546107ef90612602565b80601f016020809104026020016040519081016040528092919081815260200182805461081b90612602565b80156108685780601f1061083d57610100808354040283529160200191610868565b820191906000526020600020905b81548152906001019060200180831161084b57829003601f168201915b5050505050905084565b6000806002600084815260200190815260200160002060009054906101000a900473ffffffffffffffffffffffffffffffffffffffff169050600073ffffffffffffffffffffffffffffffffffffffff168173ffffffffffffffffffffffffffffffffffffffff16141561091b576040517f08c379a000000000000000000000000000000000000000000000000000000000815260040161091290612836565b60405180910390fd5b80915050919050565b60008073ffffffffffffffffffffffffffffffffffffffff168273ffffffffffffffffffffffffffffffffffffffff161415610995576040517f08c379a000000000000000000000000000000000000000000000000000000000815260040161098c906128c8565b60405180910390fd5b600360008373ffffffffffffffffffffffffffffffffffffffff1673ffffffffffffffffffffffffffffffffffffffff168152602001908152602001600020549050919050565b6060600180546109eb90612602565b80601f0160208091040260200160405190810160405280929190818152602001828054610a1790612602565b8015610a645780601f10610a3957610100808354040283529160200191610a64565b820191906000526020600020905b815481529060010190602001808311610a4757829003601f168201915b5050505050905090565b610a80610a79611141565b83836114fe565b5050565b6000600860003373ffffffffffffffffffffffffffffffffffffffff1673ffffffffffffffffffffffffffffffffffffffff1681526020019081526020016000208054905011610b09576040517f08c379a0000000000000000000000000000000000000000000000000000000008152600401610b009061295a565b60405180910390fd5b6000610ba2600860008873ffffffffffffffffffffffffffffffffffffffff1673ffffffffffffffffffffffffffffffffffffffff168152602001908152602001600020805480602002602001604051908101604052809291908181526020018280548015610b9757602002820191906000526020600020905b815481526020019060010190808311610b83575b50505050508661166b565b905080610bdb576040517f4ec6212e00000000000000000000000000000000000000000000000000000000815260040160405180910390fd5b6000600a60008781526020019081526020016000205414610c28576040517f3263593f00000000000000000000000000000000000000000000000000000000815260040160405180910390fd5b610c3260076116c5565b6000610c3e60076116db565b9050610c4a87826116e9565b610c5481866118c3565b60405180608001604052808281526020018481526020018681526020018581525060096000838152602001908152602001600020600082015181600001556020820151816001019080519060200190610cae929190611da3565b506040820151816002019080519060200190610ccb929190611da3565b506060820151816003019080519060200190610ce8929190611da3565b5090505080600a6000888152602001908152602001600020819055507f0176f203df400d7bd5f1b1c9ef36c16709bf3b5d9fd35f000a6bae32393f66c38188604051610d3592919061297a565b60405180910390a150505050505050565b610d57610d51611141565b83611202565b610d96576040517f08c379a0000000000000000000000000000000000000000000000000000000008152600401610d8d906127ca565b60405180910390fd5b610da284848484611937565b50505050565b6000610e41600860003373ffffffffffffffffffffffffffffffffffffffff1673ffffffffffffffffffffffffffffffffffffffff168152602001908152602001600020805480602002602001604051908101604052809291908181526020018280548015610e3657602002820191906000526020600020905b815481526020019060010190808311610e22575b50505050508361166b565b90508015610e7b576040517fa3dc114a00000000000000000000000000000000000000000000000000000000815260040160405180910390fd5b600860003373ffffffffffffffffffffffffffffffffffffffff1673ffffffffffffffffffffffffffffffffffffffff1681526020019081526020016000208290806001815401808255809150506001900390600052602060002001600090919091909150555050565b6060610ef0826110f6565b6000600660008481526020019081526020016000208054610f1090612602565b80601f0160208091040260200160405190810160405280929190818152602001828054610f3c90612602565b8015610f895780601f10610f5e57610100808354040283529160200191610f89565b820191906000526020600020905b815481529060010190602001808311610f6c57829003601f168201915b505050505090506000610f9a611993565b9050600081511415610fb0578192505050610ff3565b600082511115610fe5578082604051602001610fcd9291906129df565b60405160208183030381529060405292505050610ff3565b610fee846119aa565b925050505b919050565b6000600560008473ffffffffffffffffffffffffffffffffffffffff1673ffffffffffffffffffffffffffffffffffffffff16815260200190815260200160002060008373ffffffffffffffffffffffffffffffffffffffff1673ffffffffffffffffffffffffffffffffffffffff16815260200190815260200160002060009054906101000a900460ff16905092915050565b60007f01ffc9a7000000000000000000000000000000000000000000000000000000007bffffffffffffffffffffffffffffffffffffffffffffffffffffffff1916827bffffffffffffffffffffffffffffffffffffffffffffffffffffffff1916149050919050565b6110ff81611a12565b61113e576040517f08c379a000000000000000000000000000000000000000000000000000000000815260040161113590612836565b60405180910390fd5b50565b600033905090565b816004600083815260200190815260200160002060006101000a81548173ffffffffffffffffffffffffffffffffffffffff021916908373ffffffffffffffffffffffffffffffffffffffff160217905550808273ffffffffffffffffffffffffffffffffffffffff166111bc83610872565b73ffffffffffffffffffffffffffffffffffffffff167f8c5be1e5ebec7d5bd14f71427d1e84f3dd0314c0f7b2291e5b200ac8c7c3b92560405160405180910390a45050565b60008061120e83610872565b90508073ffffffffffffffffffffffffffffffffffffffff168473ffffffffffffffffffffffffffffffffffffffff161480611250575061124f8185610ff8565b5b8061128e57508373ffffffffffffffffffffffffffffffffffffffff16611276846104cc565b73ffffffffffffffffffffffffffffffffffffffff16145b91505092915050565b8273ffffffffffffffffffffffffffffffffffffffff166112b782610872565b73ffffffffffffffffffffffffffffffffffffffff161461130d576040517f08c379a000000000000000000000000000000000000000000000000000000000815260040161130490612a75565b60405180910390fd5b600073ffffffffffffffffffffffffffffffffffffffff168273ffffffffffffffffffffffffffffffffffffffff16141561137d576040517f08c379a000000000000000000000000000000000000000000000000000000000815260040161137490612b07565b60405180910390fd5b611388838383611a7e565b611393600082611149565b6001600360008573ffffffffffffffffffffffffffffffffffffffff1673ffffffffffffffffffffffffffffffffffffffff16815260200190815260200160002060008282546113e39190612b56565b925050819055506001600360008473ffffffffffffffffffffffffffffffffffffffff1673ffffffffffffffffffffffffffffffffffffffff168152602001908152602001600020600082825461143a9190612b8a565b92505081905550816002600083815260200190815260200160002060006101000a81548173ffffffffffffffffffffffffffffffffffffffff021916908373ffffffffffffffffffffffffffffffffffffffff160217905550808273ffffffffffffffffffffffffffffffffffffffff168473ffffffffffffffffffffffffffffffffffffffff167fddf252ad1be2c89b69c2b068fc378daa952ba7f163c4a11628f55a4df523b3ef60405160405180910390a46114f9838383611a83565b505050565b8173ffffffffffffffffffffffffffffffffffffffff168373ffffffffffffffffffffffffffffffffffffffff16141561156d576040517f08c379a000000000000000000000000000000000000000000000000000000000815260040161156490612c2c565b60405180910390fd5b80600560008573ffffffffffffffffffffffffffffffffffffffff1673ffffffffffffffffffffffffffffffffffffffff16815260200190815260200160002060008473ffffffffffffffffffffffffffffffffffffffff1673ffffffffffffffffffffffffffffffffffffffff16815260200190815260200160002060006101000a81548160ff0219169083151502179055508173ffffffffffffffffffffffffffffffffffffffff168373ffffffffffffffffffffffffffffffffffffffff167f17307eab39ab6107e8899845ad3d59bd9653f200f220920489ca2b5937696c318360405161165e9190611efa565b60405180910390a3505050565b600080600090505b83518110156116b957828482815181106116905761168f612c4c565b5b602002602001015114156116a85760019150506116bf565b806116b290612c7b565b9050611673565b50600090505b92915050565b6001816000016000828254019250508190555050565b600081600001549050919050565b600073ffffffffffffffffffffffffffffffffffffffff168273ffffffffffffffffffffffffffffffffffffffff161415611759576040517f08c379a000000000000000000000000000000000000000000000000000000000815260040161175090612d10565b60405180910390fd5b61176281611a12565b156117a2576040517f08c379a000000000000000000000000000000000000000000000000000000000815260040161179990612d7c565b60405180910390fd5b6117ae60008383611a7e565b6001600360008473ffffffffffffffffffffffffffffffffffffffff1673ffffffffffffffffffffffffffffffffffffffff16815260200190815260200160002060008282546117fe9190612b8a565b92505081905550816002600083815260200190815260200160002060006101000a81548173ffffffffffffffffffffffffffffffffffffffff021916908373ffffffffffffffffffffffffffffffffffffffff160217905550808273ffffffffffffffffffffffffffffffffffffffff16600073ffffffffffffffffffffffffffffffffffffffff167fddf252ad1be2c89b69c2b068fc378daa952ba7f163c4a11628f55a4df523b3ef60405160405180910390a46118bf60008383611a83565b5050565b6118cc82611a12565b61190b576040517f08c379a000000000000000000000000000000000000000000000000000000000815260040161190290612e0e565b60405180910390fd5b80600660008481526020019081526020016000209080519060200190611932929190611da3565b505050565b611942848484611297565b61194e84848484611a88565b61198d576040517f08c379a000000000000000000000000000000000000000000000000000000000815260040161198490612ea0565b60405180910390fd5b50505050565b606060405180602001604052806000815250905090565b60606119b5826110f6565b60006119bf611993565b905060008151116119df5760405180602001604052806000815250611a0a565b806119e984611c1f565b6040516020016119fa9291906129df565b6040516020818303038152906040525b915050919050565b60008073ffffffffffffffffffffffffffffffffffffffff166002600084815260200190815260200160002060009054906101000a900473ffffffffffffffffffffffffffffffffffffffff1673ffffffffffffffffffffffffffffffffffffffff1614159050919050565b505050565b505050565b6000611aa98473ffffffffffffffffffffffffffffffffffffffff16611d80565b15611c12578373ffffffffffffffffffffffffffffffffffffffff1663150b7a02611ad2611141565b8786866040518563ffffffff1660e01b8152600401611af49493929190612f15565b602060405180830381600087803b158015611b0e57600080fd5b505af1925050508015611b3f57506040513d601f19601f82011682018060405250810190611b3c9190612f76565b60015b611bc2573d8060008114611b6f576040519150601f19603f3d011682016040523d82523d6000602084013e611b74565b606091505b50600081511415611bba576040517f08c379a0000000000000000000000000000000000000000000000000000000008152600401611bb190612ea0565b60405180910390fd5b805181602001fd5b63150b7a0260e01b7bffffffffffffffffffffffffffffffffffffffffffffffffffffffff1916817bffffffffffffffffffffffffffffffffffffffffffffffffffffffff191614915050611c17565b600190505b949350505050565b60606000821415611c67576040518060400160405280600181526020017f30000000000000000000000000000000000000000000000000000000000000008152509050611d7b565b600082905060005b60008214611c99578080611c8290612c7b565b915050600a82611c929190612fd2565b9150611c6f565b60008167ffffffffffffffff811115611cb557611cb4612275565b5b6040519080825280601f01601f191660200182016040528015611ce75781602001600182028036833780820191505090505b5090505b60008514611d7457600182611d009190612b56565b9150600a85611d0f9190613003565b6030611d1b9190612b8a565b60f81b818381518110611d3157611d30612c4c565b5b60200101907effffffffffffffffffffffffffffffffffffffffffffffffffffffffffffff1916908160001a905350600a85611d6d9190612fd2565b9450611ceb565b8093505050505b919050565b6000808273ffffffffffffffffffffffffffffffffffffffff163b119050919050565b828054611daf90612602565b90600052602060002090601f016020900481019282611dd15760008555611e18565b82601f10611dea57805160ff1916838001178555611e18565b82800160010185558215611e18579182015b82811115611e17578251825591602001919060010190611dfc565b5b509050611e259190611e29565b5090565b5b80821115611e42576000816000905550600101611e2a565b5090565b6000604051905090565b600080fd5b600080fd5b60007fffffffff0000000000000000000000000000000000000000000000000000000082169050919050565b611e8f81611e5a565b8114611e9a57600080fd5b50565b600081359050611eac81611e86565b92915050565b600060208284031215611ec857611ec7611e50565b5b6000611ed684828501611e9d565b91505092915050565b60008115159050919050565b611ef481611edf565b82525050565b6000602082019050611f0f6000830184611eeb565b92915050565b600081519050919050565b600082825260208201905092915050565b60005b83811015611f4f578082015181840152602081019050611f34565b83811115611f5e576000848401525b50505050565b6000601f19601f8301169050919050565b6000611f8082611f15565b611f8a8185611f20565b9350611f9a818560208601611f31565b611fa381611f64565b840191505092915050565b60006020820190508181036000830152611fc88184611f75565b905092915050565b6000819050919050565b611fe381611fd0565b8114611fee57600080fd5b50565b60008135905061200081611fda565b92915050565b60006020828403121561201c5761201b611e50565b5b600061202a84828501611ff1565b91505092915050565b600073ffffffffffffffffffffffffffffffffffffffff82169050919050565b600061205e82612033565b9050919050565b61206e81612053565b82525050565b60006020820190506120896000830184612065565b92915050565b61209881612053565b81146120a357600080fd5b50565b6000813590506120b58161208f565b92915050565b600080604083850312156120d2576120d1611e50565b5b60006120e0858286016120a6565b92505060206120f185828601611ff1565b9150509250929050565b60008060006060848603121561211457612113611e50565b5b6000612122868287016120a6565b9350506020612133868287016120a6565b925050604061214486828701611ff1565b9150509250925092565b61215781611fd0565b82525050565b6000608082019050612172600083018761214e565b81810360208301526121848186611f75565b905081810360408301526121988185611f75565b905081810360608301526121ac8184611f75565b905095945050505050565b6000602082840312156121cd576121cc611e50565b5b60006121db848285016120a6565b91505092915050565b60006020820190506121f9600083018461214e565b92915050565b61220881611edf565b811461221357600080fd5b50565b600081359050612225816121ff565b92915050565b6000806040838503121561224257612241611e50565b5b6000612250858286016120a6565b925050602061226185828601612216565b9150509250929050565b600080fd5b600080fd5b7f4e487b7100000000000000000000000000000000000000000000000000000000600052604160045260246000fd5b6122ad82611f64565b810181811067ffffffffffffffff821117156122cc576122cb612275565b5b80604052505050565b60006122df611e46565b90506122eb82826122a4565b919050565b600067ffffffffffffffff82111561230b5761230a612275565b5b61231482611f64565b9050602081019050919050565b82818337600083830152505050565b600061234361233e846122f0565b6122d5565b90508281526020810184848401111561235f5761235e612270565b5b61236a848285612321565b509392505050565b600082601f8301126123875761238661226b565b5b8135612397848260208601612330565b91505092915050565b600080600080600060a086880312156123bc576123bb611e50565b5b60006123ca888289016120a6565b95505060206123db88828901611ff1565b945050604086013567ffffffffffffffff8111156123fc576123fb611e55565b5b61240888828901612372565b935050606086013567ffffffffffffffff81111561242957612428611e55565b5b61243588828901612372565b925050608086013567ffffffffffffffff81111561245657612455611e55565b5b61246288828901612372565b9150509295509295909350565b600067ffffffffffffffff82111561248a57612489612275565b5b61249382611f64565b9050602081019050919050565b60006124b36124ae8461246f565b6122d5565b9050828152602081018484840111156124cf576124ce612270565b5b6124da848285612321565b509392505050565b600082601f8301126124f7576124f661226b565b5b81356125078482602086016124a0565b91505092915050565b6000806000806080858703121561252a57612529611e50565b5b6000612538878288016120a6565b9450506020612549878288016120a6565b935050604061255a87828801611ff1565b925050606085013567ffffffffffffffff81111561257b5761257a611e55565b5b612587878288016124e2565b91505092959194509250565b600080604083850312156125aa576125a9611e50565b5b60006125b8858286016120a6565b92505060206125c9858286016120a6565b9150509250929050565b7f4e487b7100000000000000000000000000000000000000000000000000000000600052602260045260246000fd5b6000600282049050600182168061261a57607f821691505b6020821081141561262e5761262d6125d3565b5b50919050565b7f4552433732313a20617070726f76616c20746f2063757272656e74206f776e6560008201527f7200000000000000000000000000000000000000000000000000000000000000602082015250565b6000612690602183611f20565b915061269b82612634565b604082019050919050565b600060208201905081810360008301526126bf81612683565b9050919050565b7f4552433732313a20617070726f76652063616c6c6572206973206e6f7420746f60008201527f6b656e206f776e6572206e6f7220617070726f76656420666f7220616c6c0000602082015250565b6000612722603e83611f20565b915061272d826126c6565b604082019050919050565b6000602082019050818103600083015261275181612715565b9050919050565b7f4552433732313a2063616c6c6572206973206e6f7420746f6b656e206f776e6560008201527f72206e6f7220617070726f766564000000000000000000000000000000000000602082015250565b60006127b4602e83611f20565b91506127bf82612758565b604082019050919050565b600060208201905081810360008301526127e3816127a7565b9050919050565b7f4552433732313a20696e76616c696420746f6b656e2049440000000000000000600082015250565b6000612820601883611f20565b915061282b826127ea565b602082019050919050565b6000602082019050818103600083015261284f81612813565b9050919050565b7f4552433732313a2061646472657373207a65726f206973206e6f74206120766160008201527f6c6964206f776e65720000000000000000000000000000000000000000000000602082015250565b60006128b2602983611f20565b91506128bd82612856565b604082019050919050565b600060208201905081810360008301526128e1816128a5565b9050919050565b7f4e6f7420416c6c6f7765642c20596f7520617265206e6f7420637573746f6d6560008201527f7200000000000000000000000000000000000000000000000000000000000000602082015250565b6000612944602183611f20565b915061294f826128e8565b604082019050919050565b6000602082019050818103600083015261297381612937565b9050919050565b600060408201905061298f600083018561214e565b61299c6020830184612065565b9392505050565b600081905092915050565b60006129b982611f15565b6129c381856129a3565b93506129d3818560208601611f31565b80840191505092915050565b60006129eb82856129ae565b91506129f782846129ae565b91508190509392505050565b7f4552433732313a207472616e736665722066726f6d20696e636f72726563742060008201527f6f776e6572000000000000000000000000000000000000000000000000000000602082015250565b6000612a5f602583611f20565b9150612a6a82612a03565b604082019050919050565b60006020820190508181036000830152612a8e81612a52565b9050919050565b7f4552433732313a207472616e7366657220746f20746865207a65726f2061646460008201527f7265737300000000000000000000000000000000000000000000000000000000602082015250565b6000612af1602483611f20565b9150612afc82612a95565b604082019050919050565b60006020820190508181036000830152612b2081612ae4565b9050919050565b7f4e487b7100000000000000000000000000000000000000000000000000000000600052601160045260246000fd5b6000612b6182611fd0565b9150612b6c83611fd0565b925082821015612b7f57612b7e612b27565b5b828203905092915050565b6000612b9582611fd0565b9150612ba083611fd0565b9250827fffffffffffffffffffffffffffffffffffffffffffffffffffffffffffffffff03821115612bd557612bd4612b27565b5b828201905092915050565b7f4552433732313a20617070726f766520746f2063616c6c657200000000000000600082015250565b6000612c16601983611f20565b9150612c2182612be0565b602082019050919050565b60006020820190508181036000830152612c4581612c09565b9050919050565b7f4e487b7100000000000000000000000000000000000000000000000000000000600052603260045260246000fd5b6000612c8682611fd0565b91507fffffffffffffffffffffffffffffffffffffffffffffffffffffffffffffffff821415612cb957612cb8612b27565b5b600182019050919050565b7f4552433732313a206d696e7420746f20746865207a65726f2061646472657373600082015250565b6000612cfa602083611f20565b9150612d0582612cc4565b602082019050919050565b60006020820190508181036000830152612d2981612ced565b9050919050565b7f4552433732313a20746f6b656e20616c7265616479206d696e74656400000000600082015250565b6000612d66601c83611f20565b9150612d7182612d30565b602082019050919050565b60006020820190508181036000830152612d9581612d59565b9050919050565b7f45524337323155524953746f726167653a2055524920736574206f66206e6f6e60008201527f6578697374656e7420746f6b656e000000000000000000000000000000000000602082015250565b6000612df8602e83611f20565b9150612e0382612d9c565b604082019050919050565b60006020820190508181036000830152612e2781612deb565b9050919050565b7f4552433732313a207472616e7366657220746f206e6f6e20455243373231526560008201527f63656976657220696d706c656d656e7465720000000000000000000000000000602082015250565b6000612e8a603283611f20565b9150612e9582612e2e565b604082019050919050565b60006020820190508181036000830152612eb981612e7d565b9050919050565b600081519050919050565b600082825260208201905092915050565b6000612ee782612ec0565b612ef18185612ecb565b9350612f01818560208601611f31565b612f0a81611f64565b840191505092915050565b6000608082019050612f2a6000830187612065565b612f376020830186612065565b612f44604083018561214e565b8181036060830152612f568184612edc565b905095945050505050565b600081519050612f7081611e86565b92915050565b600060208284031215612f8c57612f8b611e50565b5b6000612f9a84828501612f61565b91505092915050565b7f4e487b7100000000000000000000000000000000000000000000000000000000600052601260045260246000fd5b6000612fdd82611fd0565b9150612fe883611fd0565b925082612ff857612ff7612fa3565b5b828204905092915050565b600061300e82611fd0565b915061301983611fd0565b92508261302957613028612fa3565b5b82820690509291505056fea264697066735822122046d08d2ea00f5b7ef6464b28a6a57a32be7437f13475243e646da298099b71bd64736f6c63430008080033a2646970667358221220d150fb96bc546f99a31045e2f96e78a9c19baf8bc90eb00d8a0550d520124a7c64736f6c63430008080033",
  "devdoc": {
    "kind": "dev",
    "methods": {},
    "version": 1
  },
  "userdoc": {
    "kind": "user",
    "methods": {},
    "version": 1
  },
  "storageLayout": {
    "storage": [
      {
        "astId": 1831,
        "contract": "contracts/Seller.sol:Seller",
        "label": "sellers",
        "offset": 0,
        "slot": "0",
        "type": "t_mapping(t_address,t_struct(data)1821_storage)"
      }
    ],
    "types": {
      "t_address": {
        "encoding": "inplace",
        "label": "address",
        "numberOfBytes": "20"
      },
      "t_bool": {
        "encoding": "inplace",
        "label": "bool",
        "numberOfBytes": "1"
      },
      "t_contract(WarrantyNFT)2122": {
        "encoding": "inplace",
        "label": "contract WarrantyNFT",
        "numberOfBytes": "20"
      },
      "t_mapping(t_address,t_struct(data)1821_storage)": {
        "encoding": "mapping",
        "key": "t_address",
        "label": "mapping(address => struct Library.data)",
        "numberOfBytes": "32",
        "value": "t_struct(data)1821_storage"
      },
      "t_struct(data)1821_storage": {
        "encoding": "inplace",
        "label": "struct Library.data",
        "members": [
          {
            "astId": 1818,
            "contract": "contracts/Seller.sol:Seller",
            "label": "WarrantyContract",
            "offset": 0,
            "slot": "0",
            "type": "t_contract(WarrantyNFT)2122"
          },
          {
            "astId": 1820,
            "contract": "contracts/Seller.sol:Seller",
            "label": "isValue",
            "offset": 20,
            "slot": "0",
            "type": "t_bool"
          }
        ],
        "numberOfBytes": "32"
      }
    }
  }
}